{
	"SlushToken_flat.sol": {
		"SlushToken": {
			"abi": [
				{
					"inputs": [],
					"stateMutability": "nonpayable",
					"type": "constructor"
				},
				{
					"anonymous": false,
					"inputs": [
						{
							"indexed": true,
							"internalType": "address",
							"name": "owner",
							"type": "address"
						},
						{
							"indexed": true,
							"internalType": "address",
							"name": "spender",
							"type": "address"
						},
						{
							"indexed": false,
							"internalType": "uint256",
							"name": "value",
							"type": "uint256"
						}
					],
					"name": "Approval",
					"type": "event"
				},
				{
					"anonymous": false,
					"inputs": [
						{
							"indexed": true,
							"internalType": "address",
							"name": "previousOwner",
							"type": "address"
						},
						{
							"indexed": true,
							"internalType": "address",
							"name": "newOwner",
							"type": "address"
						}
					],
					"name": "OwnershipTransferred",
					"type": "event"
				},
				{
					"anonymous": false,
					"inputs": [
						{
							"indexed": true,
							"internalType": "address",
							"name": "from",
							"type": "address"
						},
						{
							"indexed": true,
							"internalType": "address",
							"name": "to",
							"type": "address"
						},
						{
							"indexed": false,
							"internalType": "uint256",
							"name": "value",
							"type": "uint256"
						}
					],
					"name": "Transfer",
					"type": "event"
				},
				{
					"anonymous": false,
					"inputs": [
						{
							"indexed": false,
							"internalType": "address",
							"name": "",
							"type": "address"
						},
						{
							"indexed": false,
							"internalType": "uint256",
							"name": "",
							"type": "uint256"
						}
					],
					"name": "buyToken",
					"type": "event"
				},
				{
					"inputs": [
						{
							"internalType": "address",
							"name": "owner",
							"type": "address"
						},
						{
							"internalType": "address",
							"name": "spender",
							"type": "address"
						}
					],
					"name": "allowance",
					"outputs": [
						{
							"internalType": "uint256",
							"name": "",
							"type": "uint256"
						}
					],
					"stateMutability": "view",
					"type": "function"
				},
				{
					"inputs": [
						{
							"internalType": "address",
							"name": "spender",
							"type": "address"
						},
						{
							"internalType": "uint256",
							"name": "amount",
							"type": "uint256"
						}
					],
					"name": "approve",
					"outputs": [
						{
							"internalType": "bool",
							"name": "",
							"type": "bool"
						}
					],
					"stateMutability": "nonpayable",
					"type": "function"
				},
				{
					"inputs": [
						{
							"internalType": "address",
							"name": "account",
							"type": "address"
						}
					],
					"name": "balanceOf",
					"outputs": [
						{
							"internalType": "uint256",
							"name": "",
							"type": "uint256"
						}
					],
					"stateMutability": "view",
					"type": "function"
				},
				{
					"inputs": [],
					"name": "decimals",
					"outputs": [
						{
							"internalType": "uint8",
							"name": "",
							"type": "uint8"
						}
					],
					"stateMutability": "view",
					"type": "function"
				},
				{
					"inputs": [
						{
							"internalType": "address",
							"name": "spender",
							"type": "address"
						},
						{
							"internalType": "uint256",
							"name": "subtractedValue",
							"type": "uint256"
						}
					],
					"name": "decreaseAllowance",
					"outputs": [
						{
							"internalType": "bool",
							"name": "",
							"type": "bool"
						}
					],
					"stateMutability": "nonpayable",
					"type": "function"
				},
				{
					"inputs": [
						{
							"internalType": "address",
							"name": "spender",
							"type": "address"
						},
						{
							"internalType": "uint256",
							"name": "addedValue",
							"type": "uint256"
						}
					],
					"name": "increaseAllowance",
					"outputs": [
						{
							"internalType": "bool",
							"name": "",
							"type": "bool"
						}
					],
					"stateMutability": "nonpayable",
					"type": "function"
				},
				{
					"inputs": [
						{
							"internalType": "address",
							"name": "to",
							"type": "address"
						},
						{
							"internalType": "uint256",
							"name": "amount",
							"type": "uint256"
						}
					],
					"name": "mint",
					"outputs": [],
					"stateMutability": "nonpayable",
					"type": "function"
				},
				{
					"inputs": [],
					"name": "name",
					"outputs": [
						{
							"internalType": "string",
							"name": "",
							"type": "string"
						}
					],
					"stateMutability": "view",
					"type": "function"
				},
				{
					"inputs": [],
					"name": "owner",
					"outputs": [
						{
							"internalType": "address",
							"name": "",
							"type": "address"
						}
					],
					"stateMutability": "view",
					"type": "function"
				},
				{
					"inputs": [],
					"name": "rate",
					"outputs": [
						{
							"internalType": "uint256",
							"name": "",
							"type": "uint256"
						}
					],
					"stateMutability": "view",
					"type": "function"
				},
				{
					"inputs": [],
					"name": "renounceOwnership",
					"outputs": [],
					"stateMutability": "nonpayable",
					"type": "function"
				},
				{
					"inputs": [],
					"name": "symbol",
					"outputs": [
						{
							"internalType": "string",
							"name": "",
							"type": "string"
						}
					],
					"stateMutability": "view",
					"type": "function"
				},
				{
					"inputs": [],
					"name": "totalSupply",
					"outputs": [
						{
							"internalType": "uint256",
							"name": "",
							"type": "uint256"
						}
					],
					"stateMutability": "view",
					"type": "function"
				},
				{
					"inputs": [
						{
							"internalType": "address",
							"name": "to",
							"type": "address"
						},
						{
							"internalType": "uint256",
							"name": "amount",
							"type": "uint256"
						}
					],
					"name": "transfer",
					"outputs": [
						{
							"internalType": "bool",
							"name": "",
							"type": "bool"
						}
					],
					"stateMutability": "nonpayable",
					"type": "function"
				},
				{
					"inputs": [
						{
							"internalType": "address",
							"name": "from",
							"type": "address"
						},
						{
							"internalType": "address",
							"name": "to",
							"type": "address"
						},
						{
							"internalType": "uint256",
							"name": "amount",
							"type": "uint256"
						}
					],
					"name": "transferFrom",
					"outputs": [
						{
							"internalType": "bool",
							"name": "",
							"type": "bool"
						}
					],
					"stateMutability": "nonpayable",
					"type": "function"
				},
				{
					"inputs": [
						{
							"internalType": "address",
							"name": "newOwner",
							"type": "address"
						}
					],
					"name": "transferOwnership",
					"outputs": [],
					"stateMutability": "nonpayable",
					"type": "function"
				},
				{
					"stateMutability": "payable",
					"type": "receive"
				}
			],
			"devdoc": {
				"kind": "dev",
				"methods": {
					"allowance(address,address)": {
						"details": "See {IERC20-allowance}."
					},
					"approve(address,uint256)": {
						"details": "See {IERC20-approve}. NOTE: If `amount` is the maximum `uint256`, the allowance is not updated on `transferFrom`. This is semantically equivalent to an infinite approval. Requirements: - `spender` cannot be the zero address."
					},
					"balanceOf(address)": {
						"details": "See {IERC20-balanceOf}."
					},
					"decimals()": {
						"details": "Returns the number of decimals used to get its user representation. For example, if `decimals` equals `2`, a balance of `505` tokens should be displayed to a user as `5.05` (`505 / 10 ** 2`). Tokens usually opt for a value of 18, imitating the relationship between Ether and Wei. This is the value {ERC20} uses, unless this function is overridden; NOTE: This information is only used for _display_ purposes: it in no way affects any of the arithmetic of the contract, including {IERC20-balanceOf} and {IERC20-transfer}."
					},
					"decreaseAllowance(address,uint256)": {
						"details": "Atomically decreases the allowance granted to `spender` by the caller. This is an alternative to {approve} that can be used as a mitigation for problems described in {IERC20-approve}. Emits an {Approval} event indicating the updated allowance. Requirements: - `spender` cannot be the zero address. - `spender` must have allowance for the caller of at least `subtractedValue`."
					},
					"increaseAllowance(address,uint256)": {
						"details": "Atomically increases the allowance granted to `spender` by the caller. This is an alternative to {approve} that can be used as a mitigation for problems described in {IERC20-approve}. Emits an {Approval} event indicating the updated allowance. Requirements: - `spender` cannot be the zero address."
					},
					"name()": {
						"details": "Returns the name of the token."
					},
					"owner()": {
						"details": "Returns the address of the current owner."
					},
					"renounceOwnership()": {
						"details": "Leaves the contract without owner. It will not be possible to call `onlyOwner` functions anymore. Can only be called by the current owner. NOTE: Renouncing ownership will leave the contract without an owner, thereby removing any functionality that is only available to the owner."
					},
					"symbol()": {
						"details": "Returns the symbol of the token, usually a shorter version of the name."
					},
					"totalSupply()": {
						"details": "See {IERC20-totalSupply}."
					},
					"transfer(address,uint256)": {
						"details": "See {IERC20-transfer}. Requirements: - `to` cannot be the zero address. - the caller must have a balance of at least `amount`."
					},
					"transferFrom(address,address,uint256)": {
						"details": "See {IERC20-transferFrom}. Emits an {Approval} event indicating the updated allowance. This is not required by the EIP. See the note at the beginning of {ERC20}. NOTE: Does not update the allowance if the current allowance is the maximum `uint256`. Requirements: - `from` and `to` cannot be the zero address. - `from` must have a balance of at least `amount`. - the caller must have allowance for ``from``'s tokens of at least `amount`."
					},
					"transferOwnership(address)": {
						"details": "Transfers ownership of the contract to a new account (`newOwner`). Can only be called by the current owner."
					}
				},
				"version": 1
			},
			"evm": {
				"assembly": "    /* \"SlushToken_flat.sol\":19458:19892  contract SlushToken is ERC20, Ownable {... */\n  mstore(0x40, 0x80)\n    /* \"SlushToken_flat.sol\":19537:19547  decimals() */\n  tag_1\n    /* \"SlushToken_flat.sol\":19537:19545  decimals */\n  shl(0x20, tag_2)\n    /* \"SlushToken_flat.sol\":19537:19547  decimals() */\n  0x20\n  shr\n  jump\t// in\ntag_1:\n    /* \"SlushToken_flat.sol\":19531:19533  10 */\n  0x0a\n    /* \"SlushToken_flat.sol\":19531:19547  10 ** decimals() */\n  tag_3\n  swap2\n  swap1\n  tag_4\n  jump\t// in\ntag_3:\n    /* \"SlushToken_flat.sol\":19524:19528  1000 */\n  0x03e8\n    /* \"SlushToken_flat.sol\":19524:19547  1000 * 10 ** decimals() */\n  tag_5\n  swap2\n  swap1\n  tag_6\n  jump\t// in\ntag_5:\n    /* \"SlushToken_flat.sol\":19502:19547  uint256 public rate = 1000 * 10 ** decimals() */\n  0x06\n  sstore\n    /* \"SlushToken_flat.sol\":19554:19657  constructor() ERC20(\"SlushToken\", \"SLK\") {... */\n  callvalue\n  dup1\n  iszero\n  tag_7\n  jumpi\n  0x00\n  dup1\n  revert\ntag_7:\n  pop\n    /* \"SlushToken_flat.sol\":8755:8868  constructor(string memory name_, string memory symbol_) {... */\n  mload(0x40)\n  dup1\n  0x40\n  add\n  0x40\n  mstore\n  dup1\n  0x0a\n  dup2\n  mstore\n  0x20\n  add\n  0x536c757368546f6b656e00000000000000000000000000000000000000000000\n  dup2\n  mstore\n  pop\n  mload(0x40)\n  dup1\n  0x40\n  add\n  0x40\n  mstore\n  dup1\n  0x03\n  dup2\n  mstore\n  0x20\n  add\n  0x534c4b0000000000000000000000000000000000000000000000000000000000\n  dup2\n  mstore\n  pop\n    /* \"SlushToken_flat.sol\":8829:8834  name_ */\n  dup2\n    /* \"SlushToken_flat.sol\":8821:8826  _name */\n  0x03\n    /* \"SlushToken_flat.sol\":8821:8834  _name = name_ */\n  swap1\n  dup1\n  mload\n  swap1\n  0x20\n  add\n  swap1\n  tag_12\n  swap3\n  swap2\n  swap1\n  tag_13\n  jump\t// in\ntag_12:\n  pop\n    /* \"SlushToken_flat.sol\":8854:8861  symbol_ */\n  dup1\n    /* \"SlushToken_flat.sol\":8844:8851  _symbol */\n  0x04\n    /* \"SlushToken_flat.sol\":8844:8861  _symbol = symbol_ */\n  swap1\n  dup1\n  mload\n  swap1\n  0x20\n  add\n  swap1\n  tag_14\n  swap3\n  swap2\n  swap1\n  tag_13\n  jump\t// in\ntag_14:\n  pop\n    /* \"SlushToken_flat.sol\":8755:8868  constructor(string memory name_, string memory symbol_) {... */\n  pop\n  pop\n    /* \"SlushToken_flat.sol\":1810:1842  _transferOwnership(_msgSender()) */\n  tag_16\n    /* \"SlushToken_flat.sol\":1829:1841  _msgSender() */\n  tag_17\n    /* \"SlushToken_flat.sol\":1829:1839  _msgSender */\n  shl(0x20, tag_18)\n    /* \"SlushToken_flat.sol\":1829:1841  _msgSender() */\n  0x20\n  shr\n  jump\t// in\ntag_17:\n    /* \"SlushToken_flat.sol\":1810:1828  _transferOwnership */\n  shl(0x20, tag_19)\n    /* \"SlushToken_flat.sol\":1810:1842  _transferOwnership(_msgSender()) */\n  0x20\n  shr\n  jump\t// in\ntag_16:\n    /* \"SlushToken_flat.sol\":19605:19650  _mint(msg.sender, 1000000 * 10 ** decimals()) */\n  tag_21\n    /* \"SlushToken_flat.sol\":19611:19621  msg.sender */\n  caller\n    /* \"SlushToken_flat.sol\":19639:19649  decimals() */\n  tag_22\n    /* \"SlushToken_flat.sol\":19639:19647  decimals */\n  shl(0x20, tag_2)\n    /* \"SlushToken_flat.sol\":19639:19649  decimals() */\n  0x20\n  shr\n  jump\t// in\ntag_22:\n    /* \"SlushToken_flat.sol\":19633:19635  10 */\n  0x0a\n    /* \"SlushToken_flat.sol\":19633:19649  10 ** decimals() */\n  tag_23\n  swap2\n  swap1\n  tag_4\n  jump\t// in\ntag_23:\n    /* \"SlushToken_flat.sol\":19623:19630  1000000 */\n  0x0f4240\n    /* \"SlushToken_flat.sol\":19623:19649  1000000 * 10 ** decimals() */\n  tag_24\n  swap2\n  swap1\n  tag_6\n  jump\t// in\ntag_24:\n    /* \"SlushToken_flat.sol\":19605:19610  _mint */\n  shl(0x20, tag_25)\n    /* \"SlushToken_flat.sol\":19605:19650  _mint(msg.sender, 1000000 * 10 ** decimals()) */\n  0x20\n  shr\n  jump\t// in\ntag_21:\n    /* \"SlushToken_flat.sol\":19458:19892  contract SlushToken is ERC20, Ownable {... */\n  jump(tag_26)\n    /* \"SlushToken_flat.sol\":9870:9961  function decimals() public view virtual override returns (uint8) {... */\ntag_2:\n    /* \"SlushToken_flat.sol\":9928:9933  uint8 */\n  0x00\n    /* \"SlushToken_flat.sol\":9952:9954  18 */\n  0x12\n    /* \"SlushToken_flat.sol\":9945:9954  return 18 */\n  swap1\n  pop\n    /* \"SlushToken_flat.sol\":9870:9961  function decimals() public view virtual override returns (uint8) {... */\n  swap1\n  jump\t// out\n    /* \"SlushToken_flat.sol\":693:789  function _msgSender() internal view virtual returns (address) {... */\ntag_18:\n    /* \"SlushToken_flat.sol\":746:753  address */\n  0x00\n    /* \"SlushToken_flat.sol\":772:782  msg.sender */\n  caller\n    /* \"SlushToken_flat.sol\":765:782  return msg.sender */\n  swap1\n  pop\n    /* \"SlushToken_flat.sol\":693:789  function _msgSender() internal view virtual returns (address) {... */\n  swap1\n  jump\t// out\n    /* \"SlushToken_flat.sol\":3159:3346  function _transferOwnership(address newOwner) internal virtual {... */\ntag_19:\n    /* \"SlushToken_flat.sol\":3232:3248  address oldOwner */\n  0x00\n    /* \"SlushToken_flat.sol\":3251:3257  _owner */\n  0x05\n  0x00\n  swap1\n  sload\n  swap1\n  0x0100\n  exp\n  swap1\n  div\n  0xffffffffffffffffffffffffffffffffffffffff\n  and\n    /* \"SlushToken_flat.sol\":3232:3257  address oldOwner = _owner */\n  swap1\n  pop\n    /* \"SlushToken_flat.sol\":3276:3284  newOwner */\n  dup2\n    /* \"SlushToken_flat.sol\":3267:3273  _owner */\n  0x05\n  0x00\n    /* \"SlushToken_flat.sol\":3267:3284  _owner = newOwner */\n  0x0100\n  exp\n  dup2\n  sload\n  dup2\n  0xffffffffffffffffffffffffffffffffffffffff\n  mul\n  not\n  and\n  swap1\n  dup4\n  0xffffffffffffffffffffffffffffffffffffffff\n  and\n  mul\n  or\n  swap1\n  sstore\n  pop\n    /* \"SlushToken_flat.sol\":3330:3338  newOwner */\n  dup2\n    /* \"SlushToken_flat.sol\":3299:3339  OwnershipTransferred(oldOwner, newOwner) */\n  0xffffffffffffffffffffffffffffffffffffffff\n  and\n    /* \"SlushToken_flat.sol\":3320:3328  oldOwner */\n  dup2\n    /* \"SlushToken_flat.sol\":3299:3339  OwnershipTransferred(oldOwner, newOwner) */\n  0xffffffffffffffffffffffffffffffffffffffff\n  and\n  0x8be0079c531659141344cd1fd0a4f28419497f9722a3daafe3b4186f6b6457e0\n  mload(0x40)\n  mload(0x40)\n  dup1\n  swap2\n  sub\n  swap1\n  log3\n    /* \"SlushToken_flat.sol\":3222:3346  {... */\n  pop\n    /* \"SlushToken_flat.sol\":3159:3346  function _transferOwnership(address newOwner) internal virtual {... */\n  pop\n  jump\t// out\n    /* \"SlushToken_flat.sol\":15192:15581  function _mint(address account, uint256 amount) internal virtual {... */\ntag_25:\n    /* \"SlushToken_flat.sol\":15294:15295  0 */\n  0x00\n    /* \"SlushToken_flat.sol\":15275:15296  account != address(0) */\n  0xffffffffffffffffffffffffffffffffffffffff\n  and\n    /* \"SlushToken_flat.sol\":15275:15282  account */\n  dup3\n    /* \"SlushToken_flat.sol\":15275:15296  account != address(0) */\n  0xffffffffffffffffffffffffffffffffffffffff\n  and\n  sub\n    /* \"SlushToken_flat.sol\":15267:15332  require(account != address(0), \"ERC20: mint to the zero address\") */\n  tag_31\n  jumpi\n  mload(0x40)\n  0x08c379a000000000000000000000000000000000000000000000000000000000\n  dup2\n  mstore\n  0x04\n  add\n  tag_32\n  swap1\n  tag_33\n  jump\t// in\ntag_32:\n  mload(0x40)\n  dup1\n  swap2\n  sub\n  swap1\n  revert\ntag_31:\n    /* \"SlushToken_flat.sol\":15343:15392  _beforeTokenTransfer(address(0), account, amount) */\n  tag_34\n    /* \"SlushToken_flat.sol\":15372:15373  0 */\n  0x00\n    /* \"SlushToken_flat.sol\":15376:15383  account */\n  dup4\n    /* \"SlushToken_flat.sol\":15385:15391  amount */\n  dup4\n    /* \"SlushToken_flat.sol\":15343:15363  _beforeTokenTransfer */\n  shl(0x20, tag_35)\n    /* \"SlushToken_flat.sol\":15343:15392  _beforeTokenTransfer(address(0), account, amount) */\n  0x20\n  shr\n  jump\t// in\ntag_34:\n    /* \"SlushToken_flat.sol\":15419:15425  amount */\n  dup1\n    /* \"SlushToken_flat.sol\":15403:15415  _totalSupply */\n  0x02\n  0x00\n    /* \"SlushToken_flat.sol\":15403:15425  _totalSupply += amount */\n  dup3\n  dup3\n  sload\n  tag_36\n  swap2\n  swap1\n  tag_37\n  jump\t// in\ntag_36:\n  swap3\n  pop\n  pop\n  dup2\n  swap1\n  sstore\n  pop\n    /* \"SlushToken_flat.sol\":15457:15463  amount */\n  dup1\n    /* \"SlushToken_flat.sol\":15435:15444  _balances */\n  0x00\n    /* \"SlushToken_flat.sol\":15435:15453  _balances[account] */\n  dup1\n    /* \"SlushToken_flat.sol\":15445:15452  account */\n  dup5\n    /* \"SlushToken_flat.sol\":15435:15453  _balances[account] */\n  0xffffffffffffffffffffffffffffffffffffffff\n  and\n  0xffffffffffffffffffffffffffffffffffffffff\n  and\n  dup2\n  mstore\n  0x20\n  add\n  swap1\n  dup2\n  mstore\n  0x20\n  add\n  0x00\n  keccak256\n  0x00\n    /* \"SlushToken_flat.sol\":15435:15463  _balances[account] += amount */\n  dup3\n  dup3\n  sload\n  tag_38\n  swap2\n  swap1\n  tag_37\n  jump\t// in\ntag_38:\n  swap3\n  pop\n  pop\n  dup2\n  swap1\n  sstore\n  pop\n    /* \"SlushToken_flat.sol\":15499:15506  account */\n  dup2\n    /* \"SlushToken_flat.sol\":15478:15515  Transfer(address(0), account, amount) */\n  0xffffffffffffffffffffffffffffffffffffffff\n  and\n    /* \"SlushToken_flat.sol\":15495:15496  0 */\n  0x00\n    /* \"SlushToken_flat.sol\":15478:15515  Transfer(address(0), account, amount) */\n  0xffffffffffffffffffffffffffffffffffffffff\n  and\n  0xddf252ad1be2c89b69c2b068fc378daa952ba7f163c4a11628f55a4df523b3ef\n    /* \"SlushToken_flat.sol\":15508:15514  amount */\n  dup4\n    /* \"SlushToken_flat.sol\":15478:15515  Transfer(address(0), account, amount) */\n  mload(0x40)\n  tag_39\n  swap2\n  swap1\n  tag_40\n  jump\t// in\ntag_39:\n  mload(0x40)\n  dup1\n  swap2\n  sub\n  swap1\n  log3\n    /* \"SlushToken_flat.sol\":15526:15574  _afterTokenTransfer(address(0), account, amount) */\n  tag_41\n    /* \"SlushToken_flat.sol\":15554:15555  0 */\n  0x00\n    /* \"SlushToken_flat.sol\":15558:15565  account */\n  dup4\n    /* \"SlushToken_flat.sol\":15567:15573  amount */\n  dup4\n    /* \"SlushToken_flat.sol\":15526:15545  _afterTokenTransfer */\n  shl(0x20, tag_42)\n    /* \"SlushToken_flat.sol\":15526:15574  _afterTokenTransfer(address(0), account, amount) */\n  0x20\n  shr\n  jump\t// in\ntag_41:\n    /* \"SlushToken_flat.sol\":15192:15581  function _mint(address account, uint256 amount) internal virtual {... */\n  pop\n  pop\n  jump\t// out\n    /* \"SlushToken_flat.sol\":18572:18693  function _beforeTokenTransfer(... */\ntag_35:\n  pop\n  pop\n  pop\n  jump\t// out\n    /* \"SlushToken_flat.sol\":19281:19401  function _afterTokenTransfer(... */\ntag_42:\n  pop\n  pop\n  pop\n  jump\t// out\n    /* \"SlushToken_flat.sol\":19458:19892  contract SlushToken is ERC20, Ownable {... */\ntag_13:\n  dup3\n  dup1\n  sload\n  tag_45\n  swap1\n  tag_46\n  jump\t// in\ntag_45:\n  swap1\n  0x00\n  mstore\n  keccak256(0x00, 0x20)\n  swap1\n  0x1f\n  add\n  0x20\n  swap1\n  div\n  dup2\n  add\n  swap3\n  dup3\n  tag_48\n  jumpi\n  0x00\n  dup6\n  sstore\n  jump(tag_47)\ntag_48:\n  dup3\n  0x1f\n  lt\n  tag_49\n  jumpi\n  dup1\n  mload\n  not(0xff)\n  and\n  dup4\n  dup1\n  add\n  or\n  dup6\n  sstore\n  jump(tag_47)\ntag_49:\n  dup3\n  dup1\n  add\n  0x01\n  add\n  dup6\n  sstore\n  dup3\n  iszero\n  tag_47\n  jumpi\n  swap2\n  dup3\n  add\ntag_50:\n  dup3\n  dup2\n  gt\n  iszero\n  tag_51\n  jumpi\n  dup3\n  mload\n  dup3\n  sstore\n  swap2\n  0x20\n  add\n  swap2\n  swap1\n  0x01\n  add\n  swap1\n  jump(tag_50)\ntag_51:\ntag_47:\n  pop\n  swap1\n  pop\n  tag_52\n  swap2\n  swap1\n  tag_53\n  jump\t// in\ntag_52:\n  pop\n  swap1\n  jump\t// out\ntag_53:\ntag_54:\n  dup1\n  dup3\n  gt\n  iszero\n  tag_55\n  jumpi\n  0x00\n  dup2\n  0x00\n  swap1\n  sstore\n  pop\n  0x01\n  add\n  jump(tag_54)\ntag_55:\n  pop\n  swap1\n  jump\t// out\n    /* \"#utility.yul\":7:187   */\ntag_56:\n    /* \"#utility.yul\":55:132   */\n  0x4e487b7100000000000000000000000000000000000000000000000000000000\n    /* \"#utility.yul\":52:53   */\n  0x00\n    /* \"#utility.yul\":45:133   */\n  mstore\n    /* \"#utility.yul\":152:156   */\n  0x11\n    /* \"#utility.yul\":149:150   */\n  0x04\n    /* \"#utility.yul\":142:157   */\n  mstore\n    /* \"#utility.yul\":176:180   */\n  0x24\n    /* \"#utility.yul\":173:174   */\n  0x00\n    /* \"#utility.yul\":166:181   */\n  revert\n    /* \"#utility.yul\":193:295   */\ntag_57:\n    /* \"#utility.yul\":235:243   */\n  0x00\n    /* \"#utility.yul\":282:287   */\n  dup2\n    /* \"#utility.yul\":279:280   */\n  0x01\n    /* \"#utility.yul\":275:288   */\n  shr\n    /* \"#utility.yul\":254:288   */\n  swap1\n  pop\n    /* \"#utility.yul\":193:295   */\n  swap2\n  swap1\n  pop\n  jump\t// out\n    /* \"#utility.yul\":301:1149   */\ntag_58:\n    /* \"#utility.yul\":362:367   */\n  0x00\n    /* \"#utility.yul\":369:373   */\n  dup1\n    /* \"#utility.yul\":393:399   */\n  dup3\n    /* \"#utility.yul\":384:399   */\n  swap2\n  pop\n    /* \"#utility.yul\":417:422   */\n  dup4\n    /* \"#utility.yul\":408:422   */\n  swap1\n  pop\n    /* \"#utility.yul\":431:1143   */\ntag_71:\n    /* \"#utility.yul\":452:453   */\n  0x01\n    /* \"#utility.yul\":442:450   */\n  dup6\n    /* \"#utility.yul\":439:454   */\n  gt\n    /* \"#utility.yul\":431:1143   */\n  iszero\n  tag_73\n  jumpi\n    /* \"#utility.yul\":547:551   */\n  dup1\n    /* \"#utility.yul\":542:545   */\n  dup7\n    /* \"#utility.yul\":538:552   */\n  div\n    /* \"#utility.yul\":532:536   */\n  dup2\n    /* \"#utility.yul\":529:553   */\n  gt\n    /* \"#utility.yul\":526:576   */\n  iszero\n  tag_74\n  jumpi\n    /* \"#utility.yul\":556:574   */\n  tag_75\n  tag_56\n  jump\t// in\ntag_75:\n    /* \"#utility.yul\":526:576   */\ntag_74:\n    /* \"#utility.yul\":606:607   */\n  0x01\n    /* \"#utility.yul\":596:604   */\n  dup6\n    /* \"#utility.yul\":592:608   */\n  and\n    /* \"#utility.yul\":589:1040   */\n  iszero\n  tag_76\n  jumpi\n    /* \"#utility.yul\":1021:1025   */\n  dup1\n    /* \"#utility.yul\":1014:1019   */\n  dup3\n    /* \"#utility.yul\":1010:1026   */\n  mul\n    /* \"#utility.yul\":1001:1026   */\n  swap2\n  pop\n    /* \"#utility.yul\":589:1040   */\ntag_76:\n    /* \"#utility.yul\":1071:1075   */\n  dup1\n    /* \"#utility.yul\":1065:1069   */\n  dup2\n    /* \"#utility.yul\":1061:1076   */\n  mul\n    /* \"#utility.yul\":1053:1076   */\n  swap1\n  pop\n    /* \"#utility.yul\":1101:1133   */\n  tag_77\n    /* \"#utility.yul\":1124:1132   */\n  dup6\n    /* \"#utility.yul\":1101:1133   */\n  tag_57\n  jump\t// in\ntag_77:\n    /* \"#utility.yul\":1089:1133   */\n  swap5\n  pop\n    /* \"#utility.yul\":431:1143   */\n  jump(tag_71)\ntag_73:\n    /* \"#utility.yul\":301:1149   */\n  swap5\n  pop\n  swap5\n  swap3\n  pop\n  pop\n  pop\n  jump\t// out\n    /* \"#utility.yul\":1155:2228   */\ntag_59:\n    /* \"#utility.yul\":1209:1214   */\n  0x00\n    /* \"#utility.yul\":1400:1408   */\n  dup3\n    /* \"#utility.yul\":1390:1430   */\n  tag_79\n  jumpi\n    /* \"#utility.yul\":1421:1422   */\n  0x01\n    /* \"#utility.yul\":1412:1422   */\n  swap1\n  pop\n    /* \"#utility.yul\":1423:1428   */\n  jump(tag_78)\n    /* \"#utility.yul\":1390:1430   */\ntag_79:\n    /* \"#utility.yul\":1449:1453   */\n  dup2\n    /* \"#utility.yul\":1439:1475   */\n  tag_80\n  jumpi\n    /* \"#utility.yul\":1466:1467   */\n  0x00\n    /* \"#utility.yul\":1457:1467   */\n  swap1\n  pop\n    /* \"#utility.yul\":1468:1473   */\n  jump(tag_78)\n    /* \"#utility.yul\":1439:1475   */\ntag_80:\n    /* \"#utility.yul\":1535:1539   */\n  dup2\n    /* \"#utility.yul\":1583:1584   */\n  0x01\n    /* \"#utility.yul\":1578:1605   */\n  dup2\n  eq\n  tag_82\n  jumpi\n    /* \"#utility.yul\":1619:1620   */\n  0x02\n    /* \"#utility.yul\":1614:1805   */\n  dup2\n  eq\n  tag_83\n  jumpi\n    /* \"#utility.yul\":1528:1805   */\n  jump(tag_81)\n    /* \"#utility.yul\":1578:1605   */\ntag_82:\n    /* \"#utility.yul\":1596:1597   */\n  0x01\n    /* \"#utility.yul\":1587:1597   */\n  swap2\n  pop\n    /* \"#utility.yul\":1598:1603   */\n  pop\n  jump(tag_78)\n    /* \"#utility.yul\":1614:1805   */\ntag_83:\n    /* \"#utility.yul\":1659:1662   */\n  0xff\n    /* \"#utility.yul\":1649:1657   */\n  dup5\n    /* \"#utility.yul\":1646:1663   */\n  gt\n    /* \"#utility.yul\":1643:1686   */\n  iszero\n  tag_84\n  jumpi\n    /* \"#utility.yul\":1666:1684   */\n  tag_85\n  tag_56\n  jump\t// in\ntag_85:\n    /* \"#utility.yul\":1643:1686   */\ntag_84:\n    /* \"#utility.yul\":1715:1723   */\n  dup4\n    /* \"#utility.yul\":1712:1713   */\n  0x02\n    /* \"#utility.yul\":1708:1724   */\n  exp\n    /* \"#utility.yul\":1699:1724   */\n  swap2\n  pop\n    /* \"#utility.yul\":1750:1753   */\n  dup5\n    /* \"#utility.yul\":1743:1748   */\n  dup3\n    /* \"#utility.yul\":1740:1754   */\n  gt\n    /* \"#utility.yul\":1737:1777   */\n  iszero\n  tag_86\n  jumpi\n    /* \"#utility.yul\":1757:1775   */\n  tag_87\n  tag_56\n  jump\t// in\ntag_87:\n    /* \"#utility.yul\":1737:1777   */\ntag_86:\n    /* \"#utility.yul\":1790:1795   */\n  pop\n  jump(tag_78)\n    /* \"#utility.yul\":1528:1805   */\ntag_81:\n  pop\n    /* \"#utility.yul\":1914:1916   */\n  0x20\n    /* \"#utility.yul\":1904:1912   */\n  dup4\n    /* \"#utility.yul\":1901:1917   */\n  lt\n    /* \"#utility.yul\":1895:1898   */\n  0x0133\n    /* \"#utility.yul\":1889:1893   */\n  dup4\n    /* \"#utility.yul\":1886:1899   */\n  lt\n    /* \"#utility.yul\":1882:1918   */\n  and\n    /* \"#utility.yul\":1864:1866   */\n  0x4e\n    /* \"#utility.yul\":1854:1862   */\n  dup5\n    /* \"#utility.yul\":1851:1867   */\n  lt\n    /* \"#utility.yul\":1846:1848   */\n  0x0b\n    /* \"#utility.yul\":1840:1844   */\n  dup5\n    /* \"#utility.yul\":1837:1849   */\n  lt\n    /* \"#utility.yul\":1833:1868   */\n  and\n    /* \"#utility.yul\":1817:1928   */\n  or\n    /* \"#utility.yul\":1814:2060   */\n  iszero\n  tag_88\n  jumpi\n    /* \"#utility.yul\":1970:1978   */\n  dup3\n    /* \"#utility.yul\":1964:1968   */\n  dup3\n    /* \"#utility.yul\":1960:1979   */\n  exp\n    /* \"#utility.yul\":1951:1979   */\n  swap1\n  pop\n    /* \"#utility.yul\":2005:2008   */\n  dup4\n    /* \"#utility.yul\":1998:2003   */\n  dup2\n    /* \"#utility.yul\":1995:2009   */\n  gt\n    /* \"#utility.yul\":1992:2032   */\n  iszero\n  tag_89\n  jumpi\n    /* \"#utility.yul\":2012:2030   */\n  tag_90\n  tag_56\n  jump\t// in\ntag_90:\n    /* \"#utility.yul\":1992:2032   */\ntag_89:\n    /* \"#utility.yul\":2045:2050   */\n  jump(tag_78)\n    /* \"#utility.yul\":1814:2060   */\ntag_88:\n    /* \"#utility.yul\":2085:2127   */\n  tag_91\n    /* \"#utility.yul\":2123:2126   */\n  dup5\n    /* \"#utility.yul\":2113:2121   */\n  dup5\n    /* \"#utility.yul\":2107:2111   */\n  dup5\n    /* \"#utility.yul\":2104:2105   */\n  0x01\n    /* \"#utility.yul\":2085:2127   */\n  tag_58\n  jump\t// in\ntag_91:\n    /* \"#utility.yul\":2070:2127   */\n  swap3\n  pop\n  swap1\n  pop\n    /* \"#utility.yul\":2159:2163   */\n  dup2\n    /* \"#utility.yul\":2154:2157   */\n  dup5\n    /* \"#utility.yul\":2150:2164   */\n  div\n    /* \"#utility.yul\":2143:2148   */\n  dup2\n    /* \"#utility.yul\":2140:2165   */\n  gt\n    /* \"#utility.yul\":2137:2188   */\n  iszero\n  tag_92\n  jumpi\n    /* \"#utility.yul\":2168:2186   */\n  tag_93\n  tag_56\n  jump\t// in\ntag_93:\n    /* \"#utility.yul\":2137:2188   */\ntag_92:\n    /* \"#utility.yul\":2217:2221   */\n  dup2\n    /* \"#utility.yul\":2210:2215   */\n  dup2\n    /* \"#utility.yul\":2206:2222   */\n  mul\n    /* \"#utility.yul\":2197:2222   */\n  swap1\n  pop\n    /* \"#utility.yul\":1155:2228   */\ntag_78:\n  swap4\n  swap3\n  pop\n  pop\n  pop\n  jump\t// out\n    /* \"#utility.yul\":2234:2311   */\ntag_60:\n    /* \"#utility.yul\":2271:2278   */\n  0x00\n    /* \"#utility.yul\":2300:2305   */\n  dup2\n    /* \"#utility.yul\":2289:2305   */\n  swap1\n  pop\n    /* \"#utility.yul\":2234:2311   */\n  swap2\n  swap1\n  pop\n  jump\t// out\n    /* \"#utility.yul\":2317:2403   */\ntag_61:\n    /* \"#utility.yul\":2352:2359   */\n  0x00\n    /* \"#utility.yul\":2392:2396   */\n  0xff\n    /* \"#utility.yul\":2385:2390   */\n  dup3\n    /* \"#utility.yul\":2381:2397   */\n  and\n    /* \"#utility.yul\":2370:2397   */\n  swap1\n  pop\n    /* \"#utility.yul\":2317:2403   */\n  swap2\n  swap1\n  pop\n  jump\t// out\n    /* \"#utility.yul\":2409:2690   */\ntag_4:\n    /* \"#utility.yul\":2467:2472   */\n  0x00\n    /* \"#utility.yul\":2491:2514   */\n  tag_97\n    /* \"#utility.yul\":2509:2513   */\n  dup3\n    /* \"#utility.yul\":2491:2514   */\n  tag_60\n  jump\t// in\ntag_97:\n    /* \"#utility.yul\":2483:2514   */\n  swap2\n  pop\n    /* \"#utility.yul\":2535:2560   */\n  tag_98\n    /* \"#utility.yul\":2551:2559   */\n  dup4\n    /* \"#utility.yul\":2535:2560   */\n  tag_61\n  jump\t// in\ntag_98:\n    /* \"#utility.yul\":2523:2560   */\n  swap3\n  pop\n    /* \"#utility.yul\":2579:2683   */\n  tag_99\n    /* \"#utility.yul\":2616:2682   */\n  0xffffffffffffffffffffffffffffffffffffffffffffffffffffffffffffffff\n    /* \"#utility.yul\":2606:2614   */\n  dup5\n    /* \"#utility.yul\":2600:2604   */\n  dup5\n    /* \"#utility.yul\":2579:2683   */\n  tag_59\n  jump\t// in\ntag_99:\n    /* \"#utility.yul\":2570:2683   */\n  swap1\n  pop\n    /* \"#utility.yul\":2409:2690   */\n  swap3\n  swap2\n  pop\n  pop\n  jump\t// out\n    /* \"#utility.yul\":2696:3044   */\ntag_6:\n    /* \"#utility.yul\":2736:2743   */\n  0x00\n    /* \"#utility.yul\":2759:2779   */\n  tag_101\n    /* \"#utility.yul\":2777:2778   */\n  dup3\n    /* \"#utility.yul\":2759:2779   */\n  tag_60\n  jump\t// in\ntag_101:\n    /* \"#utility.yul\":2754:2779   */\n  swap2\n  pop\n    /* \"#utility.yul\":2793:2813   */\n  tag_102\n    /* \"#utility.yul\":2811:2812   */\n  dup4\n    /* \"#utility.yul\":2793:2813   */\n  tag_60\n  jump\t// in\ntag_102:\n    /* \"#utility.yul\":2788:2813   */\n  swap3\n  pop\n    /* \"#utility.yul\":2981:2982   */\n  dup2\n    /* \"#utility.yul\":2913:2979   */\n  0xffffffffffffffffffffffffffffffffffffffffffffffffffffffffffffffff\n    /* \"#utility.yul\":2909:2983   */\n  div\n    /* \"#utility.yul\":2906:2907   */\n  dup4\n    /* \"#utility.yul\":2903:2984   */\n  gt\n    /* \"#utility.yul\":2898:2899   */\n  dup3\n    /* \"#utility.yul\":2891:2900   */\n  iszero\n    /* \"#utility.yul\":2884:2901   */\n  iszero\n    /* \"#utility.yul\":2880:2985   */\n  and\n    /* \"#utility.yul\":2877:3008   */\n  iszero\n  tag_103\n  jumpi\n    /* \"#utility.yul\":2988:3006   */\n  tag_104\n  tag_56\n  jump\t// in\ntag_104:\n    /* \"#utility.yul\":2877:3008   */\ntag_103:\n    /* \"#utility.yul\":3036:3037   */\n  dup3\n    /* \"#utility.yul\":3033:3034   */\n  dup3\n    /* \"#utility.yul\":3029:3038   */\n  mul\n    /* \"#utility.yul\":3018:3038   */\n  swap1\n  pop\n    /* \"#utility.yul\":2696:3044   */\n  swap3\n  swap2\n  pop\n  pop\n  jump\t// out\n    /* \"#utility.yul\":3050:3219   */\ntag_62:\n    /* \"#utility.yul\":3134:3145   */\n  0x00\n    /* \"#utility.yul\":3168:3174   */\n  dup3\n    /* \"#utility.yul\":3163:3166   */\n  dup3\n    /* \"#utility.yul\":3156:3175   */\n  mstore\n    /* \"#utility.yul\":3208:3212   */\n  0x20\n    /* \"#utility.yul\":3203:3206   */\n  dup3\n    /* \"#utility.yul\":3199:3213   */\n  add\n    /* \"#utility.yul\":3184:3213   */\n  swap1\n  pop\n    /* \"#utility.yul\":3050:3219   */\n  swap3\n  swap2\n  pop\n  pop\n  jump\t// out\n    /* \"#utility.yul\":3225:3406   */\ntag_63:\n    /* \"#utility.yul\":3365:3398   */\n  0x45524332303a206d696e7420746f20746865207a65726f206164647265737300\n    /* \"#utility.yul\":3361:3362   */\n  0x00\n    /* \"#utility.yul\":3353:3359   */\n  dup3\n    /* \"#utility.yul\":3349:3363   */\n  add\n    /* \"#utility.yul\":3342:3399   */\n  mstore\n    /* \"#utility.yul\":3225:3406   */\n  pop\n  jump\t// out\n    /* \"#utility.yul\":3412:3778   */\ntag_64:\n    /* \"#utility.yul\":3554:3557   */\n  0x00\n    /* \"#utility.yul\":3575:3642   */\n  tag_108\n    /* \"#utility.yul\":3639:3641   */\n  0x1f\n    /* \"#utility.yul\":3634:3637   */\n  dup4\n    /* \"#utility.yul\":3575:3642   */\n  tag_62\n  jump\t// in\ntag_108:\n    /* \"#utility.yul\":3568:3642   */\n  swap2\n  pop\n    /* \"#utility.yul\":3651:3744   */\n  tag_109\n    /* \"#utility.yul\":3740:3743   */\n  dup3\n    /* \"#utility.yul\":3651:3744   */\n  tag_63\n  jump\t// in\ntag_109:\n    /* \"#utility.yul\":3769:3771   */\n  0x20\n    /* \"#utility.yul\":3764:3767   */\n  dup3\n    /* \"#utility.yul\":3760:3772   */\n  add\n    /* \"#utility.yul\":3753:3772   */\n  swap1\n  pop\n    /* \"#utility.yul\":3412:3778   */\n  swap2\n  swap1\n  pop\n  jump\t// out\n    /* \"#utility.yul\":3784:4203   */\ntag_33:\n    /* \"#utility.yul\":3950:3954   */\n  0x00\n    /* \"#utility.yul\":3988:3990   */\n  0x20\n    /* \"#utility.yul\":3977:3986   */\n  dup3\n    /* \"#utility.yul\":3973:3991   */\n  add\n    /* \"#utility.yul\":3965:3991   */\n  swap1\n  pop\n    /* \"#utility.yul\":4037:4046   */\n  dup2\n    /* \"#utility.yul\":4031:4035   */\n  dup2\n    /* \"#utility.yul\":4027:4047   */\n  sub\n    /* \"#utility.yul\":4023:4024   */\n  0x00\n    /* \"#utility.yul\":4012:4021   */\n  dup4\n    /* \"#utility.yul\":4008:4025   */\n  add\n    /* \"#utility.yul\":4001:4048   */\n  mstore\n    /* \"#utility.yul\":4065:4196   */\n  tag_111\n    /* \"#utility.yul\":4191:4195   */\n  dup2\n    /* \"#utility.yul\":4065:4196   */\n  tag_64\n  jump\t// in\ntag_111:\n    /* \"#utility.yul\":4057:4196   */\n  swap1\n  pop\n    /* \"#utility.yul\":3784:4203   */\n  swap2\n  swap1\n  pop\n  jump\t// out\n    /* \"#utility.yul\":4209:4514   */\ntag_37:\n    /* \"#utility.yul\":4249:4252   */\n  0x00\n    /* \"#utility.yul\":4268:4288   */\n  tag_113\n    /* \"#utility.yul\":4286:4287   */\n  dup3\n    /* \"#utility.yul\":4268:4288   */\n  tag_60\n  jump\t// in\ntag_113:\n    /* \"#utility.yul\":4263:4288   */\n  swap2\n  pop\n    /* \"#utility.yul\":4302:4322   */\n  tag_114\n    /* \"#utility.yul\":4320:4321   */\n  dup4\n    /* \"#utility.yul\":4302:4322   */\n  tag_60\n  jump\t// in\ntag_114:\n    /* \"#utility.yul\":4297:4322   */\n  swap3\n  pop\n    /* \"#utility.yul\":4456:4457   */\n  dup3\n    /* \"#utility.yul\":4388:4454   */\n  0xffffffffffffffffffffffffffffffffffffffffffffffffffffffffffffffff\n    /* \"#utility.yul\":4384:4458   */\n  sub\n    /* \"#utility.yul\":4381:4382   */\n  dup3\n    /* \"#utility.yul\":4378:4459   */\n  gt\n    /* \"#utility.yul\":4375:4482   */\n  iszero\n  tag_115\n  jumpi\n    /* \"#utility.yul\":4462:4480   */\n  tag_116\n  tag_56\n  jump\t// in\ntag_116:\n    /* \"#utility.yul\":4375:4482   */\ntag_115:\n    /* \"#utility.yul\":4506:4507   */\n  dup3\n    /* \"#utility.yul\":4503:4504   */\n  dup3\n    /* \"#utility.yul\":4499:4508   */\n  add\n    /* \"#utility.yul\":4492:4508   */\n  swap1\n  pop\n    /* \"#utility.yul\":4209:4514   */\n  swap3\n  swap2\n  pop\n  pop\n  jump\t// out\n    /* \"#utility.yul\":4520:4638   */\ntag_65:\n    /* \"#utility.yul\":4607:4631   */\n  tag_118\n    /* \"#utility.yul\":4625:4630   */\n  dup2\n    /* \"#utility.yul\":4607:4631   */\n  tag_60\n  jump\t// in\ntag_118:\n    /* \"#utility.yul\":4602:4605   */\n  dup3\n    /* \"#utility.yul\":4595:4632   */\n  mstore\n    /* \"#utility.yul\":4520:4638   */\n  pop\n  pop\n  jump\t// out\n    /* \"#utility.yul\":4644:4866   */\ntag_40:\n    /* \"#utility.yul\":4737:4741   */\n  0x00\n    /* \"#utility.yul\":4775:4777   */\n  0x20\n    /* \"#utility.yul\":4764:4773   */\n  dup3\n    /* \"#utility.yul\":4760:4778   */\n  add\n    /* \"#utility.yul\":4752:4778   */\n  swap1\n  pop\n    /* \"#utility.yul\":4788:4859   */\n  tag_120\n    /* \"#utility.yul\":4856:4857   */\n  0x00\n    /* \"#utility.yul\":4845:4854   */\n  dup4\n    /* \"#utility.yul\":4841:4858   */\n  add\n    /* \"#utility.yul\":4832:4838   */\n  dup5\n    /* \"#utility.yul\":4788:4859   */\n  tag_65\n  jump\t// in\ntag_120:\n    /* \"#utility.yul\":4644:4866   */\n  swap3\n  swap2\n  pop\n  pop\n  jump\t// out\n    /* \"#utility.yul\":4872:5052   */\ntag_66:\n    /* \"#utility.yul\":4920:4997   */\n  0x4e487b7100000000000000000000000000000000000000000000000000000000\n    /* \"#utility.yul\":4917:4918   */\n  0x00\n    /* \"#utility.yul\":4910:4998   */\n  mstore\n    /* \"#utility.yul\":5017:5021   */\n  0x22\n    /* \"#utility.yul\":5014:5015   */\n  0x04\n    /* \"#utility.yul\":5007:5022   */\n  mstore\n    /* \"#utility.yul\":5041:5045   */\n  0x24\n    /* \"#utility.yul\":5038:5039   */\n  0x00\n    /* \"#utility.yul\":5031:5046   */\n  revert\n    /* \"#utility.yul\":5058:5378   */\ntag_46:\n    /* \"#utility.yul\":5102:5108   */\n  0x00\n    /* \"#utility.yul\":5139:5140   */\n  0x02\n    /* \"#utility.yul\":5133:5137   */\n  dup3\n    /* \"#utility.yul\":5129:5141   */\n  div\n    /* \"#utility.yul\":5119:5141   */\n  swap1\n  pop\n    /* \"#utility.yul\":5186:5187   */\n  0x01\n    /* \"#utility.yul\":5180:5184   */\n  dup3\n    /* \"#utility.yul\":5176:5188   */\n  and\n    /* \"#utility.yul\":5207:5225   */\n  dup1\n    /* \"#utility.yul\":5197:5278   */\n  tag_123\n  jumpi\n    /* \"#utility.yul\":5263:5267   */\n  0x7f\n    /* \"#utility.yul\":5255:5261   */\n  dup3\n    /* \"#utility.yul\":5251:5268   */\n  and\n    /* \"#utility.yul\":5241:5268   */\n  swap2\n  pop\n    /* \"#utility.yul\":5197:5278   */\ntag_123:\n    /* \"#utility.yul\":5325:5327   */\n  0x20\n    /* \"#utility.yul\":5317:5323   */\n  dup3\n    /* \"#utility.yul\":5314:5328   */\n  lt\n    /* \"#utility.yul\":5294:5312   */\n  dup2\n    /* \"#utility.yul\":5291:5329   */\n  sub\n    /* \"#utility.yul\":5288:5372   */\n  tag_124\n  jumpi\n    /* \"#utility.yul\":5344:5362   */\n  tag_125\n  tag_66\n  jump\t// in\ntag_125:\n    /* \"#utility.yul\":5288:5372   */\ntag_124:\n    /* \"#utility.yul\":5109:5378   */\n  pop\n    /* \"#utility.yul\":5058:5378   */\n  swap2\n  swap1\n  pop\n  jump\t// out\n    /* \"SlushToken_flat.sol\":19458:19892  contract SlushToken is ERC20, Ownable {... */\ntag_26:\n  dataSize(sub_0)\n  dup1\n  dataOffset(sub_0)\n  0x00\n  codecopy\n  0x00\n  return\nstop\n\nsub_0: assembly {\n        /* \"SlushToken_flat.sol\":19458:19892  contract SlushToken is ERC20, Ownable {... */\n      mstore(0x40, 0x80)\n      jumpi(tag_1, lt(calldatasize, 0x04))\n      shr(0xe0, calldataload(0x00))\n      dup1\n      0x70a08231\n      gt\n      tag_19\n      jumpi\n      dup1\n      0xa457c2d7\n      gt\n      tag_20\n      jumpi\n      dup1\n      0xa457c2d7\n      eq\n      tag_15\n      jumpi\n      dup1\n      0xa9059cbb\n      eq\n      tag_16\n      jumpi\n      dup1\n      0xdd62ed3e\n      eq\n      tag_17\n      jumpi\n      dup1\n      0xf2fde38b\n      eq\n      tag_18\n      jumpi\n      jump(tag_2)\n    tag_20:\n      dup1\n      0x70a08231\n      eq\n      tag_11\n      jumpi\n      dup1\n      0x715018a6\n      eq\n      tag_12\n      jumpi\n      dup1\n      0x8da5cb5b\n      eq\n      tag_13\n      jumpi\n      dup1\n      0x95d89b41\n      eq\n      tag_14\n      jumpi\n      jump(tag_2)\n    tag_19:\n      dup1\n      0x2c4e722e\n      gt\n      tag_21\n      jumpi\n      dup1\n      0x2c4e722e\n      eq\n      tag_7\n      jumpi\n      dup1\n      0x313ce567\n      eq\n      tag_8\n      jumpi\n      dup1\n      0x39509351\n      eq\n      tag_9\n      jumpi\n      dup1\n      0x40c10f19\n      eq\n      tag_10\n      jumpi\n      jump(tag_2)\n    tag_21:\n      dup1\n      0x06fdde03\n      eq\n      tag_3\n      jumpi\n      dup1\n      0x095ea7b3\n      eq\n      tag_4\n      jumpi\n      dup1\n      0x18160ddd\n      eq\n      tag_5\n      jumpi\n      dup1\n      0x23b872dd\n      eq\n      tag_6\n      jumpi\n      jump(tag_2)\n    tag_1:\n      jumpi(tag_2, calldatasize)\n        /* \"SlushToken_flat.sol\":19852:19883  buyToken(msg.sender, msg.value) */\n      0x68f8fc10c7e0ab26c19e8620918d8d6964a0a10f0a9ac17833a58e5f9ed3e233\n        /* \"SlushToken_flat.sol\":19861:19871  msg.sender */\n      caller\n        /* \"SlushToken_flat.sol\":19873:19882  msg.value */\n      callvalue\n        /* \"SlushToken_flat.sol\":19852:19883  buyToken(msg.sender, msg.value) */\n      mload(0x40)\n      tag_24\n      swap3\n      swap2\n      swap1\n      tag_25\n      jump\t// in\n    tag_24:\n      mload(0x40)\n      dup1\n      swap2\n      sub\n      swap1\n      log1\n        /* \"SlushToken_flat.sol\":19458:19892  contract SlushToken is ERC20, Ownable {... */\n      stop\n    tag_2:\n      0x00\n      dup1\n      revert\n        /* \"SlushToken_flat.sol\":8933:9031  function name() public view virtual override returns (string memory) {... */\n    tag_3:\n      callvalue\n      dup1\n      iszero\n      tag_26\n      jumpi\n      0x00\n      dup1\n      revert\n    tag_26:\n      pop\n      tag_27\n      tag_28\n      jump\t// in\n    tag_27:\n      mload(0x40)\n      tag_29\n      swap2\n      swap1\n      tag_30\n      jump\t// in\n    tag_29:\n      mload(0x40)\n      dup1\n      swap2\n      sub\n      swap1\n      return\n        /* \"SlushToken_flat.sol\":11210:11407  function approve(address spender, uint256 amount) public virtual override returns (bool) {... */\n    tag_4:\n      callvalue\n      dup1\n      iszero\n      tag_31\n      jumpi\n      0x00\n      dup1\n      revert\n    tag_31:\n      pop\n      tag_32\n      0x04\n      dup1\n      calldatasize\n      sub\n      dup2\n      add\n      swap1\n      tag_33\n      swap2\n      swap1\n      tag_34\n      jump\t// in\n    tag_33:\n      tag_35\n      jump\t// in\n    tag_32:\n      mload(0x40)\n      tag_36\n      swap2\n      swap1\n      tag_37\n      jump\t// in\n    tag_36:\n      mload(0x40)\n      dup1\n      swap2\n      sub\n      swap1\n      return\n        /* \"SlushToken_flat.sol\":10021:10127  function totalSupply() public view virtual override returns (uint256) {... */\n    tag_5:\n      callvalue\n      dup1\n      iszero\n      tag_38\n      jumpi\n      0x00\n      dup1\n      revert\n    tag_38:\n      pop\n      tag_39\n      tag_40\n      jump\t// in\n    tag_39:\n      mload(0x40)\n      tag_41\n      swap2\n      swap1\n      tag_42\n      jump\t// in\n    tag_41:\n      mload(0x40)\n      dup1\n      swap2\n      sub\n      swap1\n      return\n        /* \"SlushToken_flat.sol\":11969:12255  function transferFrom(... */\n    tag_6:\n      callvalue\n      dup1\n      iszero\n      tag_43\n      jumpi\n      0x00\n      dup1\n      revert\n    tag_43:\n      pop\n      tag_44\n      0x04\n      dup1\n      calldatasize\n      sub\n      dup2\n      add\n      swap1\n      tag_45\n      swap2\n      swap1\n      tag_46\n      jump\t// in\n    tag_45:\n      tag_47\n      jump\t// in\n    tag_44:\n      mload(0x40)\n      tag_48\n      swap2\n      swap1\n      tag_37\n      jump\t// in\n    tag_48:\n      mload(0x40)\n      dup1\n      swap2\n      sub\n      swap1\n      return\n        /* \"SlushToken_flat.sol\":19502:19547  uint256 public rate = 1000 * 10 ** decimals() */\n    tag_7:\n      callvalue\n      dup1\n      iszero\n      tag_49\n      jumpi\n      0x00\n      dup1\n      revert\n    tag_49:\n      pop\n      tag_50\n      tag_51\n      jump\t// in\n    tag_50:\n      mload(0x40)\n      tag_52\n      swap2\n      swap1\n      tag_42\n      jump\t// in\n    tag_52:\n      mload(0x40)\n      dup1\n      swap2\n      sub\n      swap1\n      return\n        /* \"SlushToken_flat.sol\":9870:9961  function decimals() public view virtual override returns (uint8) {... */\n    tag_8:\n      callvalue\n      dup1\n      iszero\n      tag_53\n      jumpi\n      0x00\n      dup1\n      revert\n    tag_53:\n      pop\n      tag_54\n      tag_55\n      jump\t// in\n    tag_54:\n      mload(0x40)\n      tag_56\n      swap2\n      swap1\n      tag_57\n      jump\t// in\n    tag_56:\n      mload(0x40)\n      dup1\n      swap2\n      sub\n      swap1\n      return\n        /* \"SlushToken_flat.sol\":12650:12886  function increaseAllowance(address spender, uint256 addedValue) public virtual returns (bool) {... */\n    tag_9:\n      callvalue\n      dup1\n      iszero\n      tag_58\n      jumpi\n      0x00\n      dup1\n      revert\n    tag_58:\n      pop\n      tag_59\n      0x04\n      dup1\n      calldatasize\n      sub\n      dup2\n      add\n      swap1\n      tag_60\n      swap2\n      swap1\n      tag_34\n      jump\t// in\n    tag_60:\n      tag_61\n      jump\t// in\n    tag_59:\n      mload(0x40)\n      tag_62\n      swap2\n      swap1\n      tag_37\n      jump\t// in\n    tag_62:\n      mload(0x40)\n      dup1\n      swap2\n      sub\n      swap1\n      return\n        /* \"SlushToken_flat.sol\":19663:19756  function mint(address to, uint256 amount) public onlyOwner {... */\n    tag_10:\n      callvalue\n      dup1\n      iszero\n      tag_63\n      jumpi\n      0x00\n      dup1\n      revert\n    tag_63:\n      pop\n      tag_64\n      0x04\n      dup1\n      calldatasize\n      sub\n      dup2\n      add\n      swap1\n      tag_65\n      swap2\n      swap1\n      tag_34\n      jump\t// in\n    tag_65:\n      tag_66\n      jump\t// in\n    tag_64:\n      stop\n        /* \"SlushToken_flat.sol\":10185:10310  function balanceOf(address account) public view virtual override returns (uint256) {... */\n    tag_11:\n      callvalue\n      dup1\n      iszero\n      tag_67\n      jumpi\n      0x00\n      dup1\n      revert\n    tag_67:\n      pop\n      tag_68\n      0x04\n      dup1\n      calldatasize\n      sub\n      dup2\n      add\n      swap1\n      tag_69\n      swap2\n      swap1\n      tag_70\n      jump\t// in\n    tag_69:\n      tag_71\n      jump\t// in\n    tag_68:\n      mload(0x40)\n      tag_72\n      swap2\n      swap1\n      tag_42\n      jump\t// in\n    tag_72:\n      mload(0x40)\n      dup1\n      swap2\n      sub\n      swap1\n      return\n        /* \"SlushToken_flat.sol\":2557:2658  function renounceOwnership() public virtual onlyOwner {... */\n    tag_12:\n      callvalue\n      dup1\n      iszero\n      tag_73\n      jumpi\n      0x00\n      dup1\n      revert\n    tag_73:\n      pop\n      tag_74\n      tag_75\n      jump\t// in\n    tag_74:\n      stop\n        /* \"SlushToken_flat.sol\":1925:2010  function owner() public view virtual returns (address) {... */\n    tag_13:\n      callvalue\n      dup1\n      iszero\n      tag_76\n      jumpi\n      0x00\n      dup1\n      revert\n    tag_76:\n      pop\n      tag_77\n      tag_78\n      jump\t// in\n    tag_77:\n      mload(0x40)\n      tag_79\n      swap2\n      swap1\n      tag_80\n      jump\t// in\n    tag_79:\n      mload(0x40)\n      dup1\n      swap2\n      sub\n      swap1\n      return\n        /* \"SlushToken_flat.sol\":9144:9246  function symbol() public view virtual override returns (string memory) {... */\n    tag_14:\n      callvalue\n      dup1\n      iszero\n      tag_81\n      jumpi\n      0x00\n      dup1\n      revert\n    tag_81:\n      pop\n      tag_82\n      tag_83\n      jump\t// in\n    tag_82:\n      mload(0x40)\n      tag_84\n      swap2\n      swap1\n      tag_30\n      jump\t// in\n    tag_84:\n      mload(0x40)\n      dup1\n      swap2\n      sub\n      swap1\n      return\n        /* \"SlushToken_flat.sol\":13373:13802  function decreaseAllowance(address spender, uint256 subtractedValue) public virtual returns (bool) {... */\n    tag_15:\n      callvalue\n      dup1\n      iszero\n      tag_85\n      jumpi\n      0x00\n      dup1\n      revert\n    tag_85:\n      pop\n      tag_86\n      0x04\n      dup1\n      calldatasize\n      sub\n      dup2\n      add\n      swap1\n      tag_87\n      swap2\n      swap1\n      tag_34\n      jump\t// in\n    tag_87:\n      tag_88\n      jump\t// in\n    tag_86:\n      mload(0x40)\n      tag_89\n      swap2\n      swap1\n      tag_37\n      jump\t// in\n    tag_89:\n      mload(0x40)\n      dup1\n      swap2\n      sub\n      swap1\n      return\n        /* \"SlushToken_flat.sol\":10506:10695  function transfer(address to, uint256 amount) public virtual override returns (bool) {... */\n    tag_16:\n      callvalue\n      dup1\n      iszero\n      tag_90\n      jumpi\n      0x00\n      dup1\n      revert\n    tag_90:\n      pop\n      tag_91\n      0x04\n      dup1\n      calldatasize\n      sub\n      dup2\n      add\n      swap1\n      tag_92\n      swap2\n      swap1\n      tag_34\n      jump\t// in\n    tag_92:\n      tag_93\n      jump\t// in\n    tag_91:\n      mload(0x40)\n      tag_94\n      swap2\n      swap1\n      tag_37\n      jump\t// in\n    tag_94:\n      mload(0x40)\n      dup1\n      swap2\n      sub\n      swap1\n      return\n        /* \"SlushToken_flat.sol\":10753:10902  function allowance(address owner, address spender) public view virtual override returns (uint256) {... */\n    tag_17:\n      callvalue\n      dup1\n      iszero\n      tag_95\n      jumpi\n      0x00\n      dup1\n      revert\n    tag_95:\n      pop\n      tag_96\n      0x04\n      dup1\n      calldatasize\n      sub\n      dup2\n      add\n      swap1\n      tag_97\n      swap2\n      swap1\n      tag_98\n      jump\t// in\n    tag_97:\n      tag_99\n      jump\t// in\n    tag_96:\n      mload(0x40)\n      tag_100\n      swap2\n      swap1\n      tag_42\n      jump\t// in\n    tag_100:\n      mload(0x40)\n      dup1\n      swap2\n      sub\n      swap1\n      return\n        /* \"SlushToken_flat.sol\":2807:3005  function transferOwnership(address newOwner) public virtual onlyOwner {... */\n    tag_18:\n      callvalue\n      dup1\n      iszero\n      tag_101\n      jumpi\n      0x00\n      dup1\n      revert\n    tag_101:\n      pop\n      tag_102\n      0x04\n      dup1\n      calldatasize\n      sub\n      dup2\n      add\n      swap1\n      tag_103\n      swap2\n      swap1\n      tag_70\n      jump\t// in\n    tag_103:\n      tag_104\n      jump\t// in\n    tag_102:\n      stop\n        /* \"SlushToken_flat.sol\":8933:9031  function name() public view virtual override returns (string memory) {... */\n    tag_28:\n        /* \"SlushToken_flat.sol\":8987:9000  string memory */\n      0x60\n        /* \"SlushToken_flat.sol\":9019:9024  _name */\n      0x03\n        /* \"SlushToken_flat.sol\":9012:9024  return _name */\n      dup1\n      sload\n      tag_106\n      swap1\n      tag_107\n      jump\t// in\n    tag_106:\n      dup1\n      0x1f\n      add\n      0x20\n      dup1\n      swap2\n      div\n      mul\n      0x20\n      add\n      mload(0x40)\n      swap1\n      dup2\n      add\n      0x40\n      mstore\n      dup1\n      swap3\n      swap2\n      swap1\n      dup2\n      dup2\n      mstore\n      0x20\n      add\n      dup3\n      dup1\n      sload\n      tag_108\n      swap1\n      tag_107\n      jump\t// in\n    tag_108:\n      dup1\n      iszero\n      tag_109\n      jumpi\n      dup1\n      0x1f\n      lt\n      tag_110\n      jumpi\n      0x0100\n      dup1\n      dup4\n      sload\n      div\n      mul\n      dup4\n      mstore\n      swap2\n      0x20\n      add\n      swap2\n      jump(tag_109)\n    tag_110:\n      dup3\n      add\n      swap2\n      swap1\n      0x00\n      mstore\n      keccak256(0x00, 0x20)\n      swap1\n    tag_111:\n      dup2\n      sload\n      dup2\n      mstore\n      swap1\n      0x01\n      add\n      swap1\n      0x20\n      add\n      dup1\n      dup4\n      gt\n      tag_111\n      jumpi\n      dup3\n      swap1\n      sub\n      0x1f\n      and\n      dup3\n      add\n      swap2\n    tag_109:\n      pop\n      pop\n      pop\n      pop\n      pop\n      swap1\n      pop\n        /* \"SlushToken_flat.sol\":8933:9031  function name() public view virtual override returns (string memory) {... */\n      swap1\n      jump\t// out\n        /* \"SlushToken_flat.sol\":11210:11407  function approve(address spender, uint256 amount) public virtual override returns (bool) {... */\n    tag_35:\n        /* \"SlushToken_flat.sol\":11293:11297  bool */\n      0x00\n        /* \"SlushToken_flat.sol\":11309:11322  address owner */\n      dup1\n        /* \"SlushToken_flat.sol\":11325:11337  _msgSender() */\n      tag_113\n        /* \"SlushToken_flat.sol\":11325:11335  _msgSender */\n      tag_114\n        /* \"SlushToken_flat.sol\":11325:11337  _msgSender() */\n      jump\t// in\n    tag_113:\n        /* \"SlushToken_flat.sol\":11309:11337  address owner = _msgSender() */\n      swap1\n      pop\n        /* \"SlushToken_flat.sol\":11347:11379  _approve(owner, spender, amount) */\n      tag_115\n        /* \"SlushToken_flat.sol\":11356:11361  owner */\n      dup2\n        /* \"SlushToken_flat.sol\":11363:11370  spender */\n      dup6\n        /* \"SlushToken_flat.sol\":11372:11378  amount */\n      dup6\n        /* \"SlushToken_flat.sol\":11347:11355  _approve */\n      tag_116\n        /* \"SlushToken_flat.sol\":11347:11379  _approve(owner, spender, amount) */\n      jump\t// in\n    tag_115:\n        /* \"SlushToken_flat.sol\":11396:11400  true */\n      0x01\n        /* \"SlushToken_flat.sol\":11389:11400  return true */\n      swap2\n      pop\n      pop\n        /* \"SlushToken_flat.sol\":11210:11407  function approve(address spender, uint256 amount) public virtual override returns (bool) {... */\n      swap3\n      swap2\n      pop\n      pop\n      jump\t// out\n        /* \"SlushToken_flat.sol\":10021:10127  function totalSupply() public view virtual override returns (uint256) {... */\n    tag_40:\n        /* \"SlushToken_flat.sol\":10082:10089  uint256 */\n      0x00\n        /* \"SlushToken_flat.sol\":10108:10120  _totalSupply */\n      sload(0x02)\n        /* \"SlushToken_flat.sol\":10101:10120  return _totalSupply */\n      swap1\n      pop\n        /* \"SlushToken_flat.sol\":10021:10127  function totalSupply() public view virtual override returns (uint256) {... */\n      swap1\n      jump\t// out\n        /* \"SlushToken_flat.sol\":11969:12255  function transferFrom(... */\n    tag_47:\n        /* \"SlushToken_flat.sol\":12096:12100  bool */\n      0x00\n        /* \"SlushToken_flat.sol\":12112:12127  address spender */\n      dup1\n        /* \"SlushToken_flat.sol\":12130:12142  _msgSender() */\n      tag_119\n        /* \"SlushToken_flat.sol\":12130:12140  _msgSender */\n      tag_114\n        /* \"SlushToken_flat.sol\":12130:12142  _msgSender() */\n      jump\t// in\n    tag_119:\n        /* \"SlushToken_flat.sol\":12112:12142  address spender = _msgSender() */\n      swap1\n      pop\n        /* \"SlushToken_flat.sol\":12152:12190  _spendAllowance(from, spender, amount) */\n      tag_120\n        /* \"SlushToken_flat.sol\":12168:12172  from */\n      dup6\n        /* \"SlushToken_flat.sol\":12174:12181  spender */\n      dup3\n        /* \"SlushToken_flat.sol\":12183:12189  amount */\n      dup6\n        /* \"SlushToken_flat.sol\":12152:12167  _spendAllowance */\n      tag_121\n        /* \"SlushToken_flat.sol\":12152:12190  _spendAllowance(from, spender, amount) */\n      jump\t// in\n    tag_120:\n        /* \"SlushToken_flat.sol\":12200:12227  _transfer(from, to, amount) */\n      tag_122\n        /* \"SlushToken_flat.sol\":12210:12214  from */\n      dup6\n        /* \"SlushToken_flat.sol\":12216:12218  to */\n      dup6\n        /* \"SlushToken_flat.sol\":12220:12226  amount */\n      dup6\n        /* \"SlushToken_flat.sol\":12200:12209  _transfer */\n      tag_123\n        /* \"SlushToken_flat.sol\":12200:12227  _transfer(from, to, amount) */\n      jump\t// in\n    tag_122:\n        /* \"SlushToken_flat.sol\":12244:12248  true */\n      0x01\n        /* \"SlushToken_flat.sol\":12237:12248  return true */\n      swap2\n      pop\n      pop\n        /* \"SlushToken_flat.sol\":11969:12255  function transferFrom(... */\n      swap4\n      swap3\n      pop\n      pop\n      pop\n      jump\t// out\n        /* \"SlushToken_flat.sol\":19502:19547  uint256 public rate = 1000 * 10 ** decimals() */\n    tag_51:\n      sload(0x06)\n      dup2\n      jump\t// out\n        /* \"SlushToken_flat.sol\":9870:9961  function decimals() public view virtual override returns (uint8) {... */\n    tag_55:\n        /* \"SlushToken_flat.sol\":9928:9933  uint8 */\n      0x00\n        /* \"SlushToken_flat.sol\":9952:9954  18 */\n      0x12\n        /* \"SlushToken_flat.sol\":9945:9954  return 18 */\n      swap1\n      pop\n        /* \"SlushToken_flat.sol\":9870:9961  function decimals() public view virtual override returns (uint8) {... */\n      swap1\n      jump\t// out\n        /* \"SlushToken_flat.sol\":12650:12886  function increaseAllowance(address spender, uint256 addedValue) public virtual returns (bool) {... */\n    tag_61:\n        /* \"SlushToken_flat.sol\":12738:12742  bool */\n      0x00\n        /* \"SlushToken_flat.sol\":12754:12767  address owner */\n      dup1\n        /* \"SlushToken_flat.sol\":12770:12782  _msgSender() */\n      tag_126\n        /* \"SlushToken_flat.sol\":12770:12780  _msgSender */\n      tag_114\n        /* \"SlushToken_flat.sol\":12770:12782  _msgSender() */\n      jump\t// in\n    tag_126:\n        /* \"SlushToken_flat.sol\":12754:12782  address owner = _msgSender() */\n      swap1\n      pop\n        /* \"SlushToken_flat.sol\":12792:12858  _approve(owner, spender, _allowances[owner][spender] + addedValue) */\n      tag_127\n        /* \"SlushToken_flat.sol\":12801:12806  owner */\n      dup2\n        /* \"SlushToken_flat.sol\":12808:12815  spender */\n      dup6\n        /* \"SlushToken_flat.sol\":12847:12857  addedValue */\n      dup6\n        /* \"SlushToken_flat.sol\":12817:12828  _allowances */\n      0x01\n        /* \"SlushToken_flat.sol\":12817:12835  _allowances[owner] */\n      0x00\n        /* \"SlushToken_flat.sol\":12829:12834  owner */\n      dup7\n        /* \"SlushToken_flat.sol\":12817:12835  _allowances[owner] */\n      0xffffffffffffffffffffffffffffffffffffffff\n      and\n      0xffffffffffffffffffffffffffffffffffffffff\n      and\n      dup2\n      mstore\n      0x20\n      add\n      swap1\n      dup2\n      mstore\n      0x20\n      add\n      0x00\n      keccak256\n        /* \"SlushToken_flat.sol\":12817:12844  _allowances[owner][spender] */\n      0x00\n        /* \"SlushToken_flat.sol\":12836:12843  spender */\n      dup10\n        /* \"SlushToken_flat.sol\":12817:12844  _allowances[owner][spender] */\n      0xffffffffffffffffffffffffffffffffffffffff\n      and\n      0xffffffffffffffffffffffffffffffffffffffff\n      and\n      dup2\n      mstore\n      0x20\n      add\n      swap1\n      dup2\n      mstore\n      0x20\n      add\n      0x00\n      keccak256\n      sload\n        /* \"SlushToken_flat.sol\":12817:12857  _allowances[owner][spender] + addedValue */\n      tag_128\n      swap2\n      swap1\n      tag_129\n      jump\t// in\n    tag_128:\n        /* \"SlushToken_flat.sol\":12792:12800  _approve */\n      tag_116\n        /* \"SlushToken_flat.sol\":12792:12858  _approve(owner, spender, _allowances[owner][spender] + addedValue) */\n      jump\t// in\n    tag_127:\n        /* \"SlushToken_flat.sol\":12875:12879  true */\n      0x01\n        /* \"SlushToken_flat.sol\":12868:12879  return true */\n      swap2\n      pop\n      pop\n        /* \"SlushToken_flat.sol\":12650:12886  function increaseAllowance(address spender, uint256 addedValue) public virtual returns (bool) {... */\n      swap3\n      swap2\n      pop\n      pop\n      jump\t// out\n        /* \"SlushToken_flat.sol\":19663:19756  function mint(address to, uint256 amount) public onlyOwner {... */\n    tag_66:\n        /* \"SlushToken_flat.sol\":2148:2160  _msgSender() */\n      tag_131\n        /* \"SlushToken_flat.sol\":2148:2158  _msgSender */\n      tag_114\n        /* \"SlushToken_flat.sol\":2148:2160  _msgSender() */\n      jump\t// in\n    tag_131:\n        /* \"SlushToken_flat.sol\":2137:2160  owner() == _msgSender() */\n      0xffffffffffffffffffffffffffffffffffffffff\n      and\n        /* \"SlushToken_flat.sol\":2137:2144  owner() */\n      tag_132\n        /* \"SlushToken_flat.sol\":2137:2142  owner */\n      tag_78\n        /* \"SlushToken_flat.sol\":2137:2144  owner() */\n      jump\t// in\n    tag_132:\n        /* \"SlushToken_flat.sol\":2137:2160  owner() == _msgSender() */\n      0xffffffffffffffffffffffffffffffffffffffff\n      and\n      eq\n        /* \"SlushToken_flat.sol\":2129:2197  require(owner() == _msgSender(), \"Ownable: caller is not the owner\") */\n      tag_133\n      jumpi\n      mload(0x40)\n      0x08c379a000000000000000000000000000000000000000000000000000000000\n      dup2\n      mstore\n      0x04\n      add\n      tag_134\n      swap1\n      tag_135\n      jump\t// in\n    tag_134:\n      mload(0x40)\n      dup1\n      swap2\n      sub\n      swap1\n      revert\n    tag_133:\n        /* \"SlushToken_flat.sol\":19732:19749  _mint(to, amount) */\n      tag_137\n        /* \"SlushToken_flat.sol\":19738:19740  to */\n      dup3\n        /* \"SlushToken_flat.sol\":19742:19748  amount */\n      dup3\n        /* \"SlushToken_flat.sol\":19732:19737  _mint */\n      tag_138\n        /* \"SlushToken_flat.sol\":19732:19749  _mint(to, amount) */\n      jump\t// in\n    tag_137:\n        /* \"SlushToken_flat.sol\":19663:19756  function mint(address to, uint256 amount) public onlyOwner {... */\n      pop\n      pop\n      jump\t// out\n        /* \"SlushToken_flat.sol\":10185:10310  function balanceOf(address account) public view virtual override returns (uint256) {... */\n    tag_71:\n        /* \"SlushToken_flat.sol\":10259:10266  uint256 */\n      0x00\n        /* \"SlushToken_flat.sol\":10285:10294  _balances */\n      dup1\n        /* \"SlushToken_flat.sol\":10285:10303  _balances[account] */\n      0x00\n        /* \"SlushToken_flat.sol\":10295:10302  account */\n      dup4\n        /* \"SlushToken_flat.sol\":10285:10303  _balances[account] */\n      0xffffffffffffffffffffffffffffffffffffffff\n      and\n      0xffffffffffffffffffffffffffffffffffffffff\n      and\n      dup2\n      mstore\n      0x20\n      add\n      swap1\n      dup2\n      mstore\n      0x20\n      add\n      0x00\n      keccak256\n      sload\n        /* \"SlushToken_flat.sol\":10278:10303  return _balances[account] */\n      swap1\n      pop\n        /* \"SlushToken_flat.sol\":10185:10310  function balanceOf(address account) public view virtual override returns (uint256) {... */\n      swap2\n      swap1\n      pop\n      jump\t// out\n        /* \"SlushToken_flat.sol\":2557:2658  function renounceOwnership() public virtual onlyOwner {... */\n    tag_75:\n        /* \"SlushToken_flat.sol\":2148:2160  _msgSender() */\n      tag_141\n        /* \"SlushToken_flat.sol\":2148:2158  _msgSender */\n      tag_114\n        /* \"SlushToken_flat.sol\":2148:2160  _msgSender() */\n      jump\t// in\n    tag_141:\n        /* \"SlushToken_flat.sol\":2137:2160  owner() == _msgSender() */\n      0xffffffffffffffffffffffffffffffffffffffff\n      and\n        /* \"SlushToken_flat.sol\":2137:2144  owner() */\n      tag_142\n        /* \"SlushToken_flat.sol\":2137:2142  owner */\n      tag_78\n        /* \"SlushToken_flat.sol\":2137:2144  owner() */\n      jump\t// in\n    tag_142:\n        /* \"SlushToken_flat.sol\":2137:2160  owner() == _msgSender() */\n      0xffffffffffffffffffffffffffffffffffffffff\n      and\n      eq\n        /* \"SlushToken_flat.sol\":2129:2197  require(owner() == _msgSender(), \"Ownable: caller is not the owner\") */\n      tag_143\n      jumpi\n      mload(0x40)\n      0x08c379a000000000000000000000000000000000000000000000000000000000\n      dup2\n      mstore\n      0x04\n      add\n      tag_144\n      swap1\n      tag_135\n      jump\t// in\n    tag_144:\n      mload(0x40)\n      dup1\n      swap2\n      sub\n      swap1\n      revert\n    tag_143:\n        /* \"SlushToken_flat.sol\":2621:2651  _transferOwnership(address(0)) */\n      tag_146\n        /* \"SlushToken_flat.sol\":2648:2649  0 */\n      0x00\n        /* \"SlushToken_flat.sol\":2621:2639  _transferOwnership */\n      tag_147\n        /* \"SlushToken_flat.sol\":2621:2651  _transferOwnership(address(0)) */\n      jump\t// in\n    tag_146:\n        /* \"SlushToken_flat.sol\":2557:2658  function renounceOwnership() public virtual onlyOwner {... */\n      jump\t// out\n        /* \"SlushToken_flat.sol\":1925:2010  function owner() public view virtual returns (address) {... */\n    tag_78:\n        /* \"SlushToken_flat.sol\":1971:1978  address */\n      0x00\n        /* \"SlushToken_flat.sol\":1997:2003  _owner */\n      0x05\n      0x00\n      swap1\n      sload\n      swap1\n      0x0100\n      exp\n      swap1\n      div\n      0xffffffffffffffffffffffffffffffffffffffff\n      and\n        /* \"SlushToken_flat.sol\":1990:2003  return _owner */\n      swap1\n      pop\n        /* \"SlushToken_flat.sol\":1925:2010  function owner() public view virtual returns (address) {... */\n      swap1\n      jump\t// out\n        /* \"SlushToken_flat.sol\":9144:9246  function symbol() public view virtual override returns (string memory) {... */\n    tag_83:\n        /* \"SlushToken_flat.sol\":9200:9213  string memory */\n      0x60\n        /* \"SlushToken_flat.sol\":9232:9239  _symbol */\n      0x04\n        /* \"SlushToken_flat.sol\":9225:9239  return _symbol */\n      dup1\n      sload\n      tag_150\n      swap1\n      tag_107\n      jump\t// in\n    tag_150:\n      dup1\n      0x1f\n      add\n      0x20\n      dup1\n      swap2\n      div\n      mul\n      0x20\n      add\n      mload(0x40)\n      swap1\n      dup2\n      add\n      0x40\n      mstore\n      dup1\n      swap3\n      swap2\n      swap1\n      dup2\n      dup2\n      mstore\n      0x20\n      add\n      dup3\n      dup1\n      sload\n      tag_151\n      swap1\n      tag_107\n      jump\t// in\n    tag_151:\n      dup1\n      iszero\n      tag_152\n      jumpi\n      dup1\n      0x1f\n      lt\n      tag_153\n      jumpi\n      0x0100\n      dup1\n      dup4\n      sload\n      div\n      mul\n      dup4\n      mstore\n      swap2\n      0x20\n      add\n      swap2\n      jump(tag_152)\n    tag_153:\n      dup3\n      add\n      swap2\n      swap1\n      0x00\n      mstore\n      keccak256(0x00, 0x20)\n      swap1\n    tag_154:\n      dup2\n      sload\n      dup2\n      mstore\n      swap1\n      0x01\n      add\n      swap1\n      0x20\n      add\n      dup1\n      dup4\n      gt\n      tag_154\n      jumpi\n      dup3\n      swap1\n      sub\n      0x1f\n      and\n      dup3\n      add\n      swap2\n    tag_152:\n      pop\n      pop\n      pop\n      pop\n      pop\n      swap1\n      pop\n        /* \"SlushToken_flat.sol\":9144:9246  function symbol() public view virtual override returns (string memory) {... */\n      swap1\n      jump\t// out\n        /* \"SlushToken_flat.sol\":13373:13802  function decreaseAllowance(address spender, uint256 subtractedValue) public virtual returns (bool) {... */\n    tag_88:\n        /* \"SlushToken_flat.sol\":13466:13470  bool */\n      0x00\n        /* \"SlushToken_flat.sol\":13482:13495  address owner */\n      dup1\n        /* \"SlushToken_flat.sol\":13498:13510  _msgSender() */\n      tag_156\n        /* \"SlushToken_flat.sol\":13498:13508  _msgSender */\n      tag_114\n        /* \"SlushToken_flat.sol\":13498:13510  _msgSender() */\n      jump\t// in\n    tag_156:\n        /* \"SlushToken_flat.sol\":13482:13510  address owner = _msgSender() */\n      swap1\n      pop\n        /* \"SlushToken_flat.sol\":13520:13544  uint256 currentAllowance */\n      0x00\n        /* \"SlushToken_flat.sol\":13547:13558  _allowances */\n      0x01\n        /* \"SlushToken_flat.sol\":13547:13565  _allowances[owner] */\n      0x00\n        /* \"SlushToken_flat.sol\":13559:13564  owner */\n      dup4\n        /* \"SlushToken_flat.sol\":13547:13565  _allowances[owner] */\n      0xffffffffffffffffffffffffffffffffffffffff\n      and\n      0xffffffffffffffffffffffffffffffffffffffff\n      and\n      dup2\n      mstore\n      0x20\n      add\n      swap1\n      dup2\n      mstore\n      0x20\n      add\n      0x00\n      keccak256\n        /* \"SlushToken_flat.sol\":13547:13574  _allowances[owner][spender] */\n      0x00\n        /* \"SlushToken_flat.sol\":13566:13573  spender */\n      dup7\n        /* \"SlushToken_flat.sol\":13547:13574  _allowances[owner][spender] */\n      0xffffffffffffffffffffffffffffffffffffffff\n      and\n      0xffffffffffffffffffffffffffffffffffffffff\n      and\n      dup2\n      mstore\n      0x20\n      add\n      swap1\n      dup2\n      mstore\n      0x20\n      add\n      0x00\n      keccak256\n      sload\n        /* \"SlushToken_flat.sol\":13520:13574  uint256 currentAllowance = _allowances[owner][spender] */\n      swap1\n      pop\n        /* \"SlushToken_flat.sol\":13612:13627  subtractedValue */\n      dup4\n        /* \"SlushToken_flat.sol\":13592:13608  currentAllowance */\n      dup2\n        /* \"SlushToken_flat.sol\":13592:13627  currentAllowance >= subtractedValue */\n      lt\n      iszero\n        /* \"SlushToken_flat.sol\":13584:13669  require(currentAllowance >= subtractedValue, \"ERC20: decreased allowance below zero\") */\n      tag_157\n      jumpi\n      mload(0x40)\n      0x08c379a000000000000000000000000000000000000000000000000000000000\n      dup2\n      mstore\n      0x04\n      add\n      tag_158\n      swap1\n      tag_159\n      jump\t// in\n    tag_158:\n      mload(0x40)\n      dup1\n      swap2\n      sub\n      swap1\n      revert\n    tag_157:\n        /* \"SlushToken_flat.sol\":13703:13763  _approve(owner, spender, currentAllowance - subtractedValue) */\n      tag_160\n        /* \"SlushToken_flat.sol\":13712:13717  owner */\n      dup3\n        /* \"SlushToken_flat.sol\":13719:13726  spender */\n      dup7\n        /* \"SlushToken_flat.sol\":13747:13762  subtractedValue */\n      dup7\n        /* \"SlushToken_flat.sol\":13728:13744  currentAllowance */\n      dup5\n        /* \"SlushToken_flat.sol\":13728:13762  currentAllowance - subtractedValue */\n      sub\n        /* \"SlushToken_flat.sol\":13703:13711  _approve */\n      tag_116\n        /* \"SlushToken_flat.sol\":13703:13763  _approve(owner, spender, currentAllowance - subtractedValue) */\n      jump\t// in\n    tag_160:\n        /* \"SlushToken_flat.sol\":13791:13795  true */\n      0x01\n        /* \"SlushToken_flat.sol\":13784:13795  return true */\n      swap3\n      pop\n      pop\n      pop\n        /* \"SlushToken_flat.sol\":13373:13802  function decreaseAllowance(address spender, uint256 subtractedValue) public virtual returns (bool) {... */\n      swap3\n      swap2\n      pop\n      pop\n      jump\t// out\n        /* \"SlushToken_flat.sol\":10506:10695  function transfer(address to, uint256 amount) public virtual override returns (bool) {... */\n    tag_93:\n        /* \"SlushToken_flat.sol\":10585:10589  bool */\n      0x00\n        /* \"SlushToken_flat.sol\":10601:10614  address owner */\n      dup1\n        /* \"SlushToken_flat.sol\":10617:10629  _msgSender() */\n      tag_162\n        /* \"SlushToken_flat.sol\":10617:10627  _msgSender */\n      tag_114\n        /* \"SlushToken_flat.sol\":10617:10629  _msgSender() */\n      jump\t// in\n    tag_162:\n        /* \"SlushToken_flat.sol\":10601:10629  address owner = _msgSender() */\n      swap1\n      pop\n        /* \"SlushToken_flat.sol\":10639:10667  _transfer(owner, to, amount) */\n      tag_163\n        /* \"SlushToken_flat.sol\":10649:10654  owner */\n      dup2\n        /* \"SlushToken_flat.sol\":10656:10658  to */\n      dup6\n        /* \"SlushToken_flat.sol\":10660:10666  amount */\n      dup6\n        /* \"SlushToken_flat.sol\":10639:10648  _transfer */\n      tag_123\n        /* \"SlushToken_flat.sol\":10639:10667  _transfer(owner, to, amount) */\n      jump\t// in\n    tag_163:\n        /* \"SlushToken_flat.sol\":10684:10688  true */\n      0x01\n        /* \"SlushToken_flat.sol\":10677:10688  return true */\n      swap2\n      pop\n      pop\n        /* \"SlushToken_flat.sol\":10506:10695  function transfer(address to, uint256 amount) public virtual override returns (bool) {... */\n      swap3\n      swap2\n      pop\n      pop\n      jump\t// out\n        /* \"SlushToken_flat.sol\":10753:10902  function allowance(address owner, address spender) public view virtual override returns (uint256) {... */\n    tag_99:\n        /* \"SlushToken_flat.sol\":10842:10849  uint256 */\n      0x00\n        /* \"SlushToken_flat.sol\":10868:10879  _allowances */\n      0x01\n        /* \"SlushToken_flat.sol\":10868:10886  _allowances[owner] */\n      0x00\n        /* \"SlushToken_flat.sol\":10880:10885  owner */\n      dup5\n        /* \"SlushToken_flat.sol\":10868:10886  _allowances[owner] */\n      0xffffffffffffffffffffffffffffffffffffffff\n      and\n      0xffffffffffffffffffffffffffffffffffffffff\n      and\n      dup2\n      mstore\n      0x20\n      add\n      swap1\n      dup2\n      mstore\n      0x20\n      add\n      0x00\n      keccak256\n        /* \"SlushToken_flat.sol\":10868:10895  _allowances[owner][spender] */\n      0x00\n        /* \"SlushToken_flat.sol\":10887:10894  spender */\n      dup4\n        /* \"SlushToken_flat.sol\":10868:10895  _allowances[owner][spender] */\n      0xffffffffffffffffffffffffffffffffffffffff\n      and\n      0xffffffffffffffffffffffffffffffffffffffff\n      and\n      dup2\n      mstore\n      0x20\n      add\n      swap1\n      dup2\n      mstore\n      0x20\n      add\n      0x00\n      keccak256\n      sload\n        /* \"SlushToken_flat.sol\":10861:10895  return _allowances[owner][spender] */\n      swap1\n      pop\n        /* \"SlushToken_flat.sol\":10753:10902  function allowance(address owner, address spender) public view virtual override returns (uint256) {... */\n      swap3\n      swap2\n      pop\n      pop\n      jump\t// out\n        /* \"SlushToken_flat.sol\":2807:3005  function transferOwnership(address newOwner) public virtual onlyOwner {... */\n    tag_104:\n        /* \"SlushToken_flat.sol\":2148:2160  _msgSender() */\n      tag_166\n        /* \"SlushToken_flat.sol\":2148:2158  _msgSender */\n      tag_114\n        /* \"SlushToken_flat.sol\":2148:2160  _msgSender() */\n      jump\t// in\n    tag_166:\n        /* \"SlushToken_flat.sol\":2137:2160  owner() == _msgSender() */\n      0xffffffffffffffffffffffffffffffffffffffff\n      and\n        /* \"SlushToken_flat.sol\":2137:2144  owner() */\n      tag_167\n        /* \"SlushToken_flat.sol\":2137:2142  owner */\n      tag_78\n        /* \"SlushToken_flat.sol\":2137:2144  owner() */\n      jump\t// in\n    tag_167:\n        /* \"SlushToken_flat.sol\":2137:2160  owner() == _msgSender() */\n      0xffffffffffffffffffffffffffffffffffffffff\n      and\n      eq\n        /* \"SlushToken_flat.sol\":2129:2197  require(owner() == _msgSender(), \"Ownable: caller is not the owner\") */\n      tag_168\n      jumpi\n      mload(0x40)\n      0x08c379a000000000000000000000000000000000000000000000000000000000\n      dup2\n      mstore\n      0x04\n      add\n      tag_169\n      swap1\n      tag_135\n      jump\t// in\n    tag_169:\n      mload(0x40)\n      dup1\n      swap2\n      sub\n      swap1\n      revert\n    tag_168:\n        /* \"SlushToken_flat.sol\":2915:2916  0 */\n      0x00\n        /* \"SlushToken_flat.sol\":2895:2917  newOwner != address(0) */\n      0xffffffffffffffffffffffffffffffffffffffff\n      and\n        /* \"SlushToken_flat.sol\":2895:2903  newOwner */\n      dup2\n        /* \"SlushToken_flat.sol\":2895:2917  newOwner != address(0) */\n      0xffffffffffffffffffffffffffffffffffffffff\n      and\n      sub\n        /* \"SlushToken_flat.sol\":2887:2960  require(newOwner != address(0), \"Ownable: new owner is the zero address\") */\n      tag_171\n      jumpi\n      mload(0x40)\n      0x08c379a000000000000000000000000000000000000000000000000000000000\n      dup2\n      mstore\n      0x04\n      add\n      tag_172\n      swap1\n      tag_173\n      jump\t// in\n    tag_172:\n      mload(0x40)\n      dup1\n      swap2\n      sub\n      swap1\n      revert\n    tag_171:\n        /* \"SlushToken_flat.sol\":2970:2998  _transferOwnership(newOwner) */\n      tag_174\n        /* \"SlushToken_flat.sol\":2989:2997  newOwner */\n      dup2\n        /* \"SlushToken_flat.sol\":2970:2988  _transferOwnership */\n      tag_147\n        /* \"SlushToken_flat.sol\":2970:2998  _transferOwnership(newOwner) */\n      jump\t// in\n    tag_174:\n        /* \"SlushToken_flat.sol\":2807:3005  function transferOwnership(address newOwner) public virtual onlyOwner {... */\n      pop\n      jump\t// out\n        /* \"SlushToken_flat.sol\":693:789  function _msgSender() internal view virtual returns (address) {... */\n    tag_114:\n        /* \"SlushToken_flat.sol\":746:753  address */\n      0x00\n        /* \"SlushToken_flat.sol\":772:782  msg.sender */\n      caller\n        /* \"SlushToken_flat.sol\":765:782  return msg.sender */\n      swap1\n      pop\n        /* \"SlushToken_flat.sol\":693:789  function _msgSender() internal view virtual returns (address) {... */\n      swap1\n      jump\t// out\n        /* \"SlushToken_flat.sol\":16900:17270  function _approve(... */\n    tag_116:\n        /* \"SlushToken_flat.sol\":17048:17049  0 */\n      0x00\n        /* \"SlushToken_flat.sol\":17031:17050  owner != address(0) */\n      0xffffffffffffffffffffffffffffffffffffffff\n      and\n        /* \"SlushToken_flat.sol\":17031:17036  owner */\n      dup4\n        /* \"SlushToken_flat.sol\":17031:17050  owner != address(0) */\n      0xffffffffffffffffffffffffffffffffffffffff\n      and\n      sub\n        /* \"SlushToken_flat.sol\":17023:17091  require(owner != address(0), \"ERC20: approve from the zero address\") */\n      tag_177\n      jumpi\n      mload(0x40)\n      0x08c379a000000000000000000000000000000000000000000000000000000000\n      dup2\n      mstore\n      0x04\n      add\n      tag_178\n      swap1\n      tag_179\n      jump\t// in\n    tag_178:\n      mload(0x40)\n      dup1\n      swap2\n      sub\n      swap1\n      revert\n    tag_177:\n        /* \"SlushToken_flat.sol\":17128:17129  0 */\n      0x00\n        /* \"SlushToken_flat.sol\":17109:17130  spender != address(0) */\n      0xffffffffffffffffffffffffffffffffffffffff\n      and\n        /* \"SlushToken_flat.sol\":17109:17116  spender */\n      dup3\n        /* \"SlushToken_flat.sol\":17109:17130  spender != address(0) */\n      0xffffffffffffffffffffffffffffffffffffffff\n      and\n      sub\n        /* \"SlushToken_flat.sol\":17101:17169  require(spender != address(0), \"ERC20: approve to the zero address\") */\n      tag_180\n      jumpi\n      mload(0x40)\n      0x08c379a000000000000000000000000000000000000000000000000000000000\n      dup2\n      mstore\n      0x04\n      add\n      tag_181\n      swap1\n      tag_182\n      jump\t// in\n    tag_181:\n      mload(0x40)\n      dup1\n      swap2\n      sub\n      swap1\n      revert\n    tag_180:\n        /* \"SlushToken_flat.sol\":17210:17216  amount */\n      dup1\n        /* \"SlushToken_flat.sol\":17180:17191  _allowances */\n      0x01\n        /* \"SlushToken_flat.sol\":17180:17198  _allowances[owner] */\n      0x00\n        /* \"SlushToken_flat.sol\":17192:17197  owner */\n      dup6\n        /* \"SlushToken_flat.sol\":17180:17198  _allowances[owner] */\n      0xffffffffffffffffffffffffffffffffffffffff\n      and\n      0xffffffffffffffffffffffffffffffffffffffff\n      and\n      dup2\n      mstore\n      0x20\n      add\n      swap1\n      dup2\n      mstore\n      0x20\n      add\n      0x00\n      keccak256\n        /* \"SlushToken_flat.sol\":17180:17207  _allowances[owner][spender] */\n      0x00\n        /* \"SlushToken_flat.sol\":17199:17206  spender */\n      dup5\n        /* \"SlushToken_flat.sol\":17180:17207  _allowances[owner][spender] */\n      0xffffffffffffffffffffffffffffffffffffffff\n      and\n      0xffffffffffffffffffffffffffffffffffffffff\n      and\n      dup2\n      mstore\n      0x20\n      add\n      swap1\n      dup2\n      mstore\n      0x20\n      add\n      0x00\n      keccak256\n        /* \"SlushToken_flat.sol\":17180:17216  _allowances[owner][spender] = amount */\n      dup2\n      swap1\n      sstore\n      pop\n        /* \"SlushToken_flat.sol\":17247:17254  spender */\n      dup2\n        /* \"SlushToken_flat.sol\":17231:17263  Approval(owner, spender, amount) */\n      0xffffffffffffffffffffffffffffffffffffffff\n      and\n        /* \"SlushToken_flat.sol\":17240:17245  owner */\n      dup4\n        /* \"SlushToken_flat.sol\":17231:17263  Approval(owner, spender, amount) */\n      0xffffffffffffffffffffffffffffffffffffffff\n      and\n      0x8c5be1e5ebec7d5bd14f71427d1e84f3dd0314c0f7b2291e5b200ac8c7c3b925\n        /* \"SlushToken_flat.sol\":17256:17262  amount */\n      dup4\n        /* \"SlushToken_flat.sol\":17231:17263  Approval(owner, spender, amount) */\n      mload(0x40)\n      tag_183\n      swap2\n      swap1\n      tag_42\n      jump\t// in\n    tag_183:\n      mload(0x40)\n      dup1\n      swap2\n      sub\n      swap1\n      log3\n        /* \"SlushToken_flat.sol\":16900:17270  function _approve(... */\n      pop\n      pop\n      pop\n      jump\t// out\n        /* \"SlushToken_flat.sol\":17547:17988  function _spendAllowance(... */\n    tag_121:\n        /* \"SlushToken_flat.sol\":17677:17701  uint256 currentAllowance */\n      0x00\n        /* \"SlushToken_flat.sol\":17704:17729  allowance(owner, spender) */\n      tag_185\n        /* \"SlushToken_flat.sol\":17714:17719  owner */\n      dup5\n        /* \"SlushToken_flat.sol\":17721:17728  spender */\n      dup5\n        /* \"SlushToken_flat.sol\":17704:17713  allowance */\n      tag_99\n        /* \"SlushToken_flat.sol\":17704:17729  allowance(owner, spender) */\n      jump\t// in\n    tag_185:\n        /* \"SlushToken_flat.sol\":17677:17729  uint256 currentAllowance = allowance(owner, spender) */\n      swap1\n      pop\n        /* \"SlushToken_flat.sol\":17763:17780  type(uint256).max */\n      0xffffffffffffffffffffffffffffffffffffffffffffffffffffffffffffffff\n        /* \"SlushToken_flat.sol\":17743:17759  currentAllowance */\n      dup2\n        /* \"SlushToken_flat.sol\":17743:17780  currentAllowance != type(uint256).max */\n      eq\n        /* \"SlushToken_flat.sol\":17739:17982  if (currentAllowance != type(uint256).max) {... */\n      tag_186\n      jumpi\n        /* \"SlushToken_flat.sol\":17824:17830  amount */\n      dup2\n        /* \"SlushToken_flat.sol\":17804:17820  currentAllowance */\n      dup2\n        /* \"SlushToken_flat.sol\":17804:17830  currentAllowance >= amount */\n      lt\n      iszero\n        /* \"SlushToken_flat.sol\":17796:17864  require(currentAllowance >= amount, \"ERC20: insufficient allowance\") */\n      tag_187\n      jumpi\n      mload(0x40)\n      0x08c379a000000000000000000000000000000000000000000000000000000000\n      dup2\n      mstore\n      0x04\n      add\n      tag_188\n      swap1\n      tag_189\n      jump\t// in\n    tag_188:\n      mload(0x40)\n      dup1\n      swap2\n      sub\n      swap1\n      revert\n    tag_187:\n        /* \"SlushToken_flat.sol\":17906:17957  _approve(owner, spender, currentAllowance - amount) */\n      tag_190\n        /* \"SlushToken_flat.sol\":17915:17920  owner */\n      dup5\n        /* \"SlushToken_flat.sol\":17922:17929  spender */\n      dup5\n        /* \"SlushToken_flat.sol\":17950:17956  amount */\n      dup5\n        /* \"SlushToken_flat.sol\":17931:17947  currentAllowance */\n      dup5\n        /* \"SlushToken_flat.sol\":17931:17956  currentAllowance - amount */\n      sub\n        /* \"SlushToken_flat.sol\":17906:17914  _approve */\n      tag_116\n        /* \"SlushToken_flat.sol\":17906:17957  _approve(owner, spender, currentAllowance - amount) */\n      jump\t// in\n    tag_190:\n        /* \"SlushToken_flat.sol\":17739:17982  if (currentAllowance != type(uint256).max) {... */\n    tag_186:\n        /* \"SlushToken_flat.sol\":17667:17988  {... */\n      pop\n        /* \"SlushToken_flat.sol\":17547:17988  function _spendAllowance(... */\n      pop\n      pop\n      pop\n      jump\t// out\n        /* \"SlushToken_flat.sol\":14265:14916  function _transfer(... */\n    tag_123:\n        /* \"SlushToken_flat.sol\":14407:14408  0 */\n      0x00\n        /* \"SlushToken_flat.sol\":14391:14409  from != address(0) */\n      0xffffffffffffffffffffffffffffffffffffffff\n      and\n        /* \"SlushToken_flat.sol\":14391:14395  from */\n      dup4\n        /* \"SlushToken_flat.sol\":14391:14409  from != address(0) */\n      0xffffffffffffffffffffffffffffffffffffffff\n      and\n      sub\n        /* \"SlushToken_flat.sol\":14383:14451  require(from != address(0), \"ERC20: transfer from the zero address\") */\n      tag_192\n      jumpi\n      mload(0x40)\n      0x08c379a000000000000000000000000000000000000000000000000000000000\n      dup2\n      mstore\n      0x04\n      add\n      tag_193\n      swap1\n      tag_194\n      jump\t// in\n    tag_193:\n      mload(0x40)\n      dup1\n      swap2\n      sub\n      swap1\n      revert\n    tag_192:\n        /* \"SlushToken_flat.sol\":14483:14484  0 */\n      0x00\n        /* \"SlushToken_flat.sol\":14469:14485  to != address(0) */\n      0xffffffffffffffffffffffffffffffffffffffff\n      and\n        /* \"SlushToken_flat.sol\":14469:14471  to */\n      dup3\n        /* \"SlushToken_flat.sol\":14469:14485  to != address(0) */\n      0xffffffffffffffffffffffffffffffffffffffff\n      and\n      sub\n        /* \"SlushToken_flat.sol\":14461:14525  require(to != address(0), \"ERC20: transfer to the zero address\") */\n      tag_195\n      jumpi\n      mload(0x40)\n      0x08c379a000000000000000000000000000000000000000000000000000000000\n      dup2\n      mstore\n      0x04\n      add\n      tag_196\n      swap1\n      tag_197\n      jump\t// in\n    tag_196:\n      mload(0x40)\n      dup1\n      swap2\n      sub\n      swap1\n      revert\n    tag_195:\n        /* \"SlushToken_flat.sol\":14536:14574  _beforeTokenTransfer(from, to, amount) */\n      tag_198\n        /* \"SlushToken_flat.sol\":14557:14561  from */\n      dup4\n        /* \"SlushToken_flat.sol\":14563:14565  to */\n      dup4\n        /* \"SlushToken_flat.sol\":14567:14573  amount */\n      dup4\n        /* \"SlushToken_flat.sol\":14536:14556  _beforeTokenTransfer */\n      tag_199\n        /* \"SlushToken_flat.sol\":14536:14574  _beforeTokenTransfer(from, to, amount) */\n      jump\t// in\n    tag_198:\n        /* \"SlushToken_flat.sol\":14585:14604  uint256 fromBalance */\n      0x00\n        /* \"SlushToken_flat.sol\":14607:14616  _balances */\n      dup1\n        /* \"SlushToken_flat.sol\":14607:14622  _balances[from] */\n      0x00\n        /* \"SlushToken_flat.sol\":14617:14621  from */\n      dup6\n        /* \"SlushToken_flat.sol\":14607:14622  _balances[from] */\n      0xffffffffffffffffffffffffffffffffffffffff\n      and\n      0xffffffffffffffffffffffffffffffffffffffff\n      and\n      dup2\n      mstore\n      0x20\n      add\n      swap1\n      dup2\n      mstore\n      0x20\n      add\n      0x00\n      keccak256\n      sload\n        /* \"SlushToken_flat.sol\":14585:14622  uint256 fromBalance = _balances[from] */\n      swap1\n      pop\n        /* \"SlushToken_flat.sol\":14655:14661  amount */\n      dup2\n        /* \"SlushToken_flat.sol\":14640:14651  fromBalance */\n      dup2\n        /* \"SlushToken_flat.sol\":14640:14661  fromBalance >= amount */\n      lt\n      iszero\n        /* \"SlushToken_flat.sol\":14632:14704  require(fromBalance >= amount, \"ERC20: transfer amount exceeds balance\") */\n      tag_200\n      jumpi\n      mload(0x40)\n      0x08c379a000000000000000000000000000000000000000000000000000000000\n      dup2\n      mstore\n      0x04\n      add\n      tag_201\n      swap1\n      tag_202\n      jump\t// in\n    tag_201:\n      mload(0x40)\n      dup1\n      swap2\n      sub\n      swap1\n      revert\n    tag_200:\n        /* \"SlushToken_flat.sol\":14770:14776  amount */\n      dup2\n        /* \"SlushToken_flat.sol\":14756:14767  fromBalance */\n      dup2\n        /* \"SlushToken_flat.sol\":14756:14776  fromBalance - amount */\n      sub\n        /* \"SlushToken_flat.sol\":14738:14747  _balances */\n      0x00\n        /* \"SlushToken_flat.sol\":14738:14753  _balances[from] */\n      dup1\n        /* \"SlushToken_flat.sol\":14748:14752  from */\n      dup7\n        /* \"SlushToken_flat.sol\":14738:14753  _balances[from] */\n      0xffffffffffffffffffffffffffffffffffffffff\n      and\n      0xffffffffffffffffffffffffffffffffffffffff\n      and\n      dup2\n      mstore\n      0x20\n      add\n      swap1\n      dup2\n      mstore\n      0x20\n      add\n      0x00\n      keccak256\n        /* \"SlushToken_flat.sol\":14738:14776  _balances[from] = fromBalance - amount */\n      dup2\n      swap1\n      sstore\n      pop\n        /* \"SlushToken_flat.sol\":14813:14819  amount */\n      dup2\n        /* \"SlushToken_flat.sol\":14796:14805  _balances */\n      0x00\n        /* \"SlushToken_flat.sol\":14796:14809  _balances[to] */\n      dup1\n        /* \"SlushToken_flat.sol\":14806:14808  to */\n      dup6\n        /* \"SlushToken_flat.sol\":14796:14809  _balances[to] */\n      0xffffffffffffffffffffffffffffffffffffffff\n      and\n      0xffffffffffffffffffffffffffffffffffffffff\n      and\n      dup2\n      mstore\n      0x20\n      add\n      swap1\n      dup2\n      mstore\n      0x20\n      add\n      0x00\n      keccak256\n      0x00\n        /* \"SlushToken_flat.sol\":14796:14819  _balances[to] += amount */\n      dup3\n      dup3\n      sload\n      tag_203\n      swap2\n      swap1\n      tag_129\n      jump\t// in\n    tag_203:\n      swap3\n      pop\n      pop\n      dup2\n      swap1\n      sstore\n      pop\n        /* \"SlushToken_flat.sol\":14850:14852  to */\n      dup3\n        /* \"SlushToken_flat.sol\":14835:14861  Transfer(from, to, amount) */\n      0xffffffffffffffffffffffffffffffffffffffff\n      and\n        /* \"SlushToken_flat.sol\":14844:14848  from */\n      dup5\n        /* \"SlushToken_flat.sol\":14835:14861  Transfer(from, to, amount) */\n      0xffffffffffffffffffffffffffffffffffffffff\n      and\n      0xddf252ad1be2c89b69c2b068fc378daa952ba7f163c4a11628f55a4df523b3ef\n        /* \"SlushToken_flat.sol\":14854:14860  amount */\n      dup5\n        /* \"SlushToken_flat.sol\":14835:14861  Transfer(from, to, amount) */\n      mload(0x40)\n      tag_204\n      swap2\n      swap1\n      tag_42\n      jump\t// in\n    tag_204:\n      mload(0x40)\n      dup1\n      swap2\n      sub\n      swap1\n      log3\n        /* \"SlushToken_flat.sol\":14872:14909  _afterTokenTransfer(from, to, amount) */\n      tag_205\n        /* \"SlushToken_flat.sol\":14892:14896  from */\n      dup5\n        /* \"SlushToken_flat.sol\":14898:14900  to */\n      dup5\n        /* \"SlushToken_flat.sol\":14902:14908  amount */\n      dup5\n        /* \"SlushToken_flat.sol\":14872:14891  _afterTokenTransfer */\n      tag_206\n        /* \"SlushToken_flat.sol\":14872:14909  _afterTokenTransfer(from, to, amount) */\n      jump\t// in\n    tag_205:\n        /* \"SlushToken_flat.sol\":14373:14916  {... */\n      pop\n        /* \"SlushToken_flat.sol\":14265:14916  function _transfer(... */\n      pop\n      pop\n      pop\n      jump\t// out\n        /* \"SlushToken_flat.sol\":15192:15581  function _mint(address account, uint256 amount) internal virtual {... */\n    tag_138:\n        /* \"SlushToken_flat.sol\":15294:15295  0 */\n      0x00\n        /* \"SlushToken_flat.sol\":15275:15296  account != address(0) */\n      0xffffffffffffffffffffffffffffffffffffffff\n      and\n        /* \"SlushToken_flat.sol\":15275:15282  account */\n      dup3\n        /* \"SlushToken_flat.sol\":15275:15296  account != address(0) */\n      0xffffffffffffffffffffffffffffffffffffffff\n      and\n      sub\n        /* \"SlushToken_flat.sol\":15267:15332  require(account != address(0), \"ERC20: mint to the zero address\") */\n      tag_208\n      jumpi\n      mload(0x40)\n      0x08c379a000000000000000000000000000000000000000000000000000000000\n      dup2\n      mstore\n      0x04\n      add\n      tag_209\n      swap1\n      tag_210\n      jump\t// in\n    tag_209:\n      mload(0x40)\n      dup1\n      swap2\n      sub\n      swap1\n      revert\n    tag_208:\n        /* \"SlushToken_flat.sol\":15343:15392  _beforeTokenTransfer(address(0), account, amount) */\n      tag_211\n        /* \"SlushToken_flat.sol\":15372:15373  0 */\n      0x00\n        /* \"SlushToken_flat.sol\":15376:15383  account */\n      dup4\n        /* \"SlushToken_flat.sol\":15385:15391  amount */\n      dup4\n        /* \"SlushToken_flat.sol\":15343:15363  _beforeTokenTransfer */\n      tag_199\n        /* \"SlushToken_flat.sol\":15343:15392  _beforeTokenTransfer(address(0), account, amount) */\n      jump\t// in\n    tag_211:\n        /* \"SlushToken_flat.sol\":15419:15425  amount */\n      dup1\n        /* \"SlushToken_flat.sol\":15403:15415  _totalSupply */\n      0x02\n      0x00\n        /* \"SlushToken_flat.sol\":15403:15425  _totalSupply += amount */\n      dup3\n      dup3\n      sload\n      tag_212\n      swap2\n      swap1\n      tag_129\n      jump\t// in\n    tag_212:\n      swap3\n      pop\n      pop\n      dup2\n      swap1\n      sstore\n      pop\n        /* \"SlushToken_flat.sol\":15457:15463  amount */\n      dup1\n        /* \"SlushToken_flat.sol\":15435:15444  _balances */\n      0x00\n        /* \"SlushToken_flat.sol\":15435:15453  _balances[account] */\n      dup1\n        /* \"SlushToken_flat.sol\":15445:15452  account */\n      dup5\n        /* \"SlushToken_flat.sol\":15435:15453  _balances[account] */\n      0xffffffffffffffffffffffffffffffffffffffff\n      and\n      0xffffffffffffffffffffffffffffffffffffffff\n      and\n      dup2\n      mstore\n      0x20\n      add\n      swap1\n      dup2\n      mstore\n      0x20\n      add\n      0x00\n      keccak256\n      0x00\n        /* \"SlushToken_flat.sol\":15435:15463  _balances[account] += amount */\n      dup3\n      dup3\n      sload\n      tag_213\n      swap2\n      swap1\n      tag_129\n      jump\t// in\n    tag_213:\n      swap3\n      pop\n      pop\n      dup2\n      swap1\n      sstore\n      pop\n        /* \"SlushToken_flat.sol\":15499:15506  account */\n      dup2\n        /* \"SlushToken_flat.sol\":15478:15515  Transfer(address(0), account, amount) */\n      0xffffffffffffffffffffffffffffffffffffffff\n      and\n        /* \"SlushToken_flat.sol\":15495:15496  0 */\n      0x00\n        /* \"SlushToken_flat.sol\":15478:15515  Transfer(address(0), account, amount) */\n      0xffffffffffffffffffffffffffffffffffffffff\n      and\n      0xddf252ad1be2c89b69c2b068fc378daa952ba7f163c4a11628f55a4df523b3ef\n        /* \"SlushToken_flat.sol\":15508:15514  amount */\n      dup4\n        /* \"SlushToken_flat.sol\":15478:15515  Transfer(address(0), account, amount) */\n      mload(0x40)\n      tag_214\n      swap2\n      swap1\n      tag_42\n      jump\t// in\n    tag_214:\n      mload(0x40)\n      dup1\n      swap2\n      sub\n      swap1\n      log3\n        /* \"SlushToken_flat.sol\":15526:15574  _afterTokenTransfer(address(0), account, amount) */\n      tag_215\n        /* \"SlushToken_flat.sol\":15554:15555  0 */\n      0x00\n        /* \"SlushToken_flat.sol\":15558:15565  account */\n      dup4\n        /* \"SlushToken_flat.sol\":15567:15573  amount */\n      dup4\n        /* \"SlushToken_flat.sol\":15526:15545  _afterTokenTransfer */\n      tag_206\n        /* \"SlushToken_flat.sol\":15526:15574  _afterTokenTransfer(address(0), account, amount) */\n      jump\t// in\n    tag_215:\n        /* \"SlushToken_flat.sol\":15192:15581  function _mint(address account, uint256 amount) internal virtual {... */\n      pop\n      pop\n      jump\t// out\n        /* \"SlushToken_flat.sol\":3159:3346  function _transferOwnership(address newOwner) internal virtual {... */\n    tag_147:\n        /* \"SlushToken_flat.sol\":3232:3248  address oldOwner */\n      0x00\n        /* \"SlushToken_flat.sol\":3251:3257  _owner */\n      0x05\n      0x00\n      swap1\n      sload\n      swap1\n      0x0100\n      exp\n      swap1\n      div\n      0xffffffffffffffffffffffffffffffffffffffff\n      and\n        /* \"SlushToken_flat.sol\":3232:3257  address oldOwner = _owner */\n      swap1\n      pop\n        /* \"SlushToken_flat.sol\":3276:3284  newOwner */\n      dup2\n        /* \"SlushToken_flat.sol\":3267:3273  _owner */\n      0x05\n      0x00\n        /* \"SlushToken_flat.sol\":3267:3284  _owner = newOwner */\n      0x0100\n      exp\n      dup2\n      sload\n      dup2\n      0xffffffffffffffffffffffffffffffffffffffff\n      mul\n      not\n      and\n      swap1\n      dup4\n      0xffffffffffffffffffffffffffffffffffffffff\n      and\n      mul\n      or\n      swap1\n      sstore\n      pop\n        /* \"SlushToken_flat.sol\":3330:3338  newOwner */\n      dup2\n        /* \"SlushToken_flat.sol\":3299:3339  OwnershipTransferred(oldOwner, newOwner) */\n      0xffffffffffffffffffffffffffffffffffffffff\n      and\n        /* \"SlushToken_flat.sol\":3320:3328  oldOwner */\n      dup2\n        /* \"SlushToken_flat.sol\":3299:3339  OwnershipTransferred(oldOwner, newOwner) */\n      0xffffffffffffffffffffffffffffffffffffffff\n      and\n      0x8be0079c531659141344cd1fd0a4f28419497f9722a3daafe3b4186f6b6457e0\n      mload(0x40)\n      mload(0x40)\n      dup1\n      swap2\n      sub\n      swap1\n      log3\n        /* \"SlushToken_flat.sol\":3222:3346  {... */\n      pop\n        /* \"SlushToken_flat.sol\":3159:3346  function _transferOwnership(address newOwner) internal virtual {... */\n      pop\n      jump\t// out\n        /* \"SlushToken_flat.sol\":18572:18693  function _beforeTokenTransfer(... */\n    tag_199:\n      pop\n      pop\n      pop\n      jump\t// out\n        /* \"SlushToken_flat.sol\":19281:19401  function _afterTokenTransfer(... */\n    tag_206:\n      pop\n      pop\n      pop\n      jump\t// out\n        /* \"#utility.yul\":7:133   */\n    tag_219:\n        /* \"#utility.yul\":44:51   */\n      0x00\n        /* \"#utility.yul\":84:126   */\n      0xffffffffffffffffffffffffffffffffffffffff\n        /* \"#utility.yul\":77:82   */\n      dup3\n        /* \"#utility.yul\":73:127   */\n      and\n        /* \"#utility.yul\":62:127   */\n      swap1\n      pop\n        /* \"#utility.yul\":7:133   */\n      swap2\n      swap1\n      pop\n      jump\t// out\n        /* \"#utility.yul\":139:235   */\n    tag_220:\n        /* \"#utility.yul\":176:183   */\n      0x00\n        /* \"#utility.yul\":205:229   */\n      tag_265\n        /* \"#utility.yul\":223:228   */\n      dup3\n        /* \"#utility.yul\":205:229   */\n      tag_219\n      jump\t// in\n    tag_265:\n        /* \"#utility.yul\":194:229   */\n      swap1\n      pop\n        /* \"#utility.yul\":139:235   */\n      swap2\n      swap1\n      pop\n      jump\t// out\n        /* \"#utility.yul\":241:359   */\n    tag_221:\n        /* \"#utility.yul\":328:352   */\n      tag_267\n        /* \"#utility.yul\":346:351   */\n      dup2\n        /* \"#utility.yul\":328:352   */\n      tag_220\n      jump\t// in\n    tag_267:\n        /* \"#utility.yul\":323:326   */\n      dup3\n        /* \"#utility.yul\":316:353   */\n      mstore\n        /* \"#utility.yul\":241:359   */\n      pop\n      pop\n      jump\t// out\n        /* \"#utility.yul\":365:442   */\n    tag_222:\n        /* \"#utility.yul\":402:409   */\n      0x00\n        /* \"#utility.yul\":431:436   */\n      dup2\n        /* \"#utility.yul\":420:436   */\n      swap1\n      pop\n        /* \"#utility.yul\":365:442   */\n      swap2\n      swap1\n      pop\n      jump\t// out\n        /* \"#utility.yul\":448:566   */\n    tag_223:\n        /* \"#utility.yul\":535:559   */\n      tag_270\n        /* \"#utility.yul\":553:558   */\n      dup2\n        /* \"#utility.yul\":535:559   */\n      tag_222\n      jump\t// in\n    tag_270:\n        /* \"#utility.yul\":530:533   */\n      dup3\n        /* \"#utility.yul\":523:560   */\n      mstore\n        /* \"#utility.yul\":448:566   */\n      pop\n      pop\n      jump\t// out\n        /* \"#utility.yul\":572:904   */\n    tag_25:\n        /* \"#utility.yul\":693:697   */\n      0x00\n        /* \"#utility.yul\":731:733   */\n      0x40\n        /* \"#utility.yul\":720:729   */\n      dup3\n        /* \"#utility.yul\":716:734   */\n      add\n        /* \"#utility.yul\":708:734   */\n      swap1\n      pop\n        /* \"#utility.yul\":744:815   */\n      tag_272\n        /* \"#utility.yul\":812:813   */\n      0x00\n        /* \"#utility.yul\":801:810   */\n      dup4\n        /* \"#utility.yul\":797:814   */\n      add\n        /* \"#utility.yul\":788:794   */\n      dup6\n        /* \"#utility.yul\":744:815   */\n      tag_221\n      jump\t// in\n    tag_272:\n        /* \"#utility.yul\":825:897   */\n      tag_273\n        /* \"#utility.yul\":893:895   */\n      0x20\n        /* \"#utility.yul\":882:891   */\n      dup4\n        /* \"#utility.yul\":878:896   */\n      add\n        /* \"#utility.yul\":869:875   */\n      dup5\n        /* \"#utility.yul\":825:897   */\n      tag_223\n      jump\t// in\n    tag_273:\n        /* \"#utility.yul\":572:904   */\n      swap4\n      swap3\n      pop\n      pop\n      pop\n      jump\t// out\n        /* \"#utility.yul\":910:1009   */\n    tag_224:\n        /* \"#utility.yul\":962:968   */\n      0x00\n        /* \"#utility.yul\":996:1001   */\n      dup2\n        /* \"#utility.yul\":990:1002   */\n      mload\n        /* \"#utility.yul\":980:1002   */\n      swap1\n      pop\n        /* \"#utility.yul\":910:1009   */\n      swap2\n      swap1\n      pop\n      jump\t// out\n        /* \"#utility.yul\":1015:1184   */\n    tag_225:\n        /* \"#utility.yul\":1099:1110   */\n      0x00\n        /* \"#utility.yul\":1133:1139   */\n      dup3\n        /* \"#utility.yul\":1128:1131   */\n      dup3\n        /* \"#utility.yul\":1121:1140   */\n      mstore\n        /* \"#utility.yul\":1173:1177   */\n      0x20\n        /* \"#utility.yul\":1168:1171   */\n      dup3\n        /* \"#utility.yul\":1164:1178   */\n      add\n        /* \"#utility.yul\":1149:1178   */\n      swap1\n      pop\n        /* \"#utility.yul\":1015:1184   */\n      swap3\n      swap2\n      pop\n      pop\n      jump\t// out\n        /* \"#utility.yul\":1190:1497   */\n    tag_226:\n        /* \"#utility.yul\":1258:1259   */\n      0x00\n        /* \"#utility.yul\":1268:1381   */\n    tag_277:\n        /* \"#utility.yul\":1282:1288   */\n      dup4\n        /* \"#utility.yul\":1279:1280   */\n      dup2\n        /* \"#utility.yul\":1276:1289   */\n      lt\n        /* \"#utility.yul\":1268:1381   */\n      iszero\n      tag_279\n      jumpi\n        /* \"#utility.yul\":1367:1368   */\n      dup1\n        /* \"#utility.yul\":1362:1365   */\n      dup3\n        /* \"#utility.yul\":1358:1369   */\n      add\n        /* \"#utility.yul\":1352:1370   */\n      mload\n        /* \"#utility.yul\":1348:1349   */\n      dup2\n        /* \"#utility.yul\":1343:1346   */\n      dup5\n        /* \"#utility.yul\":1339:1350   */\n      add\n        /* \"#utility.yul\":1332:1371   */\n      mstore\n        /* \"#utility.yul\":1304:1306   */\n      0x20\n        /* \"#utility.yul\":1301:1302   */\n      dup2\n        /* \"#utility.yul\":1297:1307   */\n      add\n        /* \"#utility.yul\":1292:1307   */\n      swap1\n      pop\n        /* \"#utility.yul\":1268:1381   */\n      jump(tag_277)\n    tag_279:\n        /* \"#utility.yul\":1399:1405   */\n      dup4\n        /* \"#utility.yul\":1396:1397   */\n      dup2\n        /* \"#utility.yul\":1393:1406   */\n      gt\n        /* \"#utility.yul\":1390:1491   */\n      iszero\n      tag_280\n      jumpi\n        /* \"#utility.yul\":1479:1480   */\n      0x00\n        /* \"#utility.yul\":1470:1476   */\n      dup5\n        /* \"#utility.yul\":1465:1468   */\n      dup5\n        /* \"#utility.yul\":1461:1477   */\n      add\n        /* \"#utility.yul\":1454:1481   */\n      mstore\n        /* \"#utility.yul\":1390:1491   */\n    tag_280:\n        /* \"#utility.yul\":1239:1497   */\n      pop\n        /* \"#utility.yul\":1190:1497   */\n      pop\n      pop\n      pop\n      jump\t// out\n        /* \"#utility.yul\":1503:1605   */\n    tag_227:\n        /* \"#utility.yul\":1544:1550   */\n      0x00\n        /* \"#utility.yul\":1595:1597   */\n      0x1f\n        /* \"#utility.yul\":1591:1598   */\n      not\n        /* \"#utility.yul\":1586:1588   */\n      0x1f\n        /* \"#utility.yul\":1579:1584   */\n      dup4\n        /* \"#utility.yul\":1575:1589   */\n      add\n        /* \"#utility.yul\":1571:1599   */\n      and\n        /* \"#utility.yul\":1561:1599   */\n      swap1\n      pop\n        /* \"#utility.yul\":1503:1605   */\n      swap2\n      swap1\n      pop\n      jump\t// out\n        /* \"#utility.yul\":1611:1975   */\n    tag_228:\n        /* \"#utility.yul\":1699:1702   */\n      0x00\n        /* \"#utility.yul\":1727:1766   */\n      tag_283\n        /* \"#utility.yul\":1760:1765   */\n      dup3\n        /* \"#utility.yul\":1727:1766   */\n      tag_224\n      jump\t// in\n    tag_283:\n        /* \"#utility.yul\":1782:1853   */\n      tag_284\n        /* \"#utility.yul\":1846:1852   */\n      dup2\n        /* \"#utility.yul\":1841:1844   */\n      dup6\n        /* \"#utility.yul\":1782:1853   */\n      tag_225\n      jump\t// in\n    tag_284:\n        /* \"#utility.yul\":1775:1853   */\n      swap4\n      pop\n        /* \"#utility.yul\":1862:1914   */\n      tag_285\n        /* \"#utility.yul\":1907:1913   */\n      dup2\n        /* \"#utility.yul\":1902:1905   */\n      dup6\n        /* \"#utility.yul\":1895:1899   */\n      0x20\n        /* \"#utility.yul\":1888:1893   */\n      dup7\n        /* \"#utility.yul\":1884:1900   */\n      add\n        /* \"#utility.yul\":1862:1914   */\n      tag_226\n      jump\t// in\n    tag_285:\n        /* \"#utility.yul\":1939:1968   */\n      tag_286\n        /* \"#utility.yul\":1961:1967   */\n      dup2\n        /* \"#utility.yul\":1939:1968   */\n      tag_227\n      jump\t// in\n    tag_286:\n        /* \"#utility.yul\":1934:1937   */\n      dup5\n        /* \"#utility.yul\":1930:1969   */\n      add\n        /* \"#utility.yul\":1923:1969   */\n      swap2\n      pop\n        /* \"#utility.yul\":1703:1975   */\n      pop\n        /* \"#utility.yul\":1611:1975   */\n      swap3\n      swap2\n      pop\n      pop\n      jump\t// out\n        /* \"#utility.yul\":1981:2294   */\n    tag_30:\n        /* \"#utility.yul\":2094:2098   */\n      0x00\n        /* \"#utility.yul\":2132:2134   */\n      0x20\n        /* \"#utility.yul\":2121:2130   */\n      dup3\n        /* \"#utility.yul\":2117:2135   */\n      add\n        /* \"#utility.yul\":2109:2135   */\n      swap1\n      pop\n        /* \"#utility.yul\":2181:2190   */\n      dup2\n        /* \"#utility.yul\":2175:2179   */\n      dup2\n        /* \"#utility.yul\":2171:2191   */\n      sub\n        /* \"#utility.yul\":2167:2168   */\n      0x00\n        /* \"#utility.yul\":2156:2165   */\n      dup4\n        /* \"#utility.yul\":2152:2169   */\n      add\n        /* \"#utility.yul\":2145:2192   */\n      mstore\n        /* \"#utility.yul\":2209:2287   */\n      tag_288\n        /* \"#utility.yul\":2282:2286   */\n      dup2\n        /* \"#utility.yul\":2273:2279   */\n      dup5\n        /* \"#utility.yul\":2209:2287   */\n      tag_228\n      jump\t// in\n    tag_288:\n        /* \"#utility.yul\":2201:2287   */\n      swap1\n      pop\n        /* \"#utility.yul\":1981:2294   */\n      swap3\n      swap2\n      pop\n      pop\n      jump\t// out\n        /* \"#utility.yul\":2381:2498   */\n    tag_230:\n        /* \"#utility.yul\":2490:2491   */\n      0x00\n        /* \"#utility.yul\":2487:2488   */\n      dup1\n        /* \"#utility.yul\":2480:2492   */\n      revert\n        /* \"#utility.yul\":2627:2749   */\n    tag_232:\n        /* \"#utility.yul\":2700:2724   */\n      tag_293\n        /* \"#utility.yul\":2718:2723   */\n      dup2\n        /* \"#utility.yul\":2700:2724   */\n      tag_220\n      jump\t// in\n    tag_293:\n        /* \"#utility.yul\":2693:2698   */\n      dup2\n        /* \"#utility.yul\":2690:2725   */\n      eq\n        /* \"#utility.yul\":2680:2743   */\n      tag_294\n      jumpi\n        /* \"#utility.yul\":2739:2740   */\n      0x00\n        /* \"#utility.yul\":2736:2737   */\n      dup1\n        /* \"#utility.yul\":2729:2741   */\n      revert\n        /* \"#utility.yul\":2680:2743   */\n    tag_294:\n        /* \"#utility.yul\":2627:2749   */\n      pop\n      jump\t// out\n        /* \"#utility.yul\":2755:2894   */\n    tag_233:\n        /* \"#utility.yul\":2801:2806   */\n      0x00\n        /* \"#utility.yul\":2839:2845   */\n      dup2\n        /* \"#utility.yul\":2826:2846   */\n      calldataload\n        /* \"#utility.yul\":2817:2846   */\n      swap1\n      pop\n        /* \"#utility.yul\":2855:2888   */\n      tag_296\n        /* \"#utility.yul\":2882:2887   */\n      dup2\n        /* \"#utility.yul\":2855:2888   */\n      tag_232\n      jump\t// in\n    tag_296:\n        /* \"#utility.yul\":2755:2894   */\n      swap3\n      swap2\n      pop\n      pop\n      jump\t// out\n        /* \"#utility.yul\":2900:3022   */\n    tag_234:\n        /* \"#utility.yul\":2973:2997   */\n      tag_298\n        /* \"#utility.yul\":2991:2996   */\n      dup2\n        /* \"#utility.yul\":2973:2997   */\n      tag_222\n      jump\t// in\n    tag_298:\n        /* \"#utility.yul\":2966:2971   */\n      dup2\n        /* \"#utility.yul\":2963:2998   */\n      eq\n        /* \"#utility.yul\":2953:3016   */\n      tag_299\n      jumpi\n        /* \"#utility.yul\":3012:3013   */\n      0x00\n        /* \"#utility.yul\":3009:3010   */\n      dup1\n        /* \"#utility.yul\":3002:3014   */\n      revert\n        /* \"#utility.yul\":2953:3016   */\n    tag_299:\n        /* \"#utility.yul\":2900:3022   */\n      pop\n      jump\t// out\n        /* \"#utility.yul\":3028:3167   */\n    tag_235:\n        /* \"#utility.yul\":3074:3079   */\n      0x00\n        /* \"#utility.yul\":3112:3118   */\n      dup2\n        /* \"#utility.yul\":3099:3119   */\n      calldataload\n        /* \"#utility.yul\":3090:3119   */\n      swap1\n      pop\n        /* \"#utility.yul\":3128:3161   */\n      tag_301\n        /* \"#utility.yul\":3155:3160   */\n      dup2\n        /* \"#utility.yul\":3128:3161   */\n      tag_234\n      jump\t// in\n    tag_301:\n        /* \"#utility.yul\":3028:3167   */\n      swap3\n      swap2\n      pop\n      pop\n      jump\t// out\n        /* \"#utility.yul\":3173:3647   */\n    tag_34:\n        /* \"#utility.yul\":3241:3247   */\n      0x00\n        /* \"#utility.yul\":3249:3255   */\n      dup1\n        /* \"#utility.yul\":3298:3300   */\n      0x40\n        /* \"#utility.yul\":3286:3295   */\n      dup4\n        /* \"#utility.yul\":3277:3284   */\n      dup6\n        /* \"#utility.yul\":3273:3296   */\n      sub\n        /* \"#utility.yul\":3269:3301   */\n      slt\n        /* \"#utility.yul\":3266:3385   */\n      iszero\n      tag_303\n      jumpi\n        /* \"#utility.yul\":3304:3383   */\n      tag_304\n      tag_230\n      jump\t// in\n    tag_304:\n        /* \"#utility.yul\":3266:3385   */\n    tag_303:\n        /* \"#utility.yul\":3424:3425   */\n      0x00\n        /* \"#utility.yul\":3449:3502   */\n      tag_305\n        /* \"#utility.yul\":3494:3501   */\n      dup6\n        /* \"#utility.yul\":3485:3491   */\n      dup3\n        /* \"#utility.yul\":3474:3483   */\n      dup7\n        /* \"#utility.yul\":3470:3492   */\n      add\n        /* \"#utility.yul\":3449:3502   */\n      tag_233\n      jump\t// in\n    tag_305:\n        /* \"#utility.yul\":3439:3502   */\n      swap3\n      pop\n        /* \"#utility.yul\":3395:3512   */\n      pop\n        /* \"#utility.yul\":3551:3553   */\n      0x20\n        /* \"#utility.yul\":3577:3630   */\n      tag_306\n        /* \"#utility.yul\":3622:3629   */\n      dup6\n        /* \"#utility.yul\":3613:3619   */\n      dup3\n        /* \"#utility.yul\":3602:3611   */\n      dup7\n        /* \"#utility.yul\":3598:3620   */\n      add\n        /* \"#utility.yul\":3577:3630   */\n      tag_235\n      jump\t// in\n    tag_306:\n        /* \"#utility.yul\":3567:3630   */\n      swap2\n      pop\n        /* \"#utility.yul\":3522:3640   */\n      pop\n        /* \"#utility.yul\":3173:3647   */\n      swap3\n      pop\n      swap3\n      swap1\n      pop\n      jump\t// out\n        /* \"#utility.yul\":3653:3743   */\n    tag_236:\n        /* \"#utility.yul\":3687:3694   */\n      0x00\n        /* \"#utility.yul\":3730:3735   */\n      dup2\n        /* \"#utility.yul\":3723:3736   */\n      iszero\n        /* \"#utility.yul\":3716:3737   */\n      iszero\n        /* \"#utility.yul\":3705:3737   */\n      swap1\n      pop\n        /* \"#utility.yul\":3653:3743   */\n      swap2\n      swap1\n      pop\n      jump\t// out\n        /* \"#utility.yul\":3749:3858   */\n    tag_237:\n        /* \"#utility.yul\":3830:3851   */\n      tag_309\n        /* \"#utility.yul\":3845:3850   */\n      dup2\n        /* \"#utility.yul\":3830:3851   */\n      tag_236\n      jump\t// in\n    tag_309:\n        /* \"#utility.yul\":3825:3828   */\n      dup3\n        /* \"#utility.yul\":3818:3852   */\n      mstore\n        /* \"#utility.yul\":3749:3858   */\n      pop\n      pop\n      jump\t// out\n        /* \"#utility.yul\":3864:4074   */\n    tag_37:\n        /* \"#utility.yul\":3951:3955   */\n      0x00\n        /* \"#utility.yul\":3989:3991   */\n      0x20\n        /* \"#utility.yul\":3978:3987   */\n      dup3\n        /* \"#utility.yul\":3974:3992   */\n      add\n        /* \"#utility.yul\":3966:3992   */\n      swap1\n      pop\n        /* \"#utility.yul\":4002:4067   */\n      tag_311\n        /* \"#utility.yul\":4064:4065   */\n      0x00\n        /* \"#utility.yul\":4053:4062   */\n      dup4\n        /* \"#utility.yul\":4049:4066   */\n      add\n        /* \"#utility.yul\":4040:4046   */\n      dup5\n        /* \"#utility.yul\":4002:4067   */\n      tag_237\n      jump\t// in\n    tag_311:\n        /* \"#utility.yul\":3864:4074   */\n      swap3\n      swap2\n      pop\n      pop\n      jump\t// out\n        /* \"#utility.yul\":4080:4302   */\n    tag_42:\n        /* \"#utility.yul\":4173:4177   */\n      0x00\n        /* \"#utility.yul\":4211:4213   */\n      0x20\n        /* \"#utility.yul\":4200:4209   */\n      dup3\n        /* \"#utility.yul\":4196:4214   */\n      add\n        /* \"#utility.yul\":4188:4214   */\n      swap1\n      pop\n        /* \"#utility.yul\":4224:4295   */\n      tag_313\n        /* \"#utility.yul\":4292:4293   */\n      0x00\n        /* \"#utility.yul\":4281:4290   */\n      dup4\n        /* \"#utility.yul\":4277:4294   */\n      add\n        /* \"#utility.yul\":4268:4274   */\n      dup5\n        /* \"#utility.yul\":4224:4295   */\n      tag_223\n      jump\t// in\n    tag_313:\n        /* \"#utility.yul\":4080:4302   */\n      swap3\n      swap2\n      pop\n      pop\n      jump\t// out\n        /* \"#utility.yul\":4308:4927   */\n    tag_46:\n        /* \"#utility.yul\":4385:4391   */\n      0x00\n        /* \"#utility.yul\":4393:4399   */\n      dup1\n        /* \"#utility.yul\":4401:4407   */\n      0x00\n        /* \"#utility.yul\":4450:4452   */\n      0x60\n        /* \"#utility.yul\":4438:4447   */\n      dup5\n        /* \"#utility.yul\":4429:4436   */\n      dup7\n        /* \"#utility.yul\":4425:4448   */\n      sub\n        /* \"#utility.yul\":4421:4453   */\n      slt\n        /* \"#utility.yul\":4418:4537   */\n      iszero\n      tag_315\n      jumpi\n        /* \"#utility.yul\":4456:4535   */\n      tag_316\n      tag_230\n      jump\t// in\n    tag_316:\n        /* \"#utility.yul\":4418:4537   */\n    tag_315:\n        /* \"#utility.yul\":4576:4577   */\n      0x00\n        /* \"#utility.yul\":4601:4654   */\n      tag_317\n        /* \"#utility.yul\":4646:4653   */\n      dup7\n        /* \"#utility.yul\":4637:4643   */\n      dup3\n        /* \"#utility.yul\":4626:4635   */\n      dup8\n        /* \"#utility.yul\":4622:4644   */\n      add\n        /* \"#utility.yul\":4601:4654   */\n      tag_233\n      jump\t// in\n    tag_317:\n        /* \"#utility.yul\":4591:4654   */\n      swap4\n      pop\n        /* \"#utility.yul\":4547:4664   */\n      pop\n        /* \"#utility.yul\":4703:4705   */\n      0x20\n        /* \"#utility.yul\":4729:4782   */\n      tag_318\n        /* \"#utility.yul\":4774:4781   */\n      dup7\n        /* \"#utility.yul\":4765:4771   */\n      dup3\n        /* \"#utility.yul\":4754:4763   */\n      dup8\n        /* \"#utility.yul\":4750:4772   */\n      add\n        /* \"#utility.yul\":4729:4782   */\n      tag_233\n      jump\t// in\n    tag_318:\n        /* \"#utility.yul\":4719:4782   */\n      swap3\n      pop\n        /* \"#utility.yul\":4674:4792   */\n      pop\n        /* \"#utility.yul\":4831:4833   */\n      0x40\n        /* \"#utility.yul\":4857:4910   */\n      tag_319\n        /* \"#utility.yul\":4902:4909   */\n      dup7\n        /* \"#utility.yul\":4893:4899   */\n      dup3\n        /* \"#utility.yul\":4882:4891   */\n      dup8\n        /* \"#utility.yul\":4878:4900   */\n      add\n        /* \"#utility.yul\":4857:4910   */\n      tag_235\n      jump\t// in\n    tag_319:\n        /* \"#utility.yul\":4847:4910   */\n      swap2\n      pop\n        /* \"#utility.yul\":4802:4920   */\n      pop\n        /* \"#utility.yul\":4308:4927   */\n      swap3\n      pop\n      swap3\n      pop\n      swap3\n      jump\t// out\n        /* \"#utility.yul\":4933:5019   */\n    tag_238:\n        /* \"#utility.yul\":4968:4975   */\n      0x00\n        /* \"#utility.yul\":5008:5012   */\n      0xff\n        /* \"#utility.yul\":5001:5006   */\n      dup3\n        /* \"#utility.yul\":4997:5013   */\n      and\n        /* \"#utility.yul\":4986:5013   */\n      swap1\n      pop\n        /* \"#utility.yul\":4933:5019   */\n      swap2\n      swap1\n      pop\n      jump\t// out\n        /* \"#utility.yul\":5025:5137   */\n    tag_239:\n        /* \"#utility.yul\":5108:5130   */\n      tag_322\n        /* \"#utility.yul\":5124:5129   */\n      dup2\n        /* \"#utility.yul\":5108:5130   */\n      tag_238\n      jump\t// in\n    tag_322:\n        /* \"#utility.yul\":5103:5106   */\n      dup3\n        /* \"#utility.yul\":5096:5131   */\n      mstore\n        /* \"#utility.yul\":5025:5137   */\n      pop\n      pop\n      jump\t// out\n        /* \"#utility.yul\":5143:5357   */\n    tag_57:\n        /* \"#utility.yul\":5232:5236   */\n      0x00\n        /* \"#utility.yul\":5270:5272   */\n      0x20\n        /* \"#utility.yul\":5259:5268   */\n      dup3\n        /* \"#utility.yul\":5255:5273   */\n      add\n        /* \"#utility.yul\":5247:5273   */\n      swap1\n      pop\n        /* \"#utility.yul\":5283:5350   */\n      tag_324\n        /* \"#utility.yul\":5347:5348   */\n      0x00\n        /* \"#utility.yul\":5336:5345   */\n      dup4\n        /* \"#utility.yul\":5332:5349   */\n      add\n        /* \"#utility.yul\":5323:5329   */\n      dup5\n        /* \"#utility.yul\":5283:5350   */\n      tag_239\n      jump\t// in\n    tag_324:\n        /* \"#utility.yul\":5143:5357   */\n      swap3\n      swap2\n      pop\n      pop\n      jump\t// out\n        /* \"#utility.yul\":5363:5692   */\n    tag_70:\n        /* \"#utility.yul\":5422:5428   */\n      0x00\n        /* \"#utility.yul\":5471:5473   */\n      0x20\n        /* \"#utility.yul\":5459:5468   */\n      dup3\n        /* \"#utility.yul\":5450:5457   */\n      dup5\n        /* \"#utility.yul\":5446:5469   */\n      sub\n        /* \"#utility.yul\":5442:5474   */\n      slt\n        /* \"#utility.yul\":5439:5558   */\n      iszero\n      tag_326\n      jumpi\n        /* \"#utility.yul\":5477:5556   */\n      tag_327\n      tag_230\n      jump\t// in\n    tag_327:\n        /* \"#utility.yul\":5439:5558   */\n    tag_326:\n        /* \"#utility.yul\":5597:5598   */\n      0x00\n        /* \"#utility.yul\":5622:5675   */\n      tag_328\n        /* \"#utility.yul\":5667:5674   */\n      dup5\n        /* \"#utility.yul\":5658:5664   */\n      dup3\n        /* \"#utility.yul\":5647:5656   */\n      dup6\n        /* \"#utility.yul\":5643:5665   */\n      add\n        /* \"#utility.yul\":5622:5675   */\n      tag_233\n      jump\t// in\n    tag_328:\n        /* \"#utility.yul\":5612:5675   */\n      swap2\n      pop\n        /* \"#utility.yul\":5568:5685   */\n      pop\n        /* \"#utility.yul\":5363:5692   */\n      swap3\n      swap2\n      pop\n      pop\n      jump\t// out\n        /* \"#utility.yul\":5698:5920   */\n    tag_80:\n        /* \"#utility.yul\":5791:5795   */\n      0x00\n        /* \"#utility.yul\":5829:5831   */\n      0x20\n        /* \"#utility.yul\":5818:5827   */\n      dup3\n        /* \"#utility.yul\":5814:5832   */\n      add\n        /* \"#utility.yul\":5806:5832   */\n      swap1\n      pop\n        /* \"#utility.yul\":5842:5913   */\n      tag_330\n        /* \"#utility.yul\":5910:5911   */\n      0x00\n        /* \"#utility.yul\":5899:5908   */\n      dup4\n        /* \"#utility.yul\":5895:5912   */\n      add\n        /* \"#utility.yul\":5886:5892   */\n      dup5\n        /* \"#utility.yul\":5842:5913   */\n      tag_221\n      jump\t// in\n    tag_330:\n        /* \"#utility.yul\":5698:5920   */\n      swap3\n      swap2\n      pop\n      pop\n      jump\t// out\n        /* \"#utility.yul\":5926:6400   */\n    tag_98:\n        /* \"#utility.yul\":5994:6000   */\n      0x00\n        /* \"#utility.yul\":6002:6008   */\n      dup1\n        /* \"#utility.yul\":6051:6053   */\n      0x40\n        /* \"#utility.yul\":6039:6048   */\n      dup4\n        /* \"#utility.yul\":6030:6037   */\n      dup6\n        /* \"#utility.yul\":6026:6049   */\n      sub\n        /* \"#utility.yul\":6022:6054   */\n      slt\n        /* \"#utility.yul\":6019:6138   */\n      iszero\n      tag_332\n      jumpi\n        /* \"#utility.yul\":6057:6136   */\n      tag_333\n      tag_230\n      jump\t// in\n    tag_333:\n        /* \"#utility.yul\":6019:6138   */\n    tag_332:\n        /* \"#utility.yul\":6177:6178   */\n      0x00\n        /* \"#utility.yul\":6202:6255   */\n      tag_334\n        /* \"#utility.yul\":6247:6254   */\n      dup6\n        /* \"#utility.yul\":6238:6244   */\n      dup3\n        /* \"#utility.yul\":6227:6236   */\n      dup7\n        /* \"#utility.yul\":6223:6245   */\n      add\n        /* \"#utility.yul\":6202:6255   */\n      tag_233\n      jump\t// in\n    tag_334:\n        /* \"#utility.yul\":6192:6255   */\n      swap3\n      pop\n        /* \"#utility.yul\":6148:6265   */\n      pop\n        /* \"#utility.yul\":6304:6306   */\n      0x20\n        /* \"#utility.yul\":6330:6383   */\n      tag_335\n        /* \"#utility.yul\":6375:6382   */\n      dup6\n        /* \"#utility.yul\":6366:6372   */\n      dup3\n        /* \"#utility.yul\":6355:6364   */\n      dup7\n        /* \"#utility.yul\":6351:6373   */\n      add\n        /* \"#utility.yul\":6330:6383   */\n      tag_233\n      jump\t// in\n    tag_335:\n        /* \"#utility.yul\":6320:6383   */\n      swap2\n      pop\n        /* \"#utility.yul\":6275:6393   */\n      pop\n        /* \"#utility.yul\":5926:6400   */\n      swap3\n      pop\n      swap3\n      swap1\n      pop\n      jump\t// out\n        /* \"#utility.yul\":6406:6586   */\n    tag_240:\n        /* \"#utility.yul\":6454:6531   */\n      0x4e487b7100000000000000000000000000000000000000000000000000000000\n        /* \"#utility.yul\":6451:6452   */\n      0x00\n        /* \"#utility.yul\":6444:6532   */\n      mstore\n        /* \"#utility.yul\":6551:6555   */\n      0x22\n        /* \"#utility.yul\":6548:6549   */\n      0x04\n        /* \"#utility.yul\":6541:6556   */\n      mstore\n        /* \"#utility.yul\":6575:6579   */\n      0x24\n        /* \"#utility.yul\":6572:6573   */\n      0x00\n        /* \"#utility.yul\":6565:6580   */\n      revert\n        /* \"#utility.yul\":6592:6912   */\n    tag_107:\n        /* \"#utility.yul\":6636:6642   */\n      0x00\n        /* \"#utility.yul\":6673:6674   */\n      0x02\n        /* \"#utility.yul\":6667:6671   */\n      dup3\n        /* \"#utility.yul\":6663:6675   */\n      div\n        /* \"#utility.yul\":6653:6675   */\n      swap1\n      pop\n        /* \"#utility.yul\":6720:6721   */\n      0x01\n        /* \"#utility.yul\":6714:6718   */\n      dup3\n        /* \"#utility.yul\":6710:6722   */\n      and\n        /* \"#utility.yul\":6741:6759   */\n      dup1\n        /* \"#utility.yul\":6731:6812   */\n      tag_338\n      jumpi\n        /* \"#utility.yul\":6797:6801   */\n      0x7f\n        /* \"#utility.yul\":6789:6795   */\n      dup3\n        /* \"#utility.yul\":6785:6802   */\n      and\n        /* \"#utility.yul\":6775:6802   */\n      swap2\n      pop\n        /* \"#utility.yul\":6731:6812   */\n    tag_338:\n        /* \"#utility.yul\":6859:6861   */\n      0x20\n        /* \"#utility.yul\":6851:6857   */\n      dup3\n        /* \"#utility.yul\":6848:6862   */\n      lt\n        /* \"#utility.yul\":6828:6846   */\n      dup2\n        /* \"#utility.yul\":6825:6863   */\n      sub\n        /* \"#utility.yul\":6822:6906   */\n      tag_339\n      jumpi\n        /* \"#utility.yul\":6878:6896   */\n      tag_340\n      tag_240\n      jump\t// in\n    tag_340:\n        /* \"#utility.yul\":6822:6906   */\n    tag_339:\n        /* \"#utility.yul\":6643:6912   */\n      pop\n        /* \"#utility.yul\":6592:6912   */\n      swap2\n      swap1\n      pop\n      jump\t// out\n        /* \"#utility.yul\":6918:7098   */\n    tag_241:\n        /* \"#utility.yul\":6966:7043   */\n      0x4e487b7100000000000000000000000000000000000000000000000000000000\n        /* \"#utility.yul\":6963:6964   */\n      0x00\n        /* \"#utility.yul\":6956:7044   */\n      mstore\n        /* \"#utility.yul\":7063:7067   */\n      0x11\n        /* \"#utility.yul\":7060:7061   */\n      0x04\n        /* \"#utility.yul\":7053:7068   */\n      mstore\n        /* \"#utility.yul\":7087:7091   */\n      0x24\n        /* \"#utility.yul\":7084:7085   */\n      0x00\n        /* \"#utility.yul\":7077:7092   */\n      revert\n        /* \"#utility.yul\":7104:7409   */\n    tag_129:\n        /* \"#utility.yul\":7144:7147   */\n      0x00\n        /* \"#utility.yul\":7163:7183   */\n      tag_343\n        /* \"#utility.yul\":7181:7182   */\n      dup3\n        /* \"#utility.yul\":7163:7183   */\n      tag_222\n      jump\t// in\n    tag_343:\n        /* \"#utility.yul\":7158:7183   */\n      swap2\n      pop\n        /* \"#utility.yul\":7197:7217   */\n      tag_344\n        /* \"#utility.yul\":7215:7216   */\n      dup4\n        /* \"#utility.yul\":7197:7217   */\n      tag_222\n      jump\t// in\n    tag_344:\n        /* \"#utility.yul\":7192:7217   */\n      swap3\n      pop\n        /* \"#utility.yul\":7351:7352   */\n      dup3\n        /* \"#utility.yul\":7283:7349   */\n      0xffffffffffffffffffffffffffffffffffffffffffffffffffffffffffffffff\n        /* \"#utility.yul\":7279:7353   */\n      sub\n        /* \"#utility.yul\":7276:7277   */\n      dup3\n        /* \"#utility.yul\":7273:7354   */\n      gt\n        /* \"#utility.yul\":7270:7377   */\n      iszero\n      tag_345\n      jumpi\n        /* \"#utility.yul\":7357:7375   */\n      tag_346\n      tag_241\n      jump\t// in\n    tag_346:\n        /* \"#utility.yul\":7270:7377   */\n    tag_345:\n        /* \"#utility.yul\":7401:7402   */\n      dup3\n        /* \"#utility.yul\":7398:7399   */\n      dup3\n        /* \"#utility.yul\":7394:7403   */\n      add\n        /* \"#utility.yul\":7387:7403   */\n      swap1\n      pop\n        /* \"#utility.yul\":7104:7409   */\n      swap3\n      swap2\n      pop\n      pop\n      jump\t// out\n        /* \"#utility.yul\":7415:7597   */\n    tag_242:\n        /* \"#utility.yul\":7555:7589   */\n      0x4f776e61626c653a2063616c6c6572206973206e6f7420746865206f776e6572\n        /* \"#utility.yul\":7551:7552   */\n      0x00\n        /* \"#utility.yul\":7543:7549   */\n      dup3\n        /* \"#utility.yul\":7539:7553   */\n      add\n        /* \"#utility.yul\":7532:7590   */\n      mstore\n        /* \"#utility.yul\":7415:7597   */\n      pop\n      jump\t// out\n        /* \"#utility.yul\":7603:7969   */\n    tag_243:\n        /* \"#utility.yul\":7745:7748   */\n      0x00\n        /* \"#utility.yul\":7766:7833   */\n      tag_349\n        /* \"#utility.yul\":7830:7832   */\n      0x20\n        /* \"#utility.yul\":7825:7828   */\n      dup4\n        /* \"#utility.yul\":7766:7833   */\n      tag_225\n      jump\t// in\n    tag_349:\n        /* \"#utility.yul\":7759:7833   */\n      swap2\n      pop\n        /* \"#utility.yul\":7842:7935   */\n      tag_350\n        /* \"#utility.yul\":7931:7934   */\n      dup3\n        /* \"#utility.yul\":7842:7935   */\n      tag_242\n      jump\t// in\n    tag_350:\n        /* \"#utility.yul\":7960:7962   */\n      0x20\n        /* \"#utility.yul\":7955:7958   */\n      dup3\n        /* \"#utility.yul\":7951:7963   */\n      add\n        /* \"#utility.yul\":7944:7963   */\n      swap1\n      pop\n        /* \"#utility.yul\":7603:7969   */\n      swap2\n      swap1\n      pop\n      jump\t// out\n        /* \"#utility.yul\":7975:8394   */\n    tag_135:\n        /* \"#utility.yul\":8141:8145   */\n      0x00\n        /* \"#utility.yul\":8179:8181   */\n      0x20\n        /* \"#utility.yul\":8168:8177   */\n      dup3\n        /* \"#utility.yul\":8164:8182   */\n      add\n        /* \"#utility.yul\":8156:8182   */\n      swap1\n      pop\n        /* \"#utility.yul\":8228:8237   */\n      dup2\n        /* \"#utility.yul\":8222:8226   */\n      dup2\n        /* \"#utility.yul\":8218:8238   */\n      sub\n        /* \"#utility.yul\":8214:8215   */\n      0x00\n        /* \"#utility.yul\":8203:8212   */\n      dup4\n        /* \"#utility.yul\":8199:8216   */\n      add\n        /* \"#utility.yul\":8192:8239   */\n      mstore\n        /* \"#utility.yul\":8256:8387   */\n      tag_352\n        /* \"#utility.yul\":8382:8386   */\n      dup2\n        /* \"#utility.yul\":8256:8387   */\n      tag_243\n      jump\t// in\n    tag_352:\n        /* \"#utility.yul\":8248:8387   */\n      swap1\n      pop\n        /* \"#utility.yul\":7975:8394   */\n      swap2\n      swap1\n      pop\n      jump\t// out\n        /* \"#utility.yul\":8400:8624   */\n    tag_244:\n        /* \"#utility.yul\":8540:8574   */\n      0x45524332303a2064656372656173656420616c6c6f77616e63652062656c6f77\n        /* \"#utility.yul\":8536:8537   */\n      0x00\n        /* \"#utility.yul\":8528:8534   */\n      dup3\n        /* \"#utility.yul\":8524:8538   */\n      add\n        /* \"#utility.yul\":8517:8575   */\n      mstore\n        /* \"#utility.yul\":8609:8616   */\n      0x207a65726f000000000000000000000000000000000000000000000000000000\n        /* \"#utility.yul\":8604:8606   */\n      0x20\n        /* \"#utility.yul\":8596:8602   */\n      dup3\n        /* \"#utility.yul\":8592:8607   */\n      add\n        /* \"#utility.yul\":8585:8617   */\n      mstore\n        /* \"#utility.yul\":8400:8624   */\n      pop\n      jump\t// out\n        /* \"#utility.yul\":8630:8996   */\n    tag_245:\n        /* \"#utility.yul\":8772:8775   */\n      0x00\n        /* \"#utility.yul\":8793:8860   */\n      tag_355\n        /* \"#utility.yul\":8857:8859   */\n      0x25\n        /* \"#utility.yul\":8852:8855   */\n      dup4\n        /* \"#utility.yul\":8793:8860   */\n      tag_225\n      jump\t// in\n    tag_355:\n        /* \"#utility.yul\":8786:8860   */\n      swap2\n      pop\n        /* \"#utility.yul\":8869:8962   */\n      tag_356\n        /* \"#utility.yul\":8958:8961   */\n      dup3\n        /* \"#utility.yul\":8869:8962   */\n      tag_244\n      jump\t// in\n    tag_356:\n        /* \"#utility.yul\":8987:8989   */\n      0x40\n        /* \"#utility.yul\":8982:8985   */\n      dup3\n        /* \"#utility.yul\":8978:8990   */\n      add\n        /* \"#utility.yul\":8971:8990   */\n      swap1\n      pop\n        /* \"#utility.yul\":8630:8996   */\n      swap2\n      swap1\n      pop\n      jump\t// out\n        /* \"#utility.yul\":9002:9421   */\n    tag_159:\n        /* \"#utility.yul\":9168:9172   */\n      0x00\n        /* \"#utility.yul\":9206:9208   */\n      0x20\n        /* \"#utility.yul\":9195:9204   */\n      dup3\n        /* \"#utility.yul\":9191:9209   */\n      add\n        /* \"#utility.yul\":9183:9209   */\n      swap1\n      pop\n        /* \"#utility.yul\":9255:9264   */\n      dup2\n        /* \"#utility.yul\":9249:9253   */\n      dup2\n        /* \"#utility.yul\":9245:9265   */\n      sub\n        /* \"#utility.yul\":9241:9242   */\n      0x00\n        /* \"#utility.yul\":9230:9239   */\n      dup4\n        /* \"#utility.yul\":9226:9243   */\n      add\n        /* \"#utility.yul\":9219:9266   */\n      mstore\n        /* \"#utility.yul\":9283:9414   */\n      tag_358\n        /* \"#utility.yul\":9409:9413   */\n      dup2\n        /* \"#utility.yul\":9283:9414   */\n      tag_245\n      jump\t// in\n    tag_358:\n        /* \"#utility.yul\":9275:9414   */\n      swap1\n      pop\n        /* \"#utility.yul\":9002:9421   */\n      swap2\n      swap1\n      pop\n      jump\t// out\n        /* \"#utility.yul\":9427:9652   */\n    tag_246:\n        /* \"#utility.yul\":9567:9601   */\n      0x4f776e61626c653a206e6577206f776e657220697320746865207a65726f2061\n        /* \"#utility.yul\":9563:9564   */\n      0x00\n        /* \"#utility.yul\":9555:9561   */\n      dup3\n        /* \"#utility.yul\":9551:9565   */\n      add\n        /* \"#utility.yul\":9544:9602   */\n      mstore\n        /* \"#utility.yul\":9636:9644   */\n      0x6464726573730000000000000000000000000000000000000000000000000000\n        /* \"#utility.yul\":9631:9633   */\n      0x20\n        /* \"#utility.yul\":9623:9629   */\n      dup3\n        /* \"#utility.yul\":9619:9634   */\n      add\n        /* \"#utility.yul\":9612:9645   */\n      mstore\n        /* \"#utility.yul\":9427:9652   */\n      pop\n      jump\t// out\n        /* \"#utility.yul\":9658:10024   */\n    tag_247:\n        /* \"#utility.yul\":9800:9803   */\n      0x00\n        /* \"#utility.yul\":9821:9888   */\n      tag_361\n        /* \"#utility.yul\":9885:9887   */\n      0x26\n        /* \"#utility.yul\":9880:9883   */\n      dup4\n        /* \"#utility.yul\":9821:9888   */\n      tag_225\n      jump\t// in\n    tag_361:\n        /* \"#utility.yul\":9814:9888   */\n      swap2\n      pop\n        /* \"#utility.yul\":9897:9990   */\n      tag_362\n        /* \"#utility.yul\":9986:9989   */\n      dup3\n        /* \"#utility.yul\":9897:9990   */\n      tag_246\n      jump\t// in\n    tag_362:\n        /* \"#utility.yul\":10015:10017   */\n      0x40\n        /* \"#utility.yul\":10010:10013   */\n      dup3\n        /* \"#utility.yul\":10006:10018   */\n      add\n        /* \"#utility.yul\":9999:10018   */\n      swap1\n      pop\n        /* \"#utility.yul\":9658:10024   */\n      swap2\n      swap1\n      pop\n      jump\t// out\n        /* \"#utility.yul\":10030:10449   */\n    tag_173:\n        /* \"#utility.yul\":10196:10200   */\n      0x00\n        /* \"#utility.yul\":10234:10236   */\n      0x20\n        /* \"#utility.yul\":10223:10232   */\n      dup3\n        /* \"#utility.yul\":10219:10237   */\n      add\n        /* \"#utility.yul\":10211:10237   */\n      swap1\n      pop\n        /* \"#utility.yul\":10283:10292   */\n      dup2\n        /* \"#utility.yul\":10277:10281   */\n      dup2\n        /* \"#utility.yul\":10273:10293   */\n      sub\n        /* \"#utility.yul\":10269:10270   */\n      0x00\n        /* \"#utility.yul\":10258:10267   */\n      dup4\n        /* \"#utility.yul\":10254:10271   */\n      add\n        /* \"#utility.yul\":10247:10294   */\n      mstore\n        /* \"#utility.yul\":10311:10442   */\n      tag_364\n        /* \"#utility.yul\":10437:10441   */\n      dup2\n        /* \"#utility.yul\":10311:10442   */\n      tag_247\n      jump\t// in\n    tag_364:\n        /* \"#utility.yul\":10303:10442   */\n      swap1\n      pop\n        /* \"#utility.yul\":10030:10449   */\n      swap2\n      swap1\n      pop\n      jump\t// out\n        /* \"#utility.yul\":10455:10678   */\n    tag_248:\n        /* \"#utility.yul\":10595:10629   */\n      0x45524332303a20617070726f76652066726f6d20746865207a65726f20616464\n        /* \"#utility.yul\":10591:10592   */\n      0x00\n        /* \"#utility.yul\":10583:10589   */\n      dup3\n        /* \"#utility.yul\":10579:10593   */\n      add\n        /* \"#utility.yul\":10572:10630   */\n      mstore\n        /* \"#utility.yul\":10664:10670   */\n      0x7265737300000000000000000000000000000000000000000000000000000000\n        /* \"#utility.yul\":10659:10661   */\n      0x20\n        /* \"#utility.yul\":10651:10657   */\n      dup3\n        /* \"#utility.yul\":10647:10662   */\n      add\n        /* \"#utility.yul\":10640:10671   */\n      mstore\n        /* \"#utility.yul\":10455:10678   */\n      pop\n      jump\t// out\n        /* \"#utility.yul\":10684:11050   */\n    tag_249:\n        /* \"#utility.yul\":10826:10829   */\n      0x00\n        /* \"#utility.yul\":10847:10914   */\n      tag_367\n        /* \"#utility.yul\":10911:10913   */\n      0x24\n        /* \"#utility.yul\":10906:10909   */\n      dup4\n        /* \"#utility.yul\":10847:10914   */\n      tag_225\n      jump\t// in\n    tag_367:\n        /* \"#utility.yul\":10840:10914   */\n      swap2\n      pop\n        /* \"#utility.yul\":10923:11016   */\n      tag_368\n        /* \"#utility.yul\":11012:11015   */\n      dup3\n        /* \"#utility.yul\":10923:11016   */\n      tag_248\n      jump\t// in\n    tag_368:\n        /* \"#utility.yul\":11041:11043   */\n      0x40\n        /* \"#utility.yul\":11036:11039   */\n      dup3\n        /* \"#utility.yul\":11032:11044   */\n      add\n        /* \"#utility.yul\":11025:11044   */\n      swap1\n      pop\n        /* \"#utility.yul\":10684:11050   */\n      swap2\n      swap1\n      pop\n      jump\t// out\n        /* \"#utility.yul\":11056:11475   */\n    tag_179:\n        /* \"#utility.yul\":11222:11226   */\n      0x00\n        /* \"#utility.yul\":11260:11262   */\n      0x20\n        /* \"#utility.yul\":11249:11258   */\n      dup3\n        /* \"#utility.yul\":11245:11263   */\n      add\n        /* \"#utility.yul\":11237:11263   */\n      swap1\n      pop\n        /* \"#utility.yul\":11309:11318   */\n      dup2\n        /* \"#utility.yul\":11303:11307   */\n      dup2\n        /* \"#utility.yul\":11299:11319   */\n      sub\n        /* \"#utility.yul\":11295:11296   */\n      0x00\n        /* \"#utility.yul\":11284:11293   */\n      dup4\n        /* \"#utility.yul\":11280:11297   */\n      add\n        /* \"#utility.yul\":11273:11320   */\n      mstore\n        /* \"#utility.yul\":11337:11468   */\n      tag_370\n        /* \"#utility.yul\":11463:11467   */\n      dup2\n        /* \"#utility.yul\":11337:11468   */\n      tag_249\n      jump\t// in\n    tag_370:\n        /* \"#utility.yul\":11329:11468   */\n      swap1\n      pop\n        /* \"#utility.yul\":11056:11475   */\n      swap2\n      swap1\n      pop\n      jump\t// out\n        /* \"#utility.yul\":11481:11702   */\n    tag_250:\n        /* \"#utility.yul\":11621:11655   */\n      0x45524332303a20617070726f766520746f20746865207a65726f206164647265\n        /* \"#utility.yul\":11617:11618   */\n      0x00\n        /* \"#utility.yul\":11609:11615   */\n      dup3\n        /* \"#utility.yul\":11605:11619   */\n      add\n        /* \"#utility.yul\":11598:11656   */\n      mstore\n        /* \"#utility.yul\":11690:11694   */\n      0x7373000000000000000000000000000000000000000000000000000000000000\n        /* \"#utility.yul\":11685:11687   */\n      0x20\n        /* \"#utility.yul\":11677:11683   */\n      dup3\n        /* \"#utility.yul\":11673:11688   */\n      add\n        /* \"#utility.yul\":11666:11695   */\n      mstore\n        /* \"#utility.yul\":11481:11702   */\n      pop\n      jump\t// out\n        /* \"#utility.yul\":11708:12074   */\n    tag_251:\n        /* \"#utility.yul\":11850:11853   */\n      0x00\n        /* \"#utility.yul\":11871:11938   */\n      tag_373\n        /* \"#utility.yul\":11935:11937   */\n      0x22\n        /* \"#utility.yul\":11930:11933   */\n      dup4\n        /* \"#utility.yul\":11871:11938   */\n      tag_225\n      jump\t// in\n    tag_373:\n        /* \"#utility.yul\":11864:11938   */\n      swap2\n      pop\n        /* \"#utility.yul\":11947:12040   */\n      tag_374\n        /* \"#utility.yul\":12036:12039   */\n      dup3\n        /* \"#utility.yul\":11947:12040   */\n      tag_250\n      jump\t// in\n    tag_374:\n        /* \"#utility.yul\":12065:12067   */\n      0x40\n        /* \"#utility.yul\":12060:12063   */\n      dup3\n        /* \"#utility.yul\":12056:12068   */\n      add\n        /* \"#utility.yul\":12049:12068   */\n      swap1\n      pop\n        /* \"#utility.yul\":11708:12074   */\n      swap2\n      swap1\n      pop\n      jump\t// out\n        /* \"#utility.yul\":12080:12499   */\n    tag_182:\n        /* \"#utility.yul\":12246:12250   */\n      0x00\n        /* \"#utility.yul\":12284:12286   */\n      0x20\n        /* \"#utility.yul\":12273:12282   */\n      dup3\n        /* \"#utility.yul\":12269:12287   */\n      add\n        /* \"#utility.yul\":12261:12287   */\n      swap1\n      pop\n        /* \"#utility.yul\":12333:12342   */\n      dup2\n        /* \"#utility.yul\":12327:12331   */\n      dup2\n        /* \"#utility.yul\":12323:12343   */\n      sub\n        /* \"#utility.yul\":12319:12320   */\n      0x00\n        /* \"#utility.yul\":12308:12317   */\n      dup4\n        /* \"#utility.yul\":12304:12321   */\n      add\n        /* \"#utility.yul\":12297:12344   */\n      mstore\n        /* \"#utility.yul\":12361:12492   */\n      tag_376\n        /* \"#utility.yul\":12487:12491   */\n      dup2\n        /* \"#utility.yul\":12361:12492   */\n      tag_251\n      jump\t// in\n    tag_376:\n        /* \"#utility.yul\":12353:12492   */\n      swap1\n      pop\n        /* \"#utility.yul\":12080:12499   */\n      swap2\n      swap1\n      pop\n      jump\t// out\n        /* \"#utility.yul\":12505:12684   */\n    tag_252:\n        /* \"#utility.yul\":12645:12676   */\n      0x45524332303a20696e73756666696369656e7420616c6c6f77616e6365000000\n        /* \"#utility.yul\":12641:12642   */\n      0x00\n        /* \"#utility.yul\":12633:12639   */\n      dup3\n        /* \"#utility.yul\":12629:12643   */\n      add\n        /* \"#utility.yul\":12622:12677   */\n      mstore\n        /* \"#utility.yul\":12505:12684   */\n      pop\n      jump\t// out\n        /* \"#utility.yul\":12690:13056   */\n    tag_253:\n        /* \"#utility.yul\":12832:12835   */\n      0x00\n        /* \"#utility.yul\":12853:12920   */\n      tag_379\n        /* \"#utility.yul\":12917:12919   */\n      0x1d\n        /* \"#utility.yul\":12912:12915   */\n      dup4\n        /* \"#utility.yul\":12853:12920   */\n      tag_225\n      jump\t// in\n    tag_379:\n        /* \"#utility.yul\":12846:12920   */\n      swap2\n      pop\n        /* \"#utility.yul\":12929:13022   */\n      tag_380\n        /* \"#utility.yul\":13018:13021   */\n      dup3\n        /* \"#utility.yul\":12929:13022   */\n      tag_252\n      jump\t// in\n    tag_380:\n        /* \"#utility.yul\":13047:13049   */\n      0x20\n        /* \"#utility.yul\":13042:13045   */\n      dup3\n        /* \"#utility.yul\":13038:13050   */\n      add\n        /* \"#utility.yul\":13031:13050   */\n      swap1\n      pop\n        /* \"#utility.yul\":12690:13056   */\n      swap2\n      swap1\n      pop\n      jump\t// out\n        /* \"#utility.yul\":13062:13481   */\n    tag_189:\n        /* \"#utility.yul\":13228:13232   */\n      0x00\n        /* \"#utility.yul\":13266:13268   */\n      0x20\n        /* \"#utility.yul\":13255:13264   */\n      dup3\n        /* \"#utility.yul\":13251:13269   */\n      add\n        /* \"#utility.yul\":13243:13269   */\n      swap1\n      pop\n        /* \"#utility.yul\":13315:13324   */\n      dup2\n        /* \"#utility.yul\":13309:13313   */\n      dup2\n        /* \"#utility.yul\":13305:13325   */\n      sub\n        /* \"#utility.yul\":13301:13302   */\n      0x00\n        /* \"#utility.yul\":13290:13299   */\n      dup4\n        /* \"#utility.yul\":13286:13303   */\n      add\n        /* \"#utility.yul\":13279:13326   */\n      mstore\n        /* \"#utility.yul\":13343:13474   */\n      tag_382\n        /* \"#utility.yul\":13469:13473   */\n      dup2\n        /* \"#utility.yul\":13343:13474   */\n      tag_253\n      jump\t// in\n    tag_382:\n        /* \"#utility.yul\":13335:13474   */\n      swap1\n      pop\n        /* \"#utility.yul\":13062:13481   */\n      swap2\n      swap1\n      pop\n      jump\t// out\n        /* \"#utility.yul\":13487:13711   */\n    tag_254:\n        /* \"#utility.yul\":13627:13661   */\n      0x45524332303a207472616e736665722066726f6d20746865207a65726f206164\n        /* \"#utility.yul\":13623:13624   */\n      0x00\n        /* \"#utility.yul\":13615:13621   */\n      dup3\n        /* \"#utility.yul\":13611:13625   */\n      add\n        /* \"#utility.yul\":13604:13662   */\n      mstore\n        /* \"#utility.yul\":13696:13703   */\n      0x6472657373000000000000000000000000000000000000000000000000000000\n        /* \"#utility.yul\":13691:13693   */\n      0x20\n        /* \"#utility.yul\":13683:13689   */\n      dup3\n        /* \"#utility.yul\":13679:13694   */\n      add\n        /* \"#utility.yul\":13672:13704   */\n      mstore\n        /* \"#utility.yul\":13487:13711   */\n      pop\n      jump\t// out\n        /* \"#utility.yul\":13717:14083   */\n    tag_255:\n        /* \"#utility.yul\":13859:13862   */\n      0x00\n        /* \"#utility.yul\":13880:13947   */\n      tag_385\n        /* \"#utility.yul\":13944:13946   */\n      0x25\n        /* \"#utility.yul\":13939:13942   */\n      dup4\n        /* \"#utility.yul\":13880:13947   */\n      tag_225\n      jump\t// in\n    tag_385:\n        /* \"#utility.yul\":13873:13947   */\n      swap2\n      pop\n        /* \"#utility.yul\":13956:14049   */\n      tag_386\n        /* \"#utility.yul\":14045:14048   */\n      dup3\n        /* \"#utility.yul\":13956:14049   */\n      tag_254\n      jump\t// in\n    tag_386:\n        /* \"#utility.yul\":14074:14076   */\n      0x40\n        /* \"#utility.yul\":14069:14072   */\n      dup3\n        /* \"#utility.yul\":14065:14077   */\n      add\n        /* \"#utility.yul\":14058:14077   */\n      swap1\n      pop\n        /* \"#utility.yul\":13717:14083   */\n      swap2\n      swap1\n      pop\n      jump\t// out\n        /* \"#utility.yul\":14089:14508   */\n    tag_194:\n        /* \"#utility.yul\":14255:14259   */\n      0x00\n        /* \"#utility.yul\":14293:14295   */\n      0x20\n        /* \"#utility.yul\":14282:14291   */\n      dup3\n        /* \"#utility.yul\":14278:14296   */\n      add\n        /* \"#utility.yul\":14270:14296   */\n      swap1\n      pop\n        /* \"#utility.yul\":14342:14351   */\n      dup2\n        /* \"#utility.yul\":14336:14340   */\n      dup2\n        /* \"#utility.yul\":14332:14352   */\n      sub\n        /* \"#utility.yul\":14328:14329   */\n      0x00\n        /* \"#utility.yul\":14317:14326   */\n      dup4\n        /* \"#utility.yul\":14313:14330   */\n      add\n        /* \"#utility.yul\":14306:14353   */\n      mstore\n        /* \"#utility.yul\":14370:14501   */\n      tag_388\n        /* \"#utility.yul\":14496:14500   */\n      dup2\n        /* \"#utility.yul\":14370:14501   */\n      tag_255\n      jump\t// in\n    tag_388:\n        /* \"#utility.yul\":14362:14501   */\n      swap1\n      pop\n        /* \"#utility.yul\":14089:14508   */\n      swap2\n      swap1\n      pop\n      jump\t// out\n        /* \"#utility.yul\":14514:14736   */\n    tag_256:\n        /* \"#utility.yul\":14654:14688   */\n      0x45524332303a207472616e7366657220746f20746865207a65726f2061646472\n        /* \"#utility.yul\":14650:14651   */\n      0x00\n        /* \"#utility.yul\":14642:14648   */\n      dup3\n        /* \"#utility.yul\":14638:14652   */\n      add\n        /* \"#utility.yul\":14631:14689   */\n      mstore\n        /* \"#utility.yul\":14723:14728   */\n      0x6573730000000000000000000000000000000000000000000000000000000000\n        /* \"#utility.yul\":14718:14720   */\n      0x20\n        /* \"#utility.yul\":14710:14716   */\n      dup3\n        /* \"#utility.yul\":14706:14721   */\n      add\n        /* \"#utility.yul\":14699:14729   */\n      mstore\n        /* \"#utility.yul\":14514:14736   */\n      pop\n      jump\t// out\n        /* \"#utility.yul\":14742:15108   */\n    tag_257:\n        /* \"#utility.yul\":14884:14887   */\n      0x00\n        /* \"#utility.yul\":14905:14972   */\n      tag_391\n        /* \"#utility.yul\":14969:14971   */\n      0x23\n        /* \"#utility.yul\":14964:14967   */\n      dup4\n        /* \"#utility.yul\":14905:14972   */\n      tag_225\n      jump\t// in\n    tag_391:\n        /* \"#utility.yul\":14898:14972   */\n      swap2\n      pop\n        /* \"#utility.yul\":14981:15074   */\n      tag_392\n        /* \"#utility.yul\":15070:15073   */\n      dup3\n        /* \"#utility.yul\":14981:15074   */\n      tag_256\n      jump\t// in\n    tag_392:\n        /* \"#utility.yul\":15099:15101   */\n      0x40\n        /* \"#utility.yul\":15094:15097   */\n      dup3\n        /* \"#utility.yul\":15090:15102   */\n      add\n        /* \"#utility.yul\":15083:15102   */\n      swap1\n      pop\n        /* \"#utility.yul\":14742:15108   */\n      swap2\n      swap1\n      pop\n      jump\t// out\n        /* \"#utility.yul\":15114:15533   */\n    tag_197:\n        /* \"#utility.yul\":15280:15284   */\n      0x00\n        /* \"#utility.yul\":15318:15320   */\n      0x20\n        /* \"#utility.yul\":15307:15316   */\n      dup3\n        /* \"#utility.yul\":15303:15321   */\n      add\n        /* \"#utility.yul\":15295:15321   */\n      swap1\n      pop\n        /* \"#utility.yul\":15367:15376   */\n      dup2\n        /* \"#utility.yul\":15361:15365   */\n      dup2\n        /* \"#utility.yul\":15357:15377   */\n      sub\n        /* \"#utility.yul\":15353:15354   */\n      0x00\n        /* \"#utility.yul\":15342:15351   */\n      dup4\n        /* \"#utility.yul\":15338:15355   */\n      add\n        /* \"#utility.yul\":15331:15378   */\n      mstore\n        /* \"#utility.yul\":15395:15526   */\n      tag_394\n        /* \"#utility.yul\":15521:15525   */\n      dup2\n        /* \"#utility.yul\":15395:15526   */\n      tag_257\n      jump\t// in\n    tag_394:\n        /* \"#utility.yul\":15387:15526   */\n      swap1\n      pop\n        /* \"#utility.yul\":15114:15533   */\n      swap2\n      swap1\n      pop\n      jump\t// out\n        /* \"#utility.yul\":15539:15764   */\n    tag_258:\n        /* \"#utility.yul\":15679:15713   */\n      0x45524332303a207472616e7366657220616d6f756e7420657863656564732062\n        /* \"#utility.yul\":15675:15676   */\n      0x00\n        /* \"#utility.yul\":15667:15673   */\n      dup3\n        /* \"#utility.yul\":15663:15677   */\n      add\n        /* \"#utility.yul\":15656:15714   */\n      mstore\n        /* \"#utility.yul\":15748:15756   */\n      0x616c616e63650000000000000000000000000000000000000000000000000000\n        /* \"#utility.yul\":15743:15745   */\n      0x20\n        /* \"#utility.yul\":15735:15741   */\n      dup3\n        /* \"#utility.yul\":15731:15746   */\n      add\n        /* \"#utility.yul\":15724:15757   */\n      mstore\n        /* \"#utility.yul\":15539:15764   */\n      pop\n      jump\t// out\n        /* \"#utility.yul\":15770:16136   */\n    tag_259:\n        /* \"#utility.yul\":15912:15915   */\n      0x00\n        /* \"#utility.yul\":15933:16000   */\n      tag_397\n        /* \"#utility.yul\":15997:15999   */\n      0x26\n        /* \"#utility.yul\":15992:15995   */\n      dup4\n        /* \"#utility.yul\":15933:16000   */\n      tag_225\n      jump\t// in\n    tag_397:\n        /* \"#utility.yul\":15926:16000   */\n      swap2\n      pop\n        /* \"#utility.yul\":16009:16102   */\n      tag_398\n        /* \"#utility.yul\":16098:16101   */\n      dup3\n        /* \"#utility.yul\":16009:16102   */\n      tag_258\n      jump\t// in\n    tag_398:\n        /* \"#utility.yul\":16127:16129   */\n      0x40\n        /* \"#utility.yul\":16122:16125   */\n      dup3\n        /* \"#utility.yul\":16118:16130   */\n      add\n        /* \"#utility.yul\":16111:16130   */\n      swap1\n      pop\n        /* \"#utility.yul\":15770:16136   */\n      swap2\n      swap1\n      pop\n      jump\t// out\n        /* \"#utility.yul\":16142:16561   */\n    tag_202:\n        /* \"#utility.yul\":16308:16312   */\n      0x00\n        /* \"#utility.yul\":16346:16348   */\n      0x20\n        /* \"#utility.yul\":16335:16344   */\n      dup3\n        /* \"#utility.yul\":16331:16349   */\n      add\n        /* \"#utility.yul\":16323:16349   */\n      swap1\n      pop\n        /* \"#utility.yul\":16395:16404   */\n      dup2\n        /* \"#utility.yul\":16389:16393   */\n      dup2\n        /* \"#utility.yul\":16385:16405   */\n      sub\n        /* \"#utility.yul\":16381:16382   */\n      0x00\n        /* \"#utility.yul\":16370:16379   */\n      dup4\n        /* \"#utility.yul\":16366:16383   */\n      add\n        /* \"#utility.yul\":16359:16406   */\n      mstore\n        /* \"#utility.yul\":16423:16554   */\n      tag_400\n        /* \"#utility.yul\":16549:16553   */\n      dup2\n        /* \"#utility.yul\":16423:16554   */\n      tag_259\n      jump\t// in\n    tag_400:\n        /* \"#utility.yul\":16415:16554   */\n      swap1\n      pop\n        /* \"#utility.yul\":16142:16561   */\n      swap2\n      swap1\n      pop\n      jump\t// out\n        /* \"#utility.yul\":16567:16748   */\n    tag_260:\n        /* \"#utility.yul\":16707:16740   */\n      0x45524332303a206d696e7420746f20746865207a65726f206164647265737300\n        /* \"#utility.yul\":16703:16704   */\n      0x00\n        /* \"#utility.yul\":16695:16701   */\n      dup3\n        /* \"#utility.yul\":16691:16705   */\n      add\n        /* \"#utility.yul\":16684:16741   */\n      mstore\n        /* \"#utility.yul\":16567:16748   */\n      pop\n      jump\t// out\n        /* \"#utility.yul\":16754:17120   */\n    tag_261:\n        /* \"#utility.yul\":16896:16899   */\n      0x00\n        /* \"#utility.yul\":16917:16984   */\n      tag_403\n        /* \"#utility.yul\":16981:16983   */\n      0x1f\n        /* \"#utility.yul\":16976:16979   */\n      dup4\n        /* \"#utility.yul\":16917:16984   */\n      tag_225\n      jump\t// in\n    tag_403:\n        /* \"#utility.yul\":16910:16984   */\n      swap2\n      pop\n        /* \"#utility.yul\":16993:17086   */\n      tag_404\n        /* \"#utility.yul\":17082:17085   */\n      dup3\n        /* \"#utility.yul\":16993:17086   */\n      tag_260\n      jump\t// in\n    tag_404:\n        /* \"#utility.yul\":17111:17113   */\n      0x20\n        /* \"#utility.yul\":17106:17109   */\n      dup3\n        /* \"#utility.yul\":17102:17114   */\n      add\n        /* \"#utility.yul\":17095:17114   */\n      swap1\n      pop\n        /* \"#utility.yul\":16754:17120   */\n      swap2\n      swap1\n      pop\n      jump\t// out\n        /* \"#utility.yul\":17126:17545   */\n    tag_210:\n        /* \"#utility.yul\":17292:17296   */\n      0x00\n        /* \"#utility.yul\":17330:17332   */\n      0x20\n        /* \"#utility.yul\":17319:17328   */\n      dup3\n        /* \"#utility.yul\":17315:17333   */\n      add\n        /* \"#utility.yul\":17307:17333   */\n      swap1\n      pop\n        /* \"#utility.yul\":17379:17388   */\n      dup2\n        /* \"#utility.yul\":17373:17377   */\n      dup2\n        /* \"#utility.yul\":17369:17389   */\n      sub\n        /* \"#utility.yul\":17365:17366   */\n      0x00\n        /* \"#utility.yul\":17354:17363   */\n      dup4\n        /* \"#utility.yul\":17350:17367   */\n      add\n        /* \"#utility.yul\":17343:17390   */\n      mstore\n        /* \"#utility.yul\":17407:17538   */\n      tag_406\n        /* \"#utility.yul\":17533:17537   */\n      dup2\n        /* \"#utility.yul\":17407:17538   */\n      tag_261\n      jump\t// in\n    tag_406:\n        /* \"#utility.yul\":17399:17538   */\n      swap1\n      pop\n        /* \"#utility.yul\":17126:17545   */\n      swap2\n      swap1\n      pop\n      jump\t// out\n\n    auxdata: 0xa2646970667358221220c279684d68f668bb9f470a3e7e69b3f6c21c55d4c10e17a9296729cfafa5844b64736f6c634300080d0033\n}\n",
				"bytecode": {
					"linkReferences": {},
					"object": "6080604052620000146200014760201b60201c565b600a620000229190620005ea565b6103e86200003191906200063b565b6006553480156200004157600080fd5b506040518060400160405280600a81526020017f536c757368546f6b656e000000000000000000000000000000000000000000008152506040518060400160405280600381526020017f534c4b00000000000000000000000000000000000000000000000000000000008152508160039080519060200190620000c6929190620003a0565b508060049080519060200190620000df929190620003a0565b50505062000102620000f66200015060201b60201c565b6200015860201b60201c565b6200014133620001176200014760201b60201c565b600a620001259190620005ea565b620f42406200013591906200063b565b6200021e60201b60201c565b6200080e565b60006012905090565b600033905090565b6000600560009054906101000a900473ffffffffffffffffffffffffffffffffffffffff16905081600560006101000a81548173ffffffffffffffffffffffffffffffffffffffff021916908373ffffffffffffffffffffffffffffffffffffffff1602179055508173ffffffffffffffffffffffffffffffffffffffff168173ffffffffffffffffffffffffffffffffffffffff167f8be0079c531659141344cd1fd0a4f28419497f9722a3daafe3b4186f6b6457e060405160405180910390a35050565b600073ffffffffffffffffffffffffffffffffffffffff168273ffffffffffffffffffffffffffffffffffffffff160362000290576040517f08c379a00000000000000000000000000000000000000000000000000000000081526004016200028790620006fd565b60405180910390fd5b620002a4600083836200039660201b60201c565b8060026000828254620002b891906200071f565b92505081905550806000808473ffffffffffffffffffffffffffffffffffffffff1673ffffffffffffffffffffffffffffffffffffffff16815260200190815260200160002060008282546200030f91906200071f565b925050819055508173ffffffffffffffffffffffffffffffffffffffff16600073ffffffffffffffffffffffffffffffffffffffff167fddf252ad1be2c89b69c2b068fc378daa952ba7f163c4a11628f55a4df523b3ef836040516200037691906200078d565b60405180910390a362000392600083836200039b60201b60201c565b5050565b505050565b505050565b828054620003ae90620007d9565b90600052602060002090601f016020900481019282620003d257600085556200041e565b82601f10620003ed57805160ff19168380011785556200041e565b828001600101855582156200041e579182015b828111156200041d57825182559160200191906001019062000400565b5b5090506200042d919062000431565b5090565b5b808211156200044c57600081600090555060010162000432565b5090565b7f4e487b7100000000000000000000000000000000000000000000000000000000600052601160045260246000fd5b60008160011c9050919050565b6000808291508390505b6001851115620004de57808604811115620004b657620004b562000450565b5b6001851615620004c65780820291505b8081029050620004d6856200047f565b945062000496565b94509492505050565b600082620004f95760019050620005cc565b81620005095760009050620005cc565b81600181146200052257600281146200052d5762000563565b6001915050620005cc565b60ff84111562000542576200054162000450565b5b8360020a9150848211156200055c576200055b62000450565b5b50620005cc565b5060208310610133831016604e8410600b84101617156200059d5782820a90508381111562000597576200059662000450565b5b620005cc565b620005ac84848460016200048c565b92509050818404811115620005c657620005c562000450565b5b81810290505b9392505050565b6000819050919050565b600060ff82169050919050565b6000620005f782620005d3565b91506200060483620005dd565b9250620006337fffffffffffffffffffffffffffffffffffffffffffffffffffffffffffffffff8484620004e7565b905092915050565b60006200064882620005d3565b91506200065583620005d3565b9250817fffffffffffffffffffffffffffffffffffffffffffffffffffffffffffffffff048311821515161562000691576200069062000450565b5b828202905092915050565b600082825260208201905092915050565b7f45524332303a206d696e7420746f20746865207a65726f206164647265737300600082015250565b6000620006e5601f836200069c565b9150620006f282620006ad565b602082019050919050565b600060208201905081810360008301526200071881620006d6565b9050919050565b60006200072c82620005d3565b91506200073983620005d3565b9250827fffffffffffffffffffffffffffffffffffffffffffffffffffffffffffffffff0382111562000771576200077062000450565b5b828201905092915050565b6200078781620005d3565b82525050565b6000602082019050620007a460008301846200077c565b92915050565b7f4e487b7100000000000000000000000000000000000000000000000000000000600052602260045260246000fd5b60006002820490506001821680620007f257607f821691505b602082108103620008085762000807620007aa565b5b50919050565b611b40806200081e6000396000f3fe6080604052600436106100f75760003560e01c806370a082311161008a578063a457c2d711610059578063a457c2d714610372578063a9059cbb146103af578063dd62ed3e146103ec578063f2fde38b1461042957610137565b806370a08231146102c8578063715018a6146103055780638da5cb5b1461031c57806395d89b411461034757610137565b80632c4e722e116100c65780632c4e722e1461020c578063313ce56714610237578063395093511461026257806340c10f191461029f57610137565b806306fdde031461013c578063095ea7b31461016757806318160ddd146101a457806323b872dd146101cf57610137565b36610137577f68f8fc10c7e0ab26c19e8620918d8d6964a0a10f0a9ac17833a58e5f9ed3e233333460405161012d9291906111ff565b60405180910390a1005b600080fd5b34801561014857600080fd5b50610151610452565b60405161015e91906112c1565b60405180910390f35b34801561017357600080fd5b5061018e60048036038101906101899190611340565b6104e4565b60405161019b919061139b565b60405180910390f35b3480156101b057600080fd5b506101b9610507565b6040516101c691906113b6565b60405180910390f35b3480156101db57600080fd5b506101f660048036038101906101f191906113d1565b610511565b604051610203919061139b565b60405180910390f35b34801561021857600080fd5b50610221610540565b60405161022e91906113b6565b60405180910390f35b34801561024357600080fd5b5061024c610546565b6040516102599190611440565b60405180910390f35b34801561026e57600080fd5b5061028960048036038101906102849190611340565b61054f565b604051610296919061139b565b60405180910390f35b3480156102ab57600080fd5b506102c660048036038101906102c19190611340565b6105f9565b005b3480156102d457600080fd5b506102ef60048036038101906102ea919061145b565b610683565b6040516102fc91906113b6565b60405180910390f35b34801561031157600080fd5b5061031a6106cb565b005b34801561032857600080fd5b50610331610753565b60405161033e9190611488565b60405180910390f35b34801561035357600080fd5b5061035c61077d565b60405161036991906112c1565b60405180910390f35b34801561037e57600080fd5b5061039960048036038101906103949190611340565b61080f565b6040516103a6919061139b565b60405180910390f35b3480156103bb57600080fd5b506103d660048036038101906103d19190611340565b6108f9565b6040516103e3919061139b565b60405180910390f35b3480156103f857600080fd5b50610413600480360381019061040e91906114a3565b61091c565b60405161042091906113b6565b60405180910390f35b34801561043557600080fd5b50610450600480360381019061044b919061145b565b6109a3565b005b60606003805461046190611512565b80601f016020809104026020016040519081016040528092919081815260200182805461048d90611512565b80156104da5780601f106104af576101008083540402835291602001916104da565b820191906000526020600020905b8154815290600101906020018083116104bd57829003601f168201915b5050505050905090565b6000806104ef610a9a565b90506104fc818585610aa2565b600191505092915050565b6000600254905090565b60008061051c610a9a565b9050610529858285610c6b565b610534858585610cf7565b60019150509392505050565b60065481565b60006012905090565b60008061055a610a9a565b90506105ee818585600160008673ffffffffffffffffffffffffffffffffffffffff1673ffffffffffffffffffffffffffffffffffffffff16815260200190815260200160002060008973ffffffffffffffffffffffffffffffffffffffff1673ffffffffffffffffffffffffffffffffffffffff168152602001908152602001600020546105e99190611572565b610aa2565b600191505092915050565b610601610a9a565b73ffffffffffffffffffffffffffffffffffffffff1661061f610753565b73ffffffffffffffffffffffffffffffffffffffff1614610675576040517f08c379a000000000000000000000000000000000000000000000000000000000815260040161066c90611614565b60405180910390fd5b61067f8282610f76565b5050565b60008060008373ffffffffffffffffffffffffffffffffffffffff1673ffffffffffffffffffffffffffffffffffffffff168152602001908152602001600020549050919050565b6106d3610a9a565b73ffffffffffffffffffffffffffffffffffffffff166106f1610753565b73ffffffffffffffffffffffffffffffffffffffff1614610747576040517f08c379a000000000000000000000000000000000000000000000000000000000815260040161073e90611614565b60405180910390fd5b61075160006110d5565b565b6000600560009054906101000a900473ffffffffffffffffffffffffffffffffffffffff16905090565b60606004805461078c90611512565b80601f01602080910402602001604051908101604052809291908181526020018280546107b890611512565b80156108055780601f106107da57610100808354040283529160200191610805565b820191906000526020600020905b8154815290600101906020018083116107e857829003601f168201915b5050505050905090565b60008061081a610a9a565b90506000600160008373ffffffffffffffffffffffffffffffffffffffff1673ffffffffffffffffffffffffffffffffffffffff16815260200190815260200160002060008673ffffffffffffffffffffffffffffffffffffffff1673ffffffffffffffffffffffffffffffffffffffff168152602001908152602001600020549050838110156108e0576040517f08c379a00000000000000000000000000000000000000000000000000000000081526004016108d7906116a6565b60405180910390fd5b6108ed8286868403610aa2565b60019250505092915050565b600080610904610a9a565b9050610911818585610cf7565b600191505092915050565b6000600160008473ffffffffffffffffffffffffffffffffffffffff1673ffffffffffffffffffffffffffffffffffffffff16815260200190815260200160002060008373ffffffffffffffffffffffffffffffffffffffff1673ffffffffffffffffffffffffffffffffffffffff16815260200190815260200160002054905092915050565b6109ab610a9a565b73ffffffffffffffffffffffffffffffffffffffff166109c9610753565b73ffffffffffffffffffffffffffffffffffffffff1614610a1f576040517f08c379a0000000000000000000000000000000000000000000000000000000008152600401610a1690611614565b60405180910390fd5b600073ffffffffffffffffffffffffffffffffffffffff168173ffffffffffffffffffffffffffffffffffffffff1603610a8e576040517f08c379a0000000000000000000000000000000000000000000000000000000008152600401610a8590611738565b60405180910390fd5b610a97816110d5565b50565b600033905090565b600073ffffffffffffffffffffffffffffffffffffffff168373ffffffffffffffffffffffffffffffffffffffff1603610b11576040517f08c379a0000000000000000000000000000000000000000000000000000000008152600401610b08906117ca565b60405180910390fd5b600073ffffffffffffffffffffffffffffffffffffffff168273ffffffffffffffffffffffffffffffffffffffff1603610b80576040517f08c379a0000000000000000000000000000000000000000000000000000000008152600401610b779061185c565b60405180910390fd5b80600160008573ffffffffffffffffffffffffffffffffffffffff1673ffffffffffffffffffffffffffffffffffffffff16815260200190815260200160002060008473ffffffffffffffffffffffffffffffffffffffff1673ffffffffffffffffffffffffffffffffffffffff168152602001908152602001600020819055508173ffffffffffffffffffffffffffffffffffffffff168373ffffffffffffffffffffffffffffffffffffffff167f8c5be1e5ebec7d5bd14f71427d1e84f3dd0314c0f7b2291e5b200ac8c7c3b92583604051610c5e91906113b6565b60405180910390a3505050565b6000610c77848461091c565b90507fffffffffffffffffffffffffffffffffffffffffffffffffffffffffffffffff8114610cf15781811015610ce3576040517f08c379a0000000000000000000000000000000000000000000000000000000008152600401610cda906118c8565b60405180910390fd5b610cf08484848403610aa2565b5b50505050565b600073ffffffffffffffffffffffffffffffffffffffff168373ffffffffffffffffffffffffffffffffffffffff1603610d66576040517f08c379a0000000000000000000000000000000000000000000000000000000008152600401610d5d9061195a565b60405180910390fd5b600073ffffffffffffffffffffffffffffffffffffffff168273ffffffffffffffffffffffffffffffffffffffff1603610dd5576040517f08c379a0000000000000000000000000000000000000000000000000000000008152600401610dcc906119ec565b60405180910390fd5b610de083838361119b565b60008060008573ffffffffffffffffffffffffffffffffffffffff1673ffffffffffffffffffffffffffffffffffffffff16815260200190815260200160002054905081811015610e66576040517f08c379a0000000000000000000000000000000000000000000000000000000008152600401610e5d90611a7e565b60405180910390fd5b8181036000808673ffffffffffffffffffffffffffffffffffffffff1673ffffffffffffffffffffffffffffffffffffffff16815260200190815260200160002081905550816000808573ffffffffffffffffffffffffffffffffffffffff1673ffffffffffffffffffffffffffffffffffffffff1681526020019081526020016000206000828254610ef99190611572565b925050819055508273ffffffffffffffffffffffffffffffffffffffff168473ffffffffffffffffffffffffffffffffffffffff167fddf252ad1be2c89b69c2b068fc378daa952ba7f163c4a11628f55a4df523b3ef84604051610f5d91906113b6565b60405180910390a3610f708484846111a0565b50505050565b600073ffffffffffffffffffffffffffffffffffffffff168273ffffffffffffffffffffffffffffffffffffffff1603610fe5576040517f08c379a0000000000000000000000000000000000000000000000000000000008152600401610fdc90611aea565b60405180910390fd5b610ff16000838361119b565b80600260008282546110039190611572565b92505081905550806000808473ffffffffffffffffffffffffffffffffffffffff1673ffffffffffffffffffffffffffffffffffffffff16815260200190815260200160002060008282546110589190611572565b925050819055508173ffffffffffffffffffffffffffffffffffffffff16600073ffffffffffffffffffffffffffffffffffffffff167fddf252ad1be2c89b69c2b068fc378daa952ba7f163c4a11628f55a4df523b3ef836040516110bd91906113b6565b60405180910390a36110d1600083836111a0565b5050565b6000600560009054906101000a900473ffffffffffffffffffffffffffffffffffffffff16905081600560006101000a81548173ffffffffffffffffffffffffffffffffffffffff021916908373ffffffffffffffffffffffffffffffffffffffff1602179055508173ffffffffffffffffffffffffffffffffffffffff168173ffffffffffffffffffffffffffffffffffffffff167f8be0079c531659141344cd1fd0a4f28419497f9722a3daafe3b4186f6b6457e060405160405180910390a35050565b505050565b505050565b600073ffffffffffffffffffffffffffffffffffffffff82169050919050565b60006111d0826111a5565b9050919050565b6111e0816111c5565b82525050565b6000819050919050565b6111f9816111e6565b82525050565b600060408201905061121460008301856111d7565b61122160208301846111f0565b9392505050565b600081519050919050565b600082825260208201905092915050565b60005b83811015611262578082015181840152602081019050611247565b83811115611271576000848401525b50505050565b6000601f19601f8301169050919050565b600061129382611228565b61129d8185611233565b93506112ad818560208601611244565b6112b681611277565b840191505092915050565b600060208201905081810360008301526112db8184611288565b905092915050565b600080fd5b6112f1816111c5565b81146112fc57600080fd5b50565b60008135905061130e816112e8565b92915050565b61131d816111e6565b811461132857600080fd5b50565b60008135905061133a81611314565b92915050565b60008060408385031215611357576113566112e3565b5b6000611365858286016112ff565b92505060206113768582860161132b565b9150509250929050565b60008115159050919050565b61139581611380565b82525050565b60006020820190506113b0600083018461138c565b92915050565b60006020820190506113cb60008301846111f0565b92915050565b6000806000606084860312156113ea576113e96112e3565b5b60006113f8868287016112ff565b9350506020611409868287016112ff565b925050604061141a8682870161132b565b9150509250925092565b600060ff82169050919050565b61143a81611424565b82525050565b60006020820190506114556000830184611431565b92915050565b600060208284031215611471576114706112e3565b5b600061147f848285016112ff565b91505092915050565b600060208201905061149d60008301846111d7565b92915050565b600080604083850312156114ba576114b96112e3565b5b60006114c8858286016112ff565b92505060206114d9858286016112ff565b9150509250929050565b7f4e487b7100000000000000000000000000000000000000000000000000000000600052602260045260246000fd5b6000600282049050600182168061152a57607f821691505b60208210810361153d5761153c6114e3565b5b50919050565b7f4e487b7100000000000000000000000000000000000000000000000000000000600052601160045260246000fd5b600061157d826111e6565b9150611588836111e6565b9250827fffffffffffffffffffffffffffffffffffffffffffffffffffffffffffffffff038211156115bd576115bc611543565b5b828201905092915050565b7f4f776e61626c653a2063616c6c6572206973206e6f7420746865206f776e6572600082015250565b60006115fe602083611233565b9150611609826115c8565b602082019050919050565b6000602082019050818103600083015261162d816115f1565b9050919050565b7f45524332303a2064656372656173656420616c6c6f77616e63652062656c6f7760008201527f207a65726f000000000000000000000000000000000000000000000000000000602082015250565b6000611690602583611233565b915061169b82611634565b604082019050919050565b600060208201905081810360008301526116bf81611683565b9050919050565b7f4f776e61626c653a206e6577206f776e657220697320746865207a65726f206160008201527f6464726573730000000000000000000000000000000000000000000000000000602082015250565b6000611722602683611233565b915061172d826116c6565b604082019050919050565b6000602082019050818103600083015261175181611715565b9050919050565b7f45524332303a20617070726f76652066726f6d20746865207a65726f2061646460008201527f7265737300000000000000000000000000000000000000000000000000000000602082015250565b60006117b4602483611233565b91506117bf82611758565b604082019050919050565b600060208201905081810360008301526117e3816117a7565b9050919050565b7f45524332303a20617070726f766520746f20746865207a65726f20616464726560008201527f7373000000000000000000000000000000000000000000000000000000000000602082015250565b6000611846602283611233565b9150611851826117ea565b604082019050919050565b6000602082019050818103600083015261187581611839565b9050919050565b7f45524332303a20696e73756666696369656e7420616c6c6f77616e6365000000600082015250565b60006118b2601d83611233565b91506118bd8261187c565b602082019050919050565b600060208201905081810360008301526118e1816118a5565b9050919050565b7f45524332303a207472616e736665722066726f6d20746865207a65726f20616460008201527f6472657373000000000000000000000000000000000000000000000000000000602082015250565b6000611944602583611233565b915061194f826118e8565b604082019050919050565b6000602082019050818103600083015261197381611937565b9050919050565b7f45524332303a207472616e7366657220746f20746865207a65726f206164647260008201527f6573730000000000000000000000000000000000000000000000000000000000602082015250565b60006119d6602383611233565b91506119e18261197a565b604082019050919050565b60006020820190508181036000830152611a05816119c9565b9050919050565b7f45524332303a207472616e7366657220616d6f756e742065786365656473206260008201527f616c616e63650000000000000000000000000000000000000000000000000000602082015250565b6000611a68602683611233565b9150611a7382611a0c565b604082019050919050565b60006020820190508181036000830152611a9781611a5b565b9050919050565b7f45524332303a206d696e7420746f20746865207a65726f206164647265737300600082015250565b6000611ad4601f83611233565b9150611adf82611a9e565b602082019050919050565b60006020820190508181036000830152611b0381611ac7565b905091905056fea2646970667358221220c279684d68f668bb9f470a3e7e69b3f6c21c55d4c10e17a9296729cfafa5844b64736f6c634300080d0033",
					"opcodes": "PUSH1 0x80 PUSH1 0x40 MSTORE PUSH3 0x14 PUSH3 0x147 PUSH1 0x20 SHL PUSH1 0x20 SHR JUMP JUMPDEST PUSH1 0xA PUSH3 0x22 SWAP2 SWAP1 PUSH3 0x5EA JUMP JUMPDEST PUSH2 0x3E8 PUSH3 0x31 SWAP2 SWAP1 PUSH3 0x63B JUMP JUMPDEST PUSH1 0x6 SSTORE CALLVALUE DUP1 ISZERO PUSH3 0x41 JUMPI PUSH1 0x0 DUP1 REVERT JUMPDEST POP PUSH1 0x40 MLOAD DUP1 PUSH1 0x40 ADD PUSH1 0x40 MSTORE DUP1 PUSH1 0xA DUP2 MSTORE PUSH1 0x20 ADD PUSH32 0x536C757368546F6B656E00000000000000000000000000000000000000000000 DUP2 MSTORE POP PUSH1 0x40 MLOAD DUP1 PUSH1 0x40 ADD PUSH1 0x40 MSTORE DUP1 PUSH1 0x3 DUP2 MSTORE PUSH1 0x20 ADD PUSH32 0x534C4B0000000000000000000000000000000000000000000000000000000000 DUP2 MSTORE POP DUP2 PUSH1 0x3 SWAP1 DUP1 MLOAD SWAP1 PUSH1 0x20 ADD SWAP1 PUSH3 0xC6 SWAP3 SWAP2 SWAP1 PUSH3 0x3A0 JUMP JUMPDEST POP DUP1 PUSH1 0x4 SWAP1 DUP1 MLOAD SWAP1 PUSH1 0x20 ADD SWAP1 PUSH3 0xDF SWAP3 SWAP2 SWAP1 PUSH3 0x3A0 JUMP JUMPDEST POP POP POP PUSH3 0x102 PUSH3 0xF6 PUSH3 0x150 PUSH1 0x20 SHL PUSH1 0x20 SHR JUMP JUMPDEST PUSH3 0x158 PUSH1 0x20 SHL PUSH1 0x20 SHR JUMP JUMPDEST PUSH3 0x141 CALLER PUSH3 0x117 PUSH3 0x147 PUSH1 0x20 SHL PUSH1 0x20 SHR JUMP JUMPDEST PUSH1 0xA PUSH3 0x125 SWAP2 SWAP1 PUSH3 0x5EA JUMP JUMPDEST PUSH3 0xF4240 PUSH3 0x135 SWAP2 SWAP1 PUSH3 0x63B JUMP JUMPDEST PUSH3 0x21E PUSH1 0x20 SHL PUSH1 0x20 SHR JUMP JUMPDEST PUSH3 0x80E JUMP JUMPDEST PUSH1 0x0 PUSH1 0x12 SWAP1 POP SWAP1 JUMP JUMPDEST PUSH1 0x0 CALLER SWAP1 POP SWAP1 JUMP JUMPDEST PUSH1 0x0 PUSH1 0x5 PUSH1 0x0 SWAP1 SLOAD SWAP1 PUSH2 0x100 EXP SWAP1 DIV PUSH20 0xFFFFFFFFFFFFFFFFFFFFFFFFFFFFFFFFFFFFFFFF AND SWAP1 POP DUP2 PUSH1 0x5 PUSH1 0x0 PUSH2 0x100 EXP DUP2 SLOAD DUP2 PUSH20 0xFFFFFFFFFFFFFFFFFFFFFFFFFFFFFFFFFFFFFFFF MUL NOT AND SWAP1 DUP4 PUSH20 0xFFFFFFFFFFFFFFFFFFFFFFFFFFFFFFFFFFFFFFFF AND MUL OR SWAP1 SSTORE POP DUP2 PUSH20 0xFFFFFFFFFFFFFFFFFFFFFFFFFFFFFFFFFFFFFFFF AND DUP2 PUSH20 0xFFFFFFFFFFFFFFFFFFFFFFFFFFFFFFFFFFFFFFFF AND PUSH32 0x8BE0079C531659141344CD1FD0A4F28419497F9722A3DAAFE3B4186F6B6457E0 PUSH1 0x40 MLOAD PUSH1 0x40 MLOAD DUP1 SWAP2 SUB SWAP1 LOG3 POP POP JUMP JUMPDEST PUSH1 0x0 PUSH20 0xFFFFFFFFFFFFFFFFFFFFFFFFFFFFFFFFFFFFFFFF AND DUP3 PUSH20 0xFFFFFFFFFFFFFFFFFFFFFFFFFFFFFFFFFFFFFFFF AND SUB PUSH3 0x290 JUMPI PUSH1 0x40 MLOAD PUSH32 0x8C379A000000000000000000000000000000000000000000000000000000000 DUP2 MSTORE PUSH1 0x4 ADD PUSH3 0x287 SWAP1 PUSH3 0x6FD JUMP JUMPDEST PUSH1 0x40 MLOAD DUP1 SWAP2 SUB SWAP1 REVERT JUMPDEST PUSH3 0x2A4 PUSH1 0x0 DUP4 DUP4 PUSH3 0x396 PUSH1 0x20 SHL PUSH1 0x20 SHR JUMP JUMPDEST DUP1 PUSH1 0x2 PUSH1 0x0 DUP3 DUP3 SLOAD PUSH3 0x2B8 SWAP2 SWAP1 PUSH3 0x71F JUMP JUMPDEST SWAP3 POP POP DUP2 SWAP1 SSTORE POP DUP1 PUSH1 0x0 DUP1 DUP5 PUSH20 0xFFFFFFFFFFFFFFFFFFFFFFFFFFFFFFFFFFFFFFFF AND PUSH20 0xFFFFFFFFFFFFFFFFFFFFFFFFFFFFFFFFFFFFFFFF AND DUP2 MSTORE PUSH1 0x20 ADD SWAP1 DUP2 MSTORE PUSH1 0x20 ADD PUSH1 0x0 KECCAK256 PUSH1 0x0 DUP3 DUP3 SLOAD PUSH3 0x30F SWAP2 SWAP1 PUSH3 0x71F JUMP JUMPDEST SWAP3 POP POP DUP2 SWAP1 SSTORE POP DUP2 PUSH20 0xFFFFFFFFFFFFFFFFFFFFFFFFFFFFFFFFFFFFFFFF AND PUSH1 0x0 PUSH20 0xFFFFFFFFFFFFFFFFFFFFFFFFFFFFFFFFFFFFFFFF AND PUSH32 0xDDF252AD1BE2C89B69C2B068FC378DAA952BA7F163C4A11628F55A4DF523B3EF DUP4 PUSH1 0x40 MLOAD PUSH3 0x376 SWAP2 SWAP1 PUSH3 0x78D JUMP JUMPDEST PUSH1 0x40 MLOAD DUP1 SWAP2 SUB SWAP1 LOG3 PUSH3 0x392 PUSH1 0x0 DUP4 DUP4 PUSH3 0x39B PUSH1 0x20 SHL PUSH1 0x20 SHR JUMP JUMPDEST POP POP JUMP JUMPDEST POP POP POP JUMP JUMPDEST POP POP POP JUMP JUMPDEST DUP3 DUP1 SLOAD PUSH3 0x3AE SWAP1 PUSH3 0x7D9 JUMP JUMPDEST SWAP1 PUSH1 0x0 MSTORE PUSH1 0x20 PUSH1 0x0 KECCAK256 SWAP1 PUSH1 0x1F ADD PUSH1 0x20 SWAP1 DIV DUP2 ADD SWAP3 DUP3 PUSH3 0x3D2 JUMPI PUSH1 0x0 DUP6 SSTORE PUSH3 0x41E JUMP JUMPDEST DUP3 PUSH1 0x1F LT PUSH3 0x3ED JUMPI DUP1 MLOAD PUSH1 0xFF NOT AND DUP4 DUP1 ADD OR DUP6 SSTORE PUSH3 0x41E JUMP JUMPDEST DUP3 DUP1 ADD PUSH1 0x1 ADD DUP6 SSTORE DUP3 ISZERO PUSH3 0x41E JUMPI SWAP2 DUP3 ADD JUMPDEST DUP3 DUP2 GT ISZERO PUSH3 0x41D JUMPI DUP3 MLOAD DUP3 SSTORE SWAP2 PUSH1 0x20 ADD SWAP2 SWAP1 PUSH1 0x1 ADD SWAP1 PUSH3 0x400 JUMP JUMPDEST JUMPDEST POP SWAP1 POP PUSH3 0x42D SWAP2 SWAP1 PUSH3 0x431 JUMP JUMPDEST POP SWAP1 JUMP JUMPDEST JUMPDEST DUP1 DUP3 GT ISZERO PUSH3 0x44C JUMPI PUSH1 0x0 DUP2 PUSH1 0x0 SWAP1 SSTORE POP PUSH1 0x1 ADD PUSH3 0x432 JUMP JUMPDEST POP SWAP1 JUMP JUMPDEST PUSH32 0x4E487B7100000000000000000000000000000000000000000000000000000000 PUSH1 0x0 MSTORE PUSH1 0x11 PUSH1 0x4 MSTORE PUSH1 0x24 PUSH1 0x0 REVERT JUMPDEST PUSH1 0x0 DUP2 PUSH1 0x1 SHR SWAP1 POP SWAP2 SWAP1 POP JUMP JUMPDEST PUSH1 0x0 DUP1 DUP3 SWAP2 POP DUP4 SWAP1 POP JUMPDEST PUSH1 0x1 DUP6 GT ISZERO PUSH3 0x4DE JUMPI DUP1 DUP7 DIV DUP2 GT ISZERO PUSH3 0x4B6 JUMPI PUSH3 0x4B5 PUSH3 0x450 JUMP JUMPDEST JUMPDEST PUSH1 0x1 DUP6 AND ISZERO PUSH3 0x4C6 JUMPI DUP1 DUP3 MUL SWAP2 POP JUMPDEST DUP1 DUP2 MUL SWAP1 POP PUSH3 0x4D6 DUP6 PUSH3 0x47F JUMP JUMPDEST SWAP5 POP PUSH3 0x496 JUMP JUMPDEST SWAP5 POP SWAP5 SWAP3 POP POP POP JUMP JUMPDEST PUSH1 0x0 DUP3 PUSH3 0x4F9 JUMPI PUSH1 0x1 SWAP1 POP PUSH3 0x5CC JUMP JUMPDEST DUP2 PUSH3 0x509 JUMPI PUSH1 0x0 SWAP1 POP PUSH3 0x5CC JUMP JUMPDEST DUP2 PUSH1 0x1 DUP2 EQ PUSH3 0x522 JUMPI PUSH1 0x2 DUP2 EQ PUSH3 0x52D JUMPI PUSH3 0x563 JUMP JUMPDEST PUSH1 0x1 SWAP2 POP POP PUSH3 0x5CC JUMP JUMPDEST PUSH1 0xFF DUP5 GT ISZERO PUSH3 0x542 JUMPI PUSH3 0x541 PUSH3 0x450 JUMP JUMPDEST JUMPDEST DUP4 PUSH1 0x2 EXP SWAP2 POP DUP5 DUP3 GT ISZERO PUSH3 0x55C JUMPI PUSH3 0x55B PUSH3 0x450 JUMP JUMPDEST JUMPDEST POP PUSH3 0x5CC JUMP JUMPDEST POP PUSH1 0x20 DUP4 LT PUSH2 0x133 DUP4 LT AND PUSH1 0x4E DUP5 LT PUSH1 0xB DUP5 LT AND OR ISZERO PUSH3 0x59D JUMPI DUP3 DUP3 EXP SWAP1 POP DUP4 DUP2 GT ISZERO PUSH3 0x597 JUMPI PUSH3 0x596 PUSH3 0x450 JUMP JUMPDEST JUMPDEST PUSH3 0x5CC JUMP JUMPDEST PUSH3 0x5AC DUP5 DUP5 DUP5 PUSH1 0x1 PUSH3 0x48C JUMP JUMPDEST SWAP3 POP SWAP1 POP DUP2 DUP5 DIV DUP2 GT ISZERO PUSH3 0x5C6 JUMPI PUSH3 0x5C5 PUSH3 0x450 JUMP JUMPDEST JUMPDEST DUP2 DUP2 MUL SWAP1 POP JUMPDEST SWAP4 SWAP3 POP POP POP JUMP JUMPDEST PUSH1 0x0 DUP2 SWAP1 POP SWAP2 SWAP1 POP JUMP JUMPDEST PUSH1 0x0 PUSH1 0xFF DUP3 AND SWAP1 POP SWAP2 SWAP1 POP JUMP JUMPDEST PUSH1 0x0 PUSH3 0x5F7 DUP3 PUSH3 0x5D3 JUMP JUMPDEST SWAP2 POP PUSH3 0x604 DUP4 PUSH3 0x5DD JUMP JUMPDEST SWAP3 POP PUSH3 0x633 PUSH32 0xFFFFFFFFFFFFFFFFFFFFFFFFFFFFFFFFFFFFFFFFFFFFFFFFFFFFFFFFFFFFFFFF DUP5 DUP5 PUSH3 0x4E7 JUMP JUMPDEST SWAP1 POP SWAP3 SWAP2 POP POP JUMP JUMPDEST PUSH1 0x0 PUSH3 0x648 DUP3 PUSH3 0x5D3 JUMP JUMPDEST SWAP2 POP PUSH3 0x655 DUP4 PUSH3 0x5D3 JUMP JUMPDEST SWAP3 POP DUP2 PUSH32 0xFFFFFFFFFFFFFFFFFFFFFFFFFFFFFFFFFFFFFFFFFFFFFFFFFFFFFFFFFFFFFFFF DIV DUP4 GT DUP3 ISZERO ISZERO AND ISZERO PUSH3 0x691 JUMPI PUSH3 0x690 PUSH3 0x450 JUMP JUMPDEST JUMPDEST DUP3 DUP3 MUL SWAP1 POP SWAP3 SWAP2 POP POP JUMP JUMPDEST PUSH1 0x0 DUP3 DUP3 MSTORE PUSH1 0x20 DUP3 ADD SWAP1 POP SWAP3 SWAP2 POP POP JUMP JUMPDEST PUSH32 0x45524332303A206D696E7420746F20746865207A65726F206164647265737300 PUSH1 0x0 DUP3 ADD MSTORE POP JUMP JUMPDEST PUSH1 0x0 PUSH3 0x6E5 PUSH1 0x1F DUP4 PUSH3 0x69C JUMP JUMPDEST SWAP2 POP PUSH3 0x6F2 DUP3 PUSH3 0x6AD JUMP JUMPDEST PUSH1 0x20 DUP3 ADD SWAP1 POP SWAP2 SWAP1 POP JUMP JUMPDEST PUSH1 0x0 PUSH1 0x20 DUP3 ADD SWAP1 POP DUP2 DUP2 SUB PUSH1 0x0 DUP4 ADD MSTORE PUSH3 0x718 DUP2 PUSH3 0x6D6 JUMP JUMPDEST SWAP1 POP SWAP2 SWAP1 POP JUMP JUMPDEST PUSH1 0x0 PUSH3 0x72C DUP3 PUSH3 0x5D3 JUMP JUMPDEST SWAP2 POP PUSH3 0x739 DUP4 PUSH3 0x5D3 JUMP JUMPDEST SWAP3 POP DUP3 PUSH32 0xFFFFFFFFFFFFFFFFFFFFFFFFFFFFFFFFFFFFFFFFFFFFFFFFFFFFFFFFFFFFFFFF SUB DUP3 GT ISZERO PUSH3 0x771 JUMPI PUSH3 0x770 PUSH3 0x450 JUMP JUMPDEST JUMPDEST DUP3 DUP3 ADD SWAP1 POP SWAP3 SWAP2 POP POP JUMP JUMPDEST PUSH3 0x787 DUP2 PUSH3 0x5D3 JUMP JUMPDEST DUP3 MSTORE POP POP JUMP JUMPDEST PUSH1 0x0 PUSH1 0x20 DUP3 ADD SWAP1 POP PUSH3 0x7A4 PUSH1 0x0 DUP4 ADD DUP5 PUSH3 0x77C JUMP JUMPDEST SWAP3 SWAP2 POP POP JUMP JUMPDEST PUSH32 0x4E487B7100000000000000000000000000000000000000000000000000000000 PUSH1 0x0 MSTORE PUSH1 0x22 PUSH1 0x4 MSTORE PUSH1 0x24 PUSH1 0x0 REVERT JUMPDEST PUSH1 0x0 PUSH1 0x2 DUP3 DIV SWAP1 POP PUSH1 0x1 DUP3 AND DUP1 PUSH3 0x7F2 JUMPI PUSH1 0x7F DUP3 AND SWAP2 POP JUMPDEST PUSH1 0x20 DUP3 LT DUP2 SUB PUSH3 0x808 JUMPI PUSH3 0x807 PUSH3 0x7AA JUMP JUMPDEST JUMPDEST POP SWAP2 SWAP1 POP JUMP JUMPDEST PUSH2 0x1B40 DUP1 PUSH3 0x81E PUSH1 0x0 CODECOPY PUSH1 0x0 RETURN INVALID PUSH1 0x80 PUSH1 0x40 MSTORE PUSH1 0x4 CALLDATASIZE LT PUSH2 0xF7 JUMPI PUSH1 0x0 CALLDATALOAD PUSH1 0xE0 SHR DUP1 PUSH4 0x70A08231 GT PUSH2 0x8A JUMPI DUP1 PUSH4 0xA457C2D7 GT PUSH2 0x59 JUMPI DUP1 PUSH4 0xA457C2D7 EQ PUSH2 0x372 JUMPI DUP1 PUSH4 0xA9059CBB EQ PUSH2 0x3AF JUMPI DUP1 PUSH4 0xDD62ED3E EQ PUSH2 0x3EC JUMPI DUP1 PUSH4 0xF2FDE38B EQ PUSH2 0x429 JUMPI PUSH2 0x137 JUMP JUMPDEST DUP1 PUSH4 0x70A08231 EQ PUSH2 0x2C8 JUMPI DUP1 PUSH4 0x715018A6 EQ PUSH2 0x305 JUMPI DUP1 PUSH4 0x8DA5CB5B EQ PUSH2 0x31C JUMPI DUP1 PUSH4 0x95D89B41 EQ PUSH2 0x347 JUMPI PUSH2 0x137 JUMP JUMPDEST DUP1 PUSH4 0x2C4E722E GT PUSH2 0xC6 JUMPI DUP1 PUSH4 0x2C4E722E EQ PUSH2 0x20C JUMPI DUP1 PUSH4 0x313CE567 EQ PUSH2 0x237 JUMPI DUP1 PUSH4 0x39509351 EQ PUSH2 0x262 JUMPI DUP1 PUSH4 0x40C10F19 EQ PUSH2 0x29F JUMPI PUSH2 0x137 JUMP JUMPDEST DUP1 PUSH4 0x6FDDE03 EQ PUSH2 0x13C JUMPI DUP1 PUSH4 0x95EA7B3 EQ PUSH2 0x167 JUMPI DUP1 PUSH4 0x18160DDD EQ PUSH2 0x1A4 JUMPI DUP1 PUSH4 0x23B872DD EQ PUSH2 0x1CF JUMPI PUSH2 0x137 JUMP JUMPDEST CALLDATASIZE PUSH2 0x137 JUMPI PUSH32 0x68F8FC10C7E0AB26C19E8620918D8D6964A0A10F0A9AC17833A58E5F9ED3E233 CALLER CALLVALUE PUSH1 0x40 MLOAD PUSH2 0x12D SWAP3 SWAP2 SWAP1 PUSH2 0x11FF JUMP JUMPDEST PUSH1 0x40 MLOAD DUP1 SWAP2 SUB SWAP1 LOG1 STOP JUMPDEST PUSH1 0x0 DUP1 REVERT JUMPDEST CALLVALUE DUP1 ISZERO PUSH2 0x148 JUMPI PUSH1 0x0 DUP1 REVERT JUMPDEST POP PUSH2 0x151 PUSH2 0x452 JUMP JUMPDEST PUSH1 0x40 MLOAD PUSH2 0x15E SWAP2 SWAP1 PUSH2 0x12C1 JUMP JUMPDEST PUSH1 0x40 MLOAD DUP1 SWAP2 SUB SWAP1 RETURN JUMPDEST CALLVALUE DUP1 ISZERO PUSH2 0x173 JUMPI PUSH1 0x0 DUP1 REVERT JUMPDEST POP PUSH2 0x18E PUSH1 0x4 DUP1 CALLDATASIZE SUB DUP2 ADD SWAP1 PUSH2 0x189 SWAP2 SWAP1 PUSH2 0x1340 JUMP JUMPDEST PUSH2 0x4E4 JUMP JUMPDEST PUSH1 0x40 MLOAD PUSH2 0x19B SWAP2 SWAP1 PUSH2 0x139B JUMP JUMPDEST PUSH1 0x40 MLOAD DUP1 SWAP2 SUB SWAP1 RETURN JUMPDEST CALLVALUE DUP1 ISZERO PUSH2 0x1B0 JUMPI PUSH1 0x0 DUP1 REVERT JUMPDEST POP PUSH2 0x1B9 PUSH2 0x507 JUMP JUMPDEST PUSH1 0x40 MLOAD PUSH2 0x1C6 SWAP2 SWAP1 PUSH2 0x13B6 JUMP JUMPDEST PUSH1 0x40 MLOAD DUP1 SWAP2 SUB SWAP1 RETURN JUMPDEST CALLVALUE DUP1 ISZERO PUSH2 0x1DB JUMPI PUSH1 0x0 DUP1 REVERT JUMPDEST POP PUSH2 0x1F6 PUSH1 0x4 DUP1 CALLDATASIZE SUB DUP2 ADD SWAP1 PUSH2 0x1F1 SWAP2 SWAP1 PUSH2 0x13D1 JUMP JUMPDEST PUSH2 0x511 JUMP JUMPDEST PUSH1 0x40 MLOAD PUSH2 0x203 SWAP2 SWAP1 PUSH2 0x139B JUMP JUMPDEST PUSH1 0x40 MLOAD DUP1 SWAP2 SUB SWAP1 RETURN JUMPDEST CALLVALUE DUP1 ISZERO PUSH2 0x218 JUMPI PUSH1 0x0 DUP1 REVERT JUMPDEST POP PUSH2 0x221 PUSH2 0x540 JUMP JUMPDEST PUSH1 0x40 MLOAD PUSH2 0x22E SWAP2 SWAP1 PUSH2 0x13B6 JUMP JUMPDEST PUSH1 0x40 MLOAD DUP1 SWAP2 SUB SWAP1 RETURN JUMPDEST CALLVALUE DUP1 ISZERO PUSH2 0x243 JUMPI PUSH1 0x0 DUP1 REVERT JUMPDEST POP PUSH2 0x24C PUSH2 0x546 JUMP JUMPDEST PUSH1 0x40 MLOAD PUSH2 0x259 SWAP2 SWAP1 PUSH2 0x1440 JUMP JUMPDEST PUSH1 0x40 MLOAD DUP1 SWAP2 SUB SWAP1 RETURN JUMPDEST CALLVALUE DUP1 ISZERO PUSH2 0x26E JUMPI PUSH1 0x0 DUP1 REVERT JUMPDEST POP PUSH2 0x289 PUSH1 0x4 DUP1 CALLDATASIZE SUB DUP2 ADD SWAP1 PUSH2 0x284 SWAP2 SWAP1 PUSH2 0x1340 JUMP JUMPDEST PUSH2 0x54F JUMP JUMPDEST PUSH1 0x40 MLOAD PUSH2 0x296 SWAP2 SWAP1 PUSH2 0x139B JUMP JUMPDEST PUSH1 0x40 MLOAD DUP1 SWAP2 SUB SWAP1 RETURN JUMPDEST CALLVALUE DUP1 ISZERO PUSH2 0x2AB JUMPI PUSH1 0x0 DUP1 REVERT JUMPDEST POP PUSH2 0x2C6 PUSH1 0x4 DUP1 CALLDATASIZE SUB DUP2 ADD SWAP1 PUSH2 0x2C1 SWAP2 SWAP1 PUSH2 0x1340 JUMP JUMPDEST PUSH2 0x5F9 JUMP JUMPDEST STOP JUMPDEST CALLVALUE DUP1 ISZERO PUSH2 0x2D4 JUMPI PUSH1 0x0 DUP1 REVERT JUMPDEST POP PUSH2 0x2EF PUSH1 0x4 DUP1 CALLDATASIZE SUB DUP2 ADD SWAP1 PUSH2 0x2EA SWAP2 SWAP1 PUSH2 0x145B JUMP JUMPDEST PUSH2 0x683 JUMP JUMPDEST PUSH1 0x40 MLOAD PUSH2 0x2FC SWAP2 SWAP1 PUSH2 0x13B6 JUMP JUMPDEST PUSH1 0x40 MLOAD DUP1 SWAP2 SUB SWAP1 RETURN JUMPDEST CALLVALUE DUP1 ISZERO PUSH2 0x311 JUMPI PUSH1 0x0 DUP1 REVERT JUMPDEST POP PUSH2 0x31A PUSH2 0x6CB JUMP JUMPDEST STOP JUMPDEST CALLVALUE DUP1 ISZERO PUSH2 0x328 JUMPI PUSH1 0x0 DUP1 REVERT JUMPDEST POP PUSH2 0x331 PUSH2 0x753 JUMP JUMPDEST PUSH1 0x40 MLOAD PUSH2 0x33E SWAP2 SWAP1 PUSH2 0x1488 JUMP JUMPDEST PUSH1 0x40 MLOAD DUP1 SWAP2 SUB SWAP1 RETURN JUMPDEST CALLVALUE DUP1 ISZERO PUSH2 0x353 JUMPI PUSH1 0x0 DUP1 REVERT JUMPDEST POP PUSH2 0x35C PUSH2 0x77D JUMP JUMPDEST PUSH1 0x40 MLOAD PUSH2 0x369 SWAP2 SWAP1 PUSH2 0x12C1 JUMP JUMPDEST PUSH1 0x40 MLOAD DUP1 SWAP2 SUB SWAP1 RETURN JUMPDEST CALLVALUE DUP1 ISZERO PUSH2 0x37E JUMPI PUSH1 0x0 DUP1 REVERT JUMPDEST POP PUSH2 0x399 PUSH1 0x4 DUP1 CALLDATASIZE SUB DUP2 ADD SWAP1 PUSH2 0x394 SWAP2 SWAP1 PUSH2 0x1340 JUMP JUMPDEST PUSH2 0x80F JUMP JUMPDEST PUSH1 0x40 MLOAD PUSH2 0x3A6 SWAP2 SWAP1 PUSH2 0x139B JUMP JUMPDEST PUSH1 0x40 MLOAD DUP1 SWAP2 SUB SWAP1 RETURN JUMPDEST CALLVALUE DUP1 ISZERO PUSH2 0x3BB JUMPI PUSH1 0x0 DUP1 REVERT JUMPDEST POP PUSH2 0x3D6 PUSH1 0x4 DUP1 CALLDATASIZE SUB DUP2 ADD SWAP1 PUSH2 0x3D1 SWAP2 SWAP1 PUSH2 0x1340 JUMP JUMPDEST PUSH2 0x8F9 JUMP JUMPDEST PUSH1 0x40 MLOAD PUSH2 0x3E3 SWAP2 SWAP1 PUSH2 0x139B JUMP JUMPDEST PUSH1 0x40 MLOAD DUP1 SWAP2 SUB SWAP1 RETURN JUMPDEST CALLVALUE DUP1 ISZERO PUSH2 0x3F8 JUMPI PUSH1 0x0 DUP1 REVERT JUMPDEST POP PUSH2 0x413 PUSH1 0x4 DUP1 CALLDATASIZE SUB DUP2 ADD SWAP1 PUSH2 0x40E SWAP2 SWAP1 PUSH2 0x14A3 JUMP JUMPDEST PUSH2 0x91C JUMP JUMPDEST PUSH1 0x40 MLOAD PUSH2 0x420 SWAP2 SWAP1 PUSH2 0x13B6 JUMP JUMPDEST PUSH1 0x40 MLOAD DUP1 SWAP2 SUB SWAP1 RETURN JUMPDEST CALLVALUE DUP1 ISZERO PUSH2 0x435 JUMPI PUSH1 0x0 DUP1 REVERT JUMPDEST POP PUSH2 0x450 PUSH1 0x4 DUP1 CALLDATASIZE SUB DUP2 ADD SWAP1 PUSH2 0x44B SWAP2 SWAP1 PUSH2 0x145B JUMP JUMPDEST PUSH2 0x9A3 JUMP JUMPDEST STOP JUMPDEST PUSH1 0x60 PUSH1 0x3 DUP1 SLOAD PUSH2 0x461 SWAP1 PUSH2 0x1512 JUMP JUMPDEST DUP1 PUSH1 0x1F ADD PUSH1 0x20 DUP1 SWAP2 DIV MUL PUSH1 0x20 ADD PUSH1 0x40 MLOAD SWAP1 DUP2 ADD PUSH1 0x40 MSTORE DUP1 SWAP3 SWAP2 SWAP1 DUP2 DUP2 MSTORE PUSH1 0x20 ADD DUP3 DUP1 SLOAD PUSH2 0x48D SWAP1 PUSH2 0x1512 JUMP JUMPDEST DUP1 ISZERO PUSH2 0x4DA JUMPI DUP1 PUSH1 0x1F LT PUSH2 0x4AF JUMPI PUSH2 0x100 DUP1 DUP4 SLOAD DIV MUL DUP4 MSTORE SWAP2 PUSH1 0x20 ADD SWAP2 PUSH2 0x4DA JUMP JUMPDEST DUP3 ADD SWAP2 SWAP1 PUSH1 0x0 MSTORE PUSH1 0x20 PUSH1 0x0 KECCAK256 SWAP1 JUMPDEST DUP2 SLOAD DUP2 MSTORE SWAP1 PUSH1 0x1 ADD SWAP1 PUSH1 0x20 ADD DUP1 DUP4 GT PUSH2 0x4BD JUMPI DUP3 SWAP1 SUB PUSH1 0x1F AND DUP3 ADD SWAP2 JUMPDEST POP POP POP POP POP SWAP1 POP SWAP1 JUMP JUMPDEST PUSH1 0x0 DUP1 PUSH2 0x4EF PUSH2 0xA9A JUMP JUMPDEST SWAP1 POP PUSH2 0x4FC DUP2 DUP6 DUP6 PUSH2 0xAA2 JUMP JUMPDEST PUSH1 0x1 SWAP2 POP POP SWAP3 SWAP2 POP POP JUMP JUMPDEST PUSH1 0x0 PUSH1 0x2 SLOAD SWAP1 POP SWAP1 JUMP JUMPDEST PUSH1 0x0 DUP1 PUSH2 0x51C PUSH2 0xA9A JUMP JUMPDEST SWAP1 POP PUSH2 0x529 DUP6 DUP3 DUP6 PUSH2 0xC6B JUMP JUMPDEST PUSH2 0x534 DUP6 DUP6 DUP6 PUSH2 0xCF7 JUMP JUMPDEST PUSH1 0x1 SWAP2 POP POP SWAP4 SWAP3 POP POP POP JUMP JUMPDEST PUSH1 0x6 SLOAD DUP2 JUMP JUMPDEST PUSH1 0x0 PUSH1 0x12 SWAP1 POP SWAP1 JUMP JUMPDEST PUSH1 0x0 DUP1 PUSH2 0x55A PUSH2 0xA9A JUMP JUMPDEST SWAP1 POP PUSH2 0x5EE DUP2 DUP6 DUP6 PUSH1 0x1 PUSH1 0x0 DUP7 PUSH20 0xFFFFFFFFFFFFFFFFFFFFFFFFFFFFFFFFFFFFFFFF AND PUSH20 0xFFFFFFFFFFFFFFFFFFFFFFFFFFFFFFFFFFFFFFFF AND DUP2 MSTORE PUSH1 0x20 ADD SWAP1 DUP2 MSTORE PUSH1 0x20 ADD PUSH1 0x0 KECCAK256 PUSH1 0x0 DUP10 PUSH20 0xFFFFFFFFFFFFFFFFFFFFFFFFFFFFFFFFFFFFFFFF AND PUSH20 0xFFFFFFFFFFFFFFFFFFFFFFFFFFFFFFFFFFFFFFFF AND DUP2 MSTORE PUSH1 0x20 ADD SWAP1 DUP2 MSTORE PUSH1 0x20 ADD PUSH1 0x0 KECCAK256 SLOAD PUSH2 0x5E9 SWAP2 SWAP1 PUSH2 0x1572 JUMP JUMPDEST PUSH2 0xAA2 JUMP JUMPDEST PUSH1 0x1 SWAP2 POP POP SWAP3 SWAP2 POP POP JUMP JUMPDEST PUSH2 0x601 PUSH2 0xA9A JUMP JUMPDEST PUSH20 0xFFFFFFFFFFFFFFFFFFFFFFFFFFFFFFFFFFFFFFFF AND PUSH2 0x61F PUSH2 0x753 JUMP JUMPDEST PUSH20 0xFFFFFFFFFFFFFFFFFFFFFFFFFFFFFFFFFFFFFFFF AND EQ PUSH2 0x675 JUMPI PUSH1 0x40 MLOAD PUSH32 0x8C379A000000000000000000000000000000000000000000000000000000000 DUP2 MSTORE PUSH1 0x4 ADD PUSH2 0x66C SWAP1 PUSH2 0x1614 JUMP JUMPDEST PUSH1 0x40 MLOAD DUP1 SWAP2 SUB SWAP1 REVERT JUMPDEST PUSH2 0x67F DUP3 DUP3 PUSH2 0xF76 JUMP JUMPDEST POP POP JUMP JUMPDEST PUSH1 0x0 DUP1 PUSH1 0x0 DUP4 PUSH20 0xFFFFFFFFFFFFFFFFFFFFFFFFFFFFFFFFFFFFFFFF AND PUSH20 0xFFFFFFFFFFFFFFFFFFFFFFFFFFFFFFFFFFFFFFFF AND DUP2 MSTORE PUSH1 0x20 ADD SWAP1 DUP2 MSTORE PUSH1 0x20 ADD PUSH1 0x0 KECCAK256 SLOAD SWAP1 POP SWAP2 SWAP1 POP JUMP JUMPDEST PUSH2 0x6D3 PUSH2 0xA9A JUMP JUMPDEST PUSH20 0xFFFFFFFFFFFFFFFFFFFFFFFFFFFFFFFFFFFFFFFF AND PUSH2 0x6F1 PUSH2 0x753 JUMP JUMPDEST PUSH20 0xFFFFFFFFFFFFFFFFFFFFFFFFFFFFFFFFFFFFFFFF AND EQ PUSH2 0x747 JUMPI PUSH1 0x40 MLOAD PUSH32 0x8C379A000000000000000000000000000000000000000000000000000000000 DUP2 MSTORE PUSH1 0x4 ADD PUSH2 0x73E SWAP1 PUSH2 0x1614 JUMP JUMPDEST PUSH1 0x40 MLOAD DUP1 SWAP2 SUB SWAP1 REVERT JUMPDEST PUSH2 0x751 PUSH1 0x0 PUSH2 0x10D5 JUMP JUMPDEST JUMP JUMPDEST PUSH1 0x0 PUSH1 0x5 PUSH1 0x0 SWAP1 SLOAD SWAP1 PUSH2 0x100 EXP SWAP1 DIV PUSH20 0xFFFFFFFFFFFFFFFFFFFFFFFFFFFFFFFFFFFFFFFF AND SWAP1 POP SWAP1 JUMP JUMPDEST PUSH1 0x60 PUSH1 0x4 DUP1 SLOAD PUSH2 0x78C SWAP1 PUSH2 0x1512 JUMP JUMPDEST DUP1 PUSH1 0x1F ADD PUSH1 0x20 DUP1 SWAP2 DIV MUL PUSH1 0x20 ADD PUSH1 0x40 MLOAD SWAP1 DUP2 ADD PUSH1 0x40 MSTORE DUP1 SWAP3 SWAP2 SWAP1 DUP2 DUP2 MSTORE PUSH1 0x20 ADD DUP3 DUP1 SLOAD PUSH2 0x7B8 SWAP1 PUSH2 0x1512 JUMP JUMPDEST DUP1 ISZERO PUSH2 0x805 JUMPI DUP1 PUSH1 0x1F LT PUSH2 0x7DA JUMPI PUSH2 0x100 DUP1 DUP4 SLOAD DIV MUL DUP4 MSTORE SWAP2 PUSH1 0x20 ADD SWAP2 PUSH2 0x805 JUMP JUMPDEST DUP3 ADD SWAP2 SWAP1 PUSH1 0x0 MSTORE PUSH1 0x20 PUSH1 0x0 KECCAK256 SWAP1 JUMPDEST DUP2 SLOAD DUP2 MSTORE SWAP1 PUSH1 0x1 ADD SWAP1 PUSH1 0x20 ADD DUP1 DUP4 GT PUSH2 0x7E8 JUMPI DUP3 SWAP1 SUB PUSH1 0x1F AND DUP3 ADD SWAP2 JUMPDEST POP POP POP POP POP SWAP1 POP SWAP1 JUMP JUMPDEST PUSH1 0x0 DUP1 PUSH2 0x81A PUSH2 0xA9A JUMP JUMPDEST SWAP1 POP PUSH1 0x0 PUSH1 0x1 PUSH1 0x0 DUP4 PUSH20 0xFFFFFFFFFFFFFFFFFFFFFFFFFFFFFFFFFFFFFFFF AND PUSH20 0xFFFFFFFFFFFFFFFFFFFFFFFFFFFFFFFFFFFFFFFF AND DUP2 MSTORE PUSH1 0x20 ADD SWAP1 DUP2 MSTORE PUSH1 0x20 ADD PUSH1 0x0 KECCAK256 PUSH1 0x0 DUP7 PUSH20 0xFFFFFFFFFFFFFFFFFFFFFFFFFFFFFFFFFFFFFFFF AND PUSH20 0xFFFFFFFFFFFFFFFFFFFFFFFFFFFFFFFFFFFFFFFF AND DUP2 MSTORE PUSH1 0x20 ADD SWAP1 DUP2 MSTORE PUSH1 0x20 ADD PUSH1 0x0 KECCAK256 SLOAD SWAP1 POP DUP4 DUP2 LT ISZERO PUSH2 0x8E0 JUMPI PUSH1 0x40 MLOAD PUSH32 0x8C379A000000000000000000000000000000000000000000000000000000000 DUP2 MSTORE PUSH1 0x4 ADD PUSH2 0x8D7 SWAP1 PUSH2 0x16A6 JUMP JUMPDEST PUSH1 0x40 MLOAD DUP1 SWAP2 SUB SWAP1 REVERT JUMPDEST PUSH2 0x8ED DUP3 DUP7 DUP7 DUP5 SUB PUSH2 0xAA2 JUMP JUMPDEST PUSH1 0x1 SWAP3 POP POP POP SWAP3 SWAP2 POP POP JUMP JUMPDEST PUSH1 0x0 DUP1 PUSH2 0x904 PUSH2 0xA9A JUMP JUMPDEST SWAP1 POP PUSH2 0x911 DUP2 DUP6 DUP6 PUSH2 0xCF7 JUMP JUMPDEST PUSH1 0x1 SWAP2 POP POP SWAP3 SWAP2 POP POP JUMP JUMPDEST PUSH1 0x0 PUSH1 0x1 PUSH1 0x0 DUP5 PUSH20 0xFFFFFFFFFFFFFFFFFFFFFFFFFFFFFFFFFFFFFFFF AND PUSH20 0xFFFFFFFFFFFFFFFFFFFFFFFFFFFFFFFFFFFFFFFF AND DUP2 MSTORE PUSH1 0x20 ADD SWAP1 DUP2 MSTORE PUSH1 0x20 ADD PUSH1 0x0 KECCAK256 PUSH1 0x0 DUP4 PUSH20 0xFFFFFFFFFFFFFFFFFFFFFFFFFFFFFFFFFFFFFFFF AND PUSH20 0xFFFFFFFFFFFFFFFFFFFFFFFFFFFFFFFFFFFFFFFF AND DUP2 MSTORE PUSH1 0x20 ADD SWAP1 DUP2 MSTORE PUSH1 0x20 ADD PUSH1 0x0 KECCAK256 SLOAD SWAP1 POP SWAP3 SWAP2 POP POP JUMP JUMPDEST PUSH2 0x9AB PUSH2 0xA9A JUMP JUMPDEST PUSH20 0xFFFFFFFFFFFFFFFFFFFFFFFFFFFFFFFFFFFFFFFF AND PUSH2 0x9C9 PUSH2 0x753 JUMP JUMPDEST PUSH20 0xFFFFFFFFFFFFFFFFFFFFFFFFFFFFFFFFFFFFFFFF AND EQ PUSH2 0xA1F JUMPI PUSH1 0x40 MLOAD PUSH32 0x8C379A000000000000000000000000000000000000000000000000000000000 DUP2 MSTORE PUSH1 0x4 ADD PUSH2 0xA16 SWAP1 PUSH2 0x1614 JUMP JUMPDEST PUSH1 0x40 MLOAD DUP1 SWAP2 SUB SWAP1 REVERT JUMPDEST PUSH1 0x0 PUSH20 0xFFFFFFFFFFFFFFFFFFFFFFFFFFFFFFFFFFFFFFFF AND DUP2 PUSH20 0xFFFFFFFFFFFFFFFFFFFFFFFFFFFFFFFFFFFFFFFF AND SUB PUSH2 0xA8E JUMPI PUSH1 0x40 MLOAD PUSH32 0x8C379A000000000000000000000000000000000000000000000000000000000 DUP2 MSTORE PUSH1 0x4 ADD PUSH2 0xA85 SWAP1 PUSH2 0x1738 JUMP JUMPDEST PUSH1 0x40 MLOAD DUP1 SWAP2 SUB SWAP1 REVERT JUMPDEST PUSH2 0xA97 DUP2 PUSH2 0x10D5 JUMP JUMPDEST POP JUMP JUMPDEST PUSH1 0x0 CALLER SWAP1 POP SWAP1 JUMP JUMPDEST PUSH1 0x0 PUSH20 0xFFFFFFFFFFFFFFFFFFFFFFFFFFFFFFFFFFFFFFFF AND DUP4 PUSH20 0xFFFFFFFFFFFFFFFFFFFFFFFFFFFFFFFFFFFFFFFF AND SUB PUSH2 0xB11 JUMPI PUSH1 0x40 MLOAD PUSH32 0x8C379A000000000000000000000000000000000000000000000000000000000 DUP2 MSTORE PUSH1 0x4 ADD PUSH2 0xB08 SWAP1 PUSH2 0x17CA JUMP JUMPDEST PUSH1 0x40 MLOAD DUP1 SWAP2 SUB SWAP1 REVERT JUMPDEST PUSH1 0x0 PUSH20 0xFFFFFFFFFFFFFFFFFFFFFFFFFFFFFFFFFFFFFFFF AND DUP3 PUSH20 0xFFFFFFFFFFFFFFFFFFFFFFFFFFFFFFFFFFFFFFFF AND SUB PUSH2 0xB80 JUMPI PUSH1 0x40 MLOAD PUSH32 0x8C379A000000000000000000000000000000000000000000000000000000000 DUP2 MSTORE PUSH1 0x4 ADD PUSH2 0xB77 SWAP1 PUSH2 0x185C JUMP JUMPDEST PUSH1 0x40 MLOAD DUP1 SWAP2 SUB SWAP1 REVERT JUMPDEST DUP1 PUSH1 0x1 PUSH1 0x0 DUP6 PUSH20 0xFFFFFFFFFFFFFFFFFFFFFFFFFFFFFFFFFFFFFFFF AND PUSH20 0xFFFFFFFFFFFFFFFFFFFFFFFFFFFFFFFFFFFFFFFF AND DUP2 MSTORE PUSH1 0x20 ADD SWAP1 DUP2 MSTORE PUSH1 0x20 ADD PUSH1 0x0 KECCAK256 PUSH1 0x0 DUP5 PUSH20 0xFFFFFFFFFFFFFFFFFFFFFFFFFFFFFFFFFFFFFFFF AND PUSH20 0xFFFFFFFFFFFFFFFFFFFFFFFFFFFFFFFFFFFFFFFF AND DUP2 MSTORE PUSH1 0x20 ADD SWAP1 DUP2 MSTORE PUSH1 0x20 ADD PUSH1 0x0 KECCAK256 DUP2 SWAP1 SSTORE POP DUP2 PUSH20 0xFFFFFFFFFFFFFFFFFFFFFFFFFFFFFFFFFFFFFFFF AND DUP4 PUSH20 0xFFFFFFFFFFFFFFFFFFFFFFFFFFFFFFFFFFFFFFFF AND PUSH32 0x8C5BE1E5EBEC7D5BD14F71427D1E84F3DD0314C0F7B2291E5B200AC8C7C3B925 DUP4 PUSH1 0x40 MLOAD PUSH2 0xC5E SWAP2 SWAP1 PUSH2 0x13B6 JUMP JUMPDEST PUSH1 0x40 MLOAD DUP1 SWAP2 SUB SWAP1 LOG3 POP POP POP JUMP JUMPDEST PUSH1 0x0 PUSH2 0xC77 DUP5 DUP5 PUSH2 0x91C JUMP JUMPDEST SWAP1 POP PUSH32 0xFFFFFFFFFFFFFFFFFFFFFFFFFFFFFFFFFFFFFFFFFFFFFFFFFFFFFFFFFFFFFFFF DUP2 EQ PUSH2 0xCF1 JUMPI DUP2 DUP2 LT ISZERO PUSH2 0xCE3 JUMPI PUSH1 0x40 MLOAD PUSH32 0x8C379A000000000000000000000000000000000000000000000000000000000 DUP2 MSTORE PUSH1 0x4 ADD PUSH2 0xCDA SWAP1 PUSH2 0x18C8 JUMP JUMPDEST PUSH1 0x40 MLOAD DUP1 SWAP2 SUB SWAP1 REVERT JUMPDEST PUSH2 0xCF0 DUP5 DUP5 DUP5 DUP5 SUB PUSH2 0xAA2 JUMP JUMPDEST JUMPDEST POP POP POP POP JUMP JUMPDEST PUSH1 0x0 PUSH20 0xFFFFFFFFFFFFFFFFFFFFFFFFFFFFFFFFFFFFFFFF AND DUP4 PUSH20 0xFFFFFFFFFFFFFFFFFFFFFFFFFFFFFFFFFFFFFFFF AND SUB PUSH2 0xD66 JUMPI PUSH1 0x40 MLOAD PUSH32 0x8C379A000000000000000000000000000000000000000000000000000000000 DUP2 MSTORE PUSH1 0x4 ADD PUSH2 0xD5D SWAP1 PUSH2 0x195A JUMP JUMPDEST PUSH1 0x40 MLOAD DUP1 SWAP2 SUB SWAP1 REVERT JUMPDEST PUSH1 0x0 PUSH20 0xFFFFFFFFFFFFFFFFFFFFFFFFFFFFFFFFFFFFFFFF AND DUP3 PUSH20 0xFFFFFFFFFFFFFFFFFFFFFFFFFFFFFFFFFFFFFFFF AND SUB PUSH2 0xDD5 JUMPI PUSH1 0x40 MLOAD PUSH32 0x8C379A000000000000000000000000000000000000000000000000000000000 DUP2 MSTORE PUSH1 0x4 ADD PUSH2 0xDCC SWAP1 PUSH2 0x19EC JUMP JUMPDEST PUSH1 0x40 MLOAD DUP1 SWAP2 SUB SWAP1 REVERT JUMPDEST PUSH2 0xDE0 DUP4 DUP4 DUP4 PUSH2 0x119B JUMP JUMPDEST PUSH1 0x0 DUP1 PUSH1 0x0 DUP6 PUSH20 0xFFFFFFFFFFFFFFFFFFFFFFFFFFFFFFFFFFFFFFFF AND PUSH20 0xFFFFFFFFFFFFFFFFFFFFFFFFFFFFFFFFFFFFFFFF AND DUP2 MSTORE PUSH1 0x20 ADD SWAP1 DUP2 MSTORE PUSH1 0x20 ADD PUSH1 0x0 KECCAK256 SLOAD SWAP1 POP DUP2 DUP2 LT ISZERO PUSH2 0xE66 JUMPI PUSH1 0x40 MLOAD PUSH32 0x8C379A000000000000000000000000000000000000000000000000000000000 DUP2 MSTORE PUSH1 0x4 ADD PUSH2 0xE5D SWAP1 PUSH2 0x1A7E JUMP JUMPDEST PUSH1 0x40 MLOAD DUP1 SWAP2 SUB SWAP1 REVERT JUMPDEST DUP2 DUP2 SUB PUSH1 0x0 DUP1 DUP7 PUSH20 0xFFFFFFFFFFFFFFFFFFFFFFFFFFFFFFFFFFFFFFFF AND PUSH20 0xFFFFFFFFFFFFFFFFFFFFFFFFFFFFFFFFFFFFFFFF AND DUP2 MSTORE PUSH1 0x20 ADD SWAP1 DUP2 MSTORE PUSH1 0x20 ADD PUSH1 0x0 KECCAK256 DUP2 SWAP1 SSTORE POP DUP2 PUSH1 0x0 DUP1 DUP6 PUSH20 0xFFFFFFFFFFFFFFFFFFFFFFFFFFFFFFFFFFFFFFFF AND PUSH20 0xFFFFFFFFFFFFFFFFFFFFFFFFFFFFFFFFFFFFFFFF AND DUP2 MSTORE PUSH1 0x20 ADD SWAP1 DUP2 MSTORE PUSH1 0x20 ADD PUSH1 0x0 KECCAK256 PUSH1 0x0 DUP3 DUP3 SLOAD PUSH2 0xEF9 SWAP2 SWAP1 PUSH2 0x1572 JUMP JUMPDEST SWAP3 POP POP DUP2 SWAP1 SSTORE POP DUP3 PUSH20 0xFFFFFFFFFFFFFFFFFFFFFFFFFFFFFFFFFFFFFFFF AND DUP5 PUSH20 0xFFFFFFFFFFFFFFFFFFFFFFFFFFFFFFFFFFFFFFFF AND PUSH32 0xDDF252AD1BE2C89B69C2B068FC378DAA952BA7F163C4A11628F55A4DF523B3EF DUP5 PUSH1 0x40 MLOAD PUSH2 0xF5D SWAP2 SWAP1 PUSH2 0x13B6 JUMP JUMPDEST PUSH1 0x40 MLOAD DUP1 SWAP2 SUB SWAP1 LOG3 PUSH2 0xF70 DUP5 DUP5 DUP5 PUSH2 0x11A0 JUMP JUMPDEST POP POP POP POP JUMP JUMPDEST PUSH1 0x0 PUSH20 0xFFFFFFFFFFFFFFFFFFFFFFFFFFFFFFFFFFFFFFFF AND DUP3 PUSH20 0xFFFFFFFFFFFFFFFFFFFFFFFFFFFFFFFFFFFFFFFF AND SUB PUSH2 0xFE5 JUMPI PUSH1 0x40 MLOAD PUSH32 0x8C379A000000000000000000000000000000000000000000000000000000000 DUP2 MSTORE PUSH1 0x4 ADD PUSH2 0xFDC SWAP1 PUSH2 0x1AEA JUMP JUMPDEST PUSH1 0x40 MLOAD DUP1 SWAP2 SUB SWAP1 REVERT JUMPDEST PUSH2 0xFF1 PUSH1 0x0 DUP4 DUP4 PUSH2 0x119B JUMP JUMPDEST DUP1 PUSH1 0x2 PUSH1 0x0 DUP3 DUP3 SLOAD PUSH2 0x1003 SWAP2 SWAP1 PUSH2 0x1572 JUMP JUMPDEST SWAP3 POP POP DUP2 SWAP1 SSTORE POP DUP1 PUSH1 0x0 DUP1 DUP5 PUSH20 0xFFFFFFFFFFFFFFFFFFFFFFFFFFFFFFFFFFFFFFFF AND PUSH20 0xFFFFFFFFFFFFFFFFFFFFFFFFFFFFFFFFFFFFFFFF AND DUP2 MSTORE PUSH1 0x20 ADD SWAP1 DUP2 MSTORE PUSH1 0x20 ADD PUSH1 0x0 KECCAK256 PUSH1 0x0 DUP3 DUP3 SLOAD PUSH2 0x1058 SWAP2 SWAP1 PUSH2 0x1572 JUMP JUMPDEST SWAP3 POP POP DUP2 SWAP1 SSTORE POP DUP2 PUSH20 0xFFFFFFFFFFFFFFFFFFFFFFFFFFFFFFFFFFFFFFFF AND PUSH1 0x0 PUSH20 0xFFFFFFFFFFFFFFFFFFFFFFFFFFFFFFFFFFFFFFFF AND PUSH32 0xDDF252AD1BE2C89B69C2B068FC378DAA952BA7F163C4A11628F55A4DF523B3EF DUP4 PUSH1 0x40 MLOAD PUSH2 0x10BD SWAP2 SWAP1 PUSH2 0x13B6 JUMP JUMPDEST PUSH1 0x40 MLOAD DUP1 SWAP2 SUB SWAP1 LOG3 PUSH2 0x10D1 PUSH1 0x0 DUP4 DUP4 PUSH2 0x11A0 JUMP JUMPDEST POP POP JUMP JUMPDEST PUSH1 0x0 PUSH1 0x5 PUSH1 0x0 SWAP1 SLOAD SWAP1 PUSH2 0x100 EXP SWAP1 DIV PUSH20 0xFFFFFFFFFFFFFFFFFFFFFFFFFFFFFFFFFFFFFFFF AND SWAP1 POP DUP2 PUSH1 0x5 PUSH1 0x0 PUSH2 0x100 EXP DUP2 SLOAD DUP2 PUSH20 0xFFFFFFFFFFFFFFFFFFFFFFFFFFFFFFFFFFFFFFFF MUL NOT AND SWAP1 DUP4 PUSH20 0xFFFFFFFFFFFFFFFFFFFFFFFFFFFFFFFFFFFFFFFF AND MUL OR SWAP1 SSTORE POP DUP2 PUSH20 0xFFFFFFFFFFFFFFFFFFFFFFFFFFFFFFFFFFFFFFFF AND DUP2 PUSH20 0xFFFFFFFFFFFFFFFFFFFFFFFFFFFFFFFFFFFFFFFF AND PUSH32 0x8BE0079C531659141344CD1FD0A4F28419497F9722A3DAAFE3B4186F6B6457E0 PUSH1 0x40 MLOAD PUSH1 0x40 MLOAD DUP1 SWAP2 SUB SWAP1 LOG3 POP POP JUMP JUMPDEST POP POP POP JUMP JUMPDEST POP POP POP JUMP JUMPDEST PUSH1 0x0 PUSH20 0xFFFFFFFFFFFFFFFFFFFFFFFFFFFFFFFFFFFFFFFF DUP3 AND SWAP1 POP SWAP2 SWAP1 POP JUMP JUMPDEST PUSH1 0x0 PUSH2 0x11D0 DUP3 PUSH2 0x11A5 JUMP JUMPDEST SWAP1 POP SWAP2 SWAP1 POP JUMP JUMPDEST PUSH2 0x11E0 DUP2 PUSH2 0x11C5 JUMP JUMPDEST DUP3 MSTORE POP POP JUMP JUMPDEST PUSH1 0x0 DUP2 SWAP1 POP SWAP2 SWAP1 POP JUMP JUMPDEST PUSH2 0x11F9 DUP2 PUSH2 0x11E6 JUMP JUMPDEST DUP3 MSTORE POP POP JUMP JUMPDEST PUSH1 0x0 PUSH1 0x40 DUP3 ADD SWAP1 POP PUSH2 0x1214 PUSH1 0x0 DUP4 ADD DUP6 PUSH2 0x11D7 JUMP JUMPDEST PUSH2 0x1221 PUSH1 0x20 DUP4 ADD DUP5 PUSH2 0x11F0 JUMP JUMPDEST SWAP4 SWAP3 POP POP POP JUMP JUMPDEST PUSH1 0x0 DUP2 MLOAD SWAP1 POP SWAP2 SWAP1 POP JUMP JUMPDEST PUSH1 0x0 DUP3 DUP3 MSTORE PUSH1 0x20 DUP3 ADD SWAP1 POP SWAP3 SWAP2 POP POP JUMP JUMPDEST PUSH1 0x0 JUMPDEST DUP4 DUP2 LT ISZERO PUSH2 0x1262 JUMPI DUP1 DUP3 ADD MLOAD DUP2 DUP5 ADD MSTORE PUSH1 0x20 DUP2 ADD SWAP1 POP PUSH2 0x1247 JUMP JUMPDEST DUP4 DUP2 GT ISZERO PUSH2 0x1271 JUMPI PUSH1 0x0 DUP5 DUP5 ADD MSTORE JUMPDEST POP POP POP POP JUMP JUMPDEST PUSH1 0x0 PUSH1 0x1F NOT PUSH1 0x1F DUP4 ADD AND SWAP1 POP SWAP2 SWAP1 POP JUMP JUMPDEST PUSH1 0x0 PUSH2 0x1293 DUP3 PUSH2 0x1228 JUMP JUMPDEST PUSH2 0x129D DUP2 DUP6 PUSH2 0x1233 JUMP JUMPDEST SWAP4 POP PUSH2 0x12AD DUP2 DUP6 PUSH1 0x20 DUP7 ADD PUSH2 0x1244 JUMP JUMPDEST PUSH2 0x12B6 DUP2 PUSH2 0x1277 JUMP JUMPDEST DUP5 ADD SWAP2 POP POP SWAP3 SWAP2 POP POP JUMP JUMPDEST PUSH1 0x0 PUSH1 0x20 DUP3 ADD SWAP1 POP DUP2 DUP2 SUB PUSH1 0x0 DUP4 ADD MSTORE PUSH2 0x12DB DUP2 DUP5 PUSH2 0x1288 JUMP JUMPDEST SWAP1 POP SWAP3 SWAP2 POP POP JUMP JUMPDEST PUSH1 0x0 DUP1 REVERT JUMPDEST PUSH2 0x12F1 DUP2 PUSH2 0x11C5 JUMP JUMPDEST DUP2 EQ PUSH2 0x12FC JUMPI PUSH1 0x0 DUP1 REVERT JUMPDEST POP JUMP JUMPDEST PUSH1 0x0 DUP2 CALLDATALOAD SWAP1 POP PUSH2 0x130E DUP2 PUSH2 0x12E8 JUMP JUMPDEST SWAP3 SWAP2 POP POP JUMP JUMPDEST PUSH2 0x131D DUP2 PUSH2 0x11E6 JUMP JUMPDEST DUP2 EQ PUSH2 0x1328 JUMPI PUSH1 0x0 DUP1 REVERT JUMPDEST POP JUMP JUMPDEST PUSH1 0x0 DUP2 CALLDATALOAD SWAP1 POP PUSH2 0x133A DUP2 PUSH2 0x1314 JUMP JUMPDEST SWAP3 SWAP2 POP POP JUMP JUMPDEST PUSH1 0x0 DUP1 PUSH1 0x40 DUP4 DUP6 SUB SLT ISZERO PUSH2 0x1357 JUMPI PUSH2 0x1356 PUSH2 0x12E3 JUMP JUMPDEST JUMPDEST PUSH1 0x0 PUSH2 0x1365 DUP6 DUP3 DUP7 ADD PUSH2 0x12FF JUMP JUMPDEST SWAP3 POP POP PUSH1 0x20 PUSH2 0x1376 DUP6 DUP3 DUP7 ADD PUSH2 0x132B JUMP JUMPDEST SWAP2 POP POP SWAP3 POP SWAP3 SWAP1 POP JUMP JUMPDEST PUSH1 0x0 DUP2 ISZERO ISZERO SWAP1 POP SWAP2 SWAP1 POP JUMP JUMPDEST PUSH2 0x1395 DUP2 PUSH2 0x1380 JUMP JUMPDEST DUP3 MSTORE POP POP JUMP JUMPDEST PUSH1 0x0 PUSH1 0x20 DUP3 ADD SWAP1 POP PUSH2 0x13B0 PUSH1 0x0 DUP4 ADD DUP5 PUSH2 0x138C JUMP JUMPDEST SWAP3 SWAP2 POP POP JUMP JUMPDEST PUSH1 0x0 PUSH1 0x20 DUP3 ADD SWAP1 POP PUSH2 0x13CB PUSH1 0x0 DUP4 ADD DUP5 PUSH2 0x11F0 JUMP JUMPDEST SWAP3 SWAP2 POP POP JUMP JUMPDEST PUSH1 0x0 DUP1 PUSH1 0x0 PUSH1 0x60 DUP5 DUP7 SUB SLT ISZERO PUSH2 0x13EA JUMPI PUSH2 0x13E9 PUSH2 0x12E3 JUMP JUMPDEST JUMPDEST PUSH1 0x0 PUSH2 0x13F8 DUP7 DUP3 DUP8 ADD PUSH2 0x12FF JUMP JUMPDEST SWAP4 POP POP PUSH1 0x20 PUSH2 0x1409 DUP7 DUP3 DUP8 ADD PUSH2 0x12FF JUMP JUMPDEST SWAP3 POP POP PUSH1 0x40 PUSH2 0x141A DUP7 DUP3 DUP8 ADD PUSH2 0x132B JUMP JUMPDEST SWAP2 POP POP SWAP3 POP SWAP3 POP SWAP3 JUMP JUMPDEST PUSH1 0x0 PUSH1 0xFF DUP3 AND SWAP1 POP SWAP2 SWAP1 POP JUMP JUMPDEST PUSH2 0x143A DUP2 PUSH2 0x1424 JUMP JUMPDEST DUP3 MSTORE POP POP JUMP JUMPDEST PUSH1 0x0 PUSH1 0x20 DUP3 ADD SWAP1 POP PUSH2 0x1455 PUSH1 0x0 DUP4 ADD DUP5 PUSH2 0x1431 JUMP JUMPDEST SWAP3 SWAP2 POP POP JUMP JUMPDEST PUSH1 0x0 PUSH1 0x20 DUP3 DUP5 SUB SLT ISZERO PUSH2 0x1471 JUMPI PUSH2 0x1470 PUSH2 0x12E3 JUMP JUMPDEST JUMPDEST PUSH1 0x0 PUSH2 0x147F DUP5 DUP3 DUP6 ADD PUSH2 0x12FF JUMP JUMPDEST SWAP2 POP POP SWAP3 SWAP2 POP POP JUMP JUMPDEST PUSH1 0x0 PUSH1 0x20 DUP3 ADD SWAP1 POP PUSH2 0x149D PUSH1 0x0 DUP4 ADD DUP5 PUSH2 0x11D7 JUMP JUMPDEST SWAP3 SWAP2 POP POP JUMP JUMPDEST PUSH1 0x0 DUP1 PUSH1 0x40 DUP4 DUP6 SUB SLT ISZERO PUSH2 0x14BA JUMPI PUSH2 0x14B9 PUSH2 0x12E3 JUMP JUMPDEST JUMPDEST PUSH1 0x0 PUSH2 0x14C8 DUP6 DUP3 DUP7 ADD PUSH2 0x12FF JUMP JUMPDEST SWAP3 POP POP PUSH1 0x20 PUSH2 0x14D9 DUP6 DUP3 DUP7 ADD PUSH2 0x12FF JUMP JUMPDEST SWAP2 POP POP SWAP3 POP SWAP3 SWAP1 POP JUMP JUMPDEST PUSH32 0x4E487B7100000000000000000000000000000000000000000000000000000000 PUSH1 0x0 MSTORE PUSH1 0x22 PUSH1 0x4 MSTORE PUSH1 0x24 PUSH1 0x0 REVERT JUMPDEST PUSH1 0x0 PUSH1 0x2 DUP3 DIV SWAP1 POP PUSH1 0x1 DUP3 AND DUP1 PUSH2 0x152A JUMPI PUSH1 0x7F DUP3 AND SWAP2 POP JUMPDEST PUSH1 0x20 DUP3 LT DUP2 SUB PUSH2 0x153D JUMPI PUSH2 0x153C PUSH2 0x14E3 JUMP JUMPDEST JUMPDEST POP SWAP2 SWAP1 POP JUMP JUMPDEST PUSH32 0x4E487B7100000000000000000000000000000000000000000000000000000000 PUSH1 0x0 MSTORE PUSH1 0x11 PUSH1 0x4 MSTORE PUSH1 0x24 PUSH1 0x0 REVERT JUMPDEST PUSH1 0x0 PUSH2 0x157D DUP3 PUSH2 0x11E6 JUMP JUMPDEST SWAP2 POP PUSH2 0x1588 DUP4 PUSH2 0x11E6 JUMP JUMPDEST SWAP3 POP DUP3 PUSH32 0xFFFFFFFFFFFFFFFFFFFFFFFFFFFFFFFFFFFFFFFFFFFFFFFFFFFFFFFFFFFFFFFF SUB DUP3 GT ISZERO PUSH2 0x15BD JUMPI PUSH2 0x15BC PUSH2 0x1543 JUMP JUMPDEST JUMPDEST DUP3 DUP3 ADD SWAP1 POP SWAP3 SWAP2 POP POP JUMP JUMPDEST PUSH32 0x4F776E61626C653A2063616C6C6572206973206E6F7420746865206F776E6572 PUSH1 0x0 DUP3 ADD MSTORE POP JUMP JUMPDEST PUSH1 0x0 PUSH2 0x15FE PUSH1 0x20 DUP4 PUSH2 0x1233 JUMP JUMPDEST SWAP2 POP PUSH2 0x1609 DUP3 PUSH2 0x15C8 JUMP JUMPDEST PUSH1 0x20 DUP3 ADD SWAP1 POP SWAP2 SWAP1 POP JUMP JUMPDEST PUSH1 0x0 PUSH1 0x20 DUP3 ADD SWAP1 POP DUP2 DUP2 SUB PUSH1 0x0 DUP4 ADD MSTORE PUSH2 0x162D DUP2 PUSH2 0x15F1 JUMP JUMPDEST SWAP1 POP SWAP2 SWAP1 POP JUMP JUMPDEST PUSH32 0x45524332303A2064656372656173656420616C6C6F77616E63652062656C6F77 PUSH1 0x0 DUP3 ADD MSTORE PUSH32 0x207A65726F000000000000000000000000000000000000000000000000000000 PUSH1 0x20 DUP3 ADD MSTORE POP JUMP JUMPDEST PUSH1 0x0 PUSH2 0x1690 PUSH1 0x25 DUP4 PUSH2 0x1233 JUMP JUMPDEST SWAP2 POP PUSH2 0x169B DUP3 PUSH2 0x1634 JUMP JUMPDEST PUSH1 0x40 DUP3 ADD SWAP1 POP SWAP2 SWAP1 POP JUMP JUMPDEST PUSH1 0x0 PUSH1 0x20 DUP3 ADD SWAP1 POP DUP2 DUP2 SUB PUSH1 0x0 DUP4 ADD MSTORE PUSH2 0x16BF DUP2 PUSH2 0x1683 JUMP JUMPDEST SWAP1 POP SWAP2 SWAP1 POP JUMP JUMPDEST PUSH32 0x4F776E61626C653A206E6577206F776E657220697320746865207A65726F2061 PUSH1 0x0 DUP3 ADD MSTORE PUSH32 0x6464726573730000000000000000000000000000000000000000000000000000 PUSH1 0x20 DUP3 ADD MSTORE POP JUMP JUMPDEST PUSH1 0x0 PUSH2 0x1722 PUSH1 0x26 DUP4 PUSH2 0x1233 JUMP JUMPDEST SWAP2 POP PUSH2 0x172D DUP3 PUSH2 0x16C6 JUMP JUMPDEST PUSH1 0x40 DUP3 ADD SWAP1 POP SWAP2 SWAP1 POP JUMP JUMPDEST PUSH1 0x0 PUSH1 0x20 DUP3 ADD SWAP1 POP DUP2 DUP2 SUB PUSH1 0x0 DUP4 ADD MSTORE PUSH2 0x1751 DUP2 PUSH2 0x1715 JUMP JUMPDEST SWAP1 POP SWAP2 SWAP1 POP JUMP JUMPDEST PUSH32 0x45524332303A20617070726F76652066726F6D20746865207A65726F20616464 PUSH1 0x0 DUP3 ADD MSTORE PUSH32 0x7265737300000000000000000000000000000000000000000000000000000000 PUSH1 0x20 DUP3 ADD MSTORE POP JUMP JUMPDEST PUSH1 0x0 PUSH2 0x17B4 PUSH1 0x24 DUP4 PUSH2 0x1233 JUMP JUMPDEST SWAP2 POP PUSH2 0x17BF DUP3 PUSH2 0x1758 JUMP JUMPDEST PUSH1 0x40 DUP3 ADD SWAP1 POP SWAP2 SWAP1 POP JUMP JUMPDEST PUSH1 0x0 PUSH1 0x20 DUP3 ADD SWAP1 POP DUP2 DUP2 SUB PUSH1 0x0 DUP4 ADD MSTORE PUSH2 0x17E3 DUP2 PUSH2 0x17A7 JUMP JUMPDEST SWAP1 POP SWAP2 SWAP1 POP JUMP JUMPDEST PUSH32 0x45524332303A20617070726F766520746F20746865207A65726F206164647265 PUSH1 0x0 DUP3 ADD MSTORE PUSH32 0x7373000000000000000000000000000000000000000000000000000000000000 PUSH1 0x20 DUP3 ADD MSTORE POP JUMP JUMPDEST PUSH1 0x0 PUSH2 0x1846 PUSH1 0x22 DUP4 PUSH2 0x1233 JUMP JUMPDEST SWAP2 POP PUSH2 0x1851 DUP3 PUSH2 0x17EA JUMP JUMPDEST PUSH1 0x40 DUP3 ADD SWAP1 POP SWAP2 SWAP1 POP JUMP JUMPDEST PUSH1 0x0 PUSH1 0x20 DUP3 ADD SWAP1 POP DUP2 DUP2 SUB PUSH1 0x0 DUP4 ADD MSTORE PUSH2 0x1875 DUP2 PUSH2 0x1839 JUMP JUMPDEST SWAP1 POP SWAP2 SWAP1 POP JUMP JUMPDEST PUSH32 0x45524332303A20696E73756666696369656E7420616C6C6F77616E6365000000 PUSH1 0x0 DUP3 ADD MSTORE POP JUMP JUMPDEST PUSH1 0x0 PUSH2 0x18B2 PUSH1 0x1D DUP4 PUSH2 0x1233 JUMP JUMPDEST SWAP2 POP PUSH2 0x18BD DUP3 PUSH2 0x187C JUMP JUMPDEST PUSH1 0x20 DUP3 ADD SWAP1 POP SWAP2 SWAP1 POP JUMP JUMPDEST PUSH1 0x0 PUSH1 0x20 DUP3 ADD SWAP1 POP DUP2 DUP2 SUB PUSH1 0x0 DUP4 ADD MSTORE PUSH2 0x18E1 DUP2 PUSH2 0x18A5 JUMP JUMPDEST SWAP1 POP SWAP2 SWAP1 POP JUMP JUMPDEST PUSH32 0x45524332303A207472616E736665722066726F6D20746865207A65726F206164 PUSH1 0x0 DUP3 ADD MSTORE PUSH32 0x6472657373000000000000000000000000000000000000000000000000000000 PUSH1 0x20 DUP3 ADD MSTORE POP JUMP JUMPDEST PUSH1 0x0 PUSH2 0x1944 PUSH1 0x25 DUP4 PUSH2 0x1233 JUMP JUMPDEST SWAP2 POP PUSH2 0x194F DUP3 PUSH2 0x18E8 JUMP JUMPDEST PUSH1 0x40 DUP3 ADD SWAP1 POP SWAP2 SWAP1 POP JUMP JUMPDEST PUSH1 0x0 PUSH1 0x20 DUP3 ADD SWAP1 POP DUP2 DUP2 SUB PUSH1 0x0 DUP4 ADD MSTORE PUSH2 0x1973 DUP2 PUSH2 0x1937 JUMP JUMPDEST SWAP1 POP SWAP2 SWAP1 POP JUMP JUMPDEST PUSH32 0x45524332303A207472616E7366657220746F20746865207A65726F2061646472 PUSH1 0x0 DUP3 ADD MSTORE PUSH32 0x6573730000000000000000000000000000000000000000000000000000000000 PUSH1 0x20 DUP3 ADD MSTORE POP JUMP JUMPDEST PUSH1 0x0 PUSH2 0x19D6 PUSH1 0x23 DUP4 PUSH2 0x1233 JUMP JUMPDEST SWAP2 POP PUSH2 0x19E1 DUP3 PUSH2 0x197A JUMP JUMPDEST PUSH1 0x40 DUP3 ADD SWAP1 POP SWAP2 SWAP1 POP JUMP JUMPDEST PUSH1 0x0 PUSH1 0x20 DUP3 ADD SWAP1 POP DUP2 DUP2 SUB PUSH1 0x0 DUP4 ADD MSTORE PUSH2 0x1A05 DUP2 PUSH2 0x19C9 JUMP JUMPDEST SWAP1 POP SWAP2 SWAP1 POP JUMP JUMPDEST PUSH32 0x45524332303A207472616E7366657220616D6F756E7420657863656564732062 PUSH1 0x0 DUP3 ADD MSTORE PUSH32 0x616C616E63650000000000000000000000000000000000000000000000000000 PUSH1 0x20 DUP3 ADD MSTORE POP JUMP JUMPDEST PUSH1 0x0 PUSH2 0x1A68 PUSH1 0x26 DUP4 PUSH2 0x1233 JUMP JUMPDEST SWAP2 POP PUSH2 0x1A73 DUP3 PUSH2 0x1A0C JUMP JUMPDEST PUSH1 0x40 DUP3 ADD SWAP1 POP SWAP2 SWAP1 POP JUMP JUMPDEST PUSH1 0x0 PUSH1 0x20 DUP3 ADD SWAP1 POP DUP2 DUP2 SUB PUSH1 0x0 DUP4 ADD MSTORE PUSH2 0x1A97 DUP2 PUSH2 0x1A5B JUMP JUMPDEST SWAP1 POP SWAP2 SWAP1 POP JUMP JUMPDEST PUSH32 0x45524332303A206D696E7420746F20746865207A65726F206164647265737300 PUSH1 0x0 DUP3 ADD MSTORE POP JUMP JUMPDEST PUSH1 0x0 PUSH2 0x1AD4 PUSH1 0x1F DUP4 PUSH2 0x1233 JUMP JUMPDEST SWAP2 POP PUSH2 0x1ADF DUP3 PUSH2 0x1A9E JUMP JUMPDEST PUSH1 0x20 DUP3 ADD SWAP1 POP SWAP2 SWAP1 POP JUMP JUMPDEST PUSH1 0x0 PUSH1 0x20 DUP3 ADD SWAP1 POP DUP2 DUP2 SUB PUSH1 0x0 DUP4 ADD MSTORE PUSH2 0x1B03 DUP2 PUSH2 0x1AC7 JUMP JUMPDEST SWAP1 POP SWAP2 SWAP1 POP JUMP INVALID LOG2 PUSH5 0x6970667358 0x22 SLT KECCAK256 0xC2 PUSH26 0x684D68F668BB9F470A3E7E69B3F6C21C55D4C10E17A9296729CF 0xAF 0xA5 DUP5 0x4B PUSH5 0x736F6C6343 STOP ADDMOD 0xD STOP CALLER "
				},
				"gasEstimates": {
					"creation": {
						"codeDepositCost": "1395200",
						"executionCost": "infinite",
						"totalCost": "infinite"
					},
					"external": {
						"allowance(address,address)": "infinite",
						"approve(address,uint256)": "infinite",
						"balanceOf(address)": "2864",
						"decimals()": "388",
						"decreaseAllowance(address,uint256)": "infinite",
						"increaseAllowance(address,uint256)": "infinite",
						"mint(address,uint256)": "infinite",
						"name()": "infinite",
						"owner()": "2589",
						"rate()": "2452",
						"renounceOwnership()": "30419",
						"symbol()": "infinite",
						"totalSupply()": "2505",
						"transfer(address,uint256)": "infinite",
						"transferFrom(address,address,uint256)": "infinite",
						"transferOwnership(address)": "30808"
					}
				},
				"methodIdentifiers": {
					"allowance(address,address)": "dd62ed3e",
					"approve(address,uint256)": "095ea7b3",
					"balanceOf(address)": "70a08231",
					"decimals()": "313ce567",
					"decreaseAllowance(address,uint256)": "a457c2d7",
					"increaseAllowance(address,uint256)": "39509351",
					"mint(address,uint256)": "40c10f19",
					"name()": "06fdde03",
					"owner()": "8da5cb5b",
					"rate()": "2c4e722e",
					"renounceOwnership()": "715018a6",
					"symbol()": "95d89b41",
					"totalSupply()": "18160ddd",
					"transfer(address,uint256)": "a9059cbb",
					"transferFrom(address,address,uint256)": "23b872dd",
					"transferOwnership(address)": "f2fde38b"
				}
			},
			"userdoc": {
				"kind": "user",
				"methods": {},
				"version": 1
			}
		}
	}
}